{
  "address": "0x4a67A2f4C466Fda84e53eE2632E1fC0B77a9c80B",
  "abi": [
    {
      "inputs": [
        {
          "internalType": "contract Oracle",
          "name": "_oracle",
          "type": "address"
        },
        {
          "internalType": "address",
          "name": "_beneficiary",
          "type": "address"
        },
        {
          "internalType": "uint256",
          "name": "initialFee",
          "type": "uint256"
        }
      ],
      "stateMutability": "nonpayable",
      "type": "constructor"
    },
    {
      "anonymous": false,
      "inputs": [
        {
          "indexed": false,
          "internalType": "address",
          "name": "newBeneficiary",
          "type": "address"
        }
      ],
      "name": "BeneficiarySet",
      "type": "event"
    },
    {
      "anonymous": false,
      "inputs": [
        {
          "indexed": false,
          "internalType": "address",
          "name": "token",
          "type": "address"
        },
        {
          "indexed": false,
          "internalType": "uint256",
          "name": "amount",
          "type": "uint256"
        },
        {
          "indexed": false,
          "internalType": "address",
          "name": "to",
          "type": "address"
        }
      ],
      "name": "EmergencyWithdrawal",
      "type": "event"
    },
    {
      "anonymous": false,
      "inputs": [
        {
          "indexed": false,
          "internalType": "uint256",
          "name": "feeNumerator",
          "type": "uint256"
        }
      ],
      "name": "FeeNumeratorSet",
      "type": "event"
    },
    {
      "anonymous": false,
      "inputs": [
        {
          "indexed": false,
          "internalType": "address",
          "name": "oracle",
          "type": "address"
        }
      ],
      "name": "OracleSet",
      "type": "event"
    },
    {
      "anonymous": false,
      "inputs": [
        {
          "indexed": false,
          "internalType": "address",
          "name": "oracleUpdater",
          "type": "address"
        }
      ],
      "name": "OracleUpdaterChanged",
      "type": "event"
    },
    {
      "anonymous": false,
      "inputs": [
        {
          "indexed": true,
          "internalType": "address",
          "name": "userAddress",
          "type": "address"
        },
        {
          "indexed": false,
          "internalType": "uint256",
          "name": "index",
          "type": "uint256"
        },
        {
          "indexed": true,
          "internalType": "contract IERC20",
          "name": "sellToken",
          "type": "address"
        },
        {
          "indexed": true,
          "internalType": "contract IERC20",
          "name": "buyToken",
          "type": "address"
        },
        {
          "indexed": false,
          "internalType": "uint256",
          "name": "amountPerSwap",
          "type": "uint256"
        },
        {
          "indexed": false,
          "internalType": "uint256",
          "name": "numberOfSwaps",
          "type": "uint256"
        },
        {
          "indexed": false,
          "internalType": "uint256",
          "name": "startingPeriod",
          "type": "uint256"
        }
      ],
      "name": "OrderCreated",
      "type": "event"
    },
    {
      "anonymous": false,
      "inputs": [
        {
          "indexed": true,
          "internalType": "address",
          "name": "previousOwner",
          "type": "address"
        },
        {
          "indexed": true,
          "internalType": "address",
          "name": "newOwner",
          "type": "address"
        }
      ],
      "name": "OwnershipTransferred",
      "type": "event"
    },
    {
      "anonymous": false,
      "inputs": [
        {
          "indexed": true,
          "internalType": "address",
          "name": "userAddress",
          "type": "address"
        },
        {
          "indexed": true,
          "internalType": "uint256",
          "name": "index",
          "type": "uint256"
        },
        {
          "indexed": true,
          "internalType": "address",
          "name": "token",
          "type": "address"
        },
        {
          "indexed": false,
          "internalType": "uint256",
          "name": "amount",
          "type": "uint256"
        }
      ],
      "name": "RemainingWithdrawal",
      "type": "event"
    },
    {
      "anonymous": false,
      "inputs": [
        {
          "indexed": true,
          "internalType": "address",
          "name": "sellToken",
          "type": "address"
        },
        {
          "indexed": true,
          "internalType": "address",
          "name": "buyToken",
          "type": "address"
        },
        {
          "indexed": false,
          "internalType": "uint256",
          "name": "sellAmount",
          "type": "uint256"
        },
        {
          "indexed": false,
          "internalType": "uint256",
          "name": "buyAmount",
          "type": "uint256"
        },
        {
          "indexed": true,
          "internalType": "uint256",
          "name": "period",
          "type": "uint256"
        }
      ],
      "name": "SwapExecuted",
      "type": "event"
    },
    {
      "anonymous": false,
      "inputs": [
        {
          "indexed": true,
          "internalType": "address",
          "name": "userAddress",
          "type": "address"
        },
        {
          "indexed": true,
          "internalType": "uint256",
          "name": "index",
          "type": "uint256"
        },
        {
          "indexed": true,
          "internalType": "address",
          "name": "token",
          "type": "address"
        },
        {
          "indexed": false,
          "internalType": "uint256",
          "name": "amount",
          "type": "uint256"
        }
      ],
      "name": "SwappedWithdrawal",
      "type": "event"
    },
    {
      "anonymous": false,
      "inputs": [
        {
          "indexed": false,
          "internalType": "address",
          "name": "sellToken",
          "type": "address"
        },
        {
          "indexed": false,
          "internalType": "address",
          "name": "buyToken",
          "type": "address"
        }
      ],
      "name": "TokenPairInitialized",
      "type": "event"
    },
    {
      "inputs": [],
      "name": "BLOCKS_PER_DAY",
      "outputs": [
        {
          "internalType": "uint256",
          "name": "",
          "type": "uint256"
        }
      ],
      "stateMutability": "view",
      "type": "function"
    },
    {
      "inputs": [],
      "name": "FEE_DENOMINATOR",
      "outputs": [
        {
          "internalType": "uint256",
          "name": "",
          "type": "uint256"
        }
      ],
      "stateMutability": "view",
      "type": "function"
    },
    {
      "inputs": [],
      "name": "MAX_FEE_NUMERATOR",
      "outputs": [
        {
          "internalType": "uint256",
          "name": "",
          "type": "uint256"
        }
      ],
      "stateMutability": "view",
      "type": "function"
    },
    {
      "inputs": [],
      "name": "beneficiary",
      "outputs": [
        {
          "internalType": "address",
          "name": "",
          "type": "address"
        }
      ],
      "stateMutability": "view",
      "type": "function"
    },
    {
      "inputs": [
        {
          "components": [
            {
              "internalType": "contract IERC20",
              "name": "sellToken",
              "type": "address"
            },
            {
              "internalType": "contract IERC20",
              "name": "buyToken",
              "type": "address"
            },
            {
              "internalType": "uint256",
              "name": "amountPerSwap",
              "type": "uint256"
            },
            {
              "internalType": "uint256",
              "name": "numberOfSwaps",
              "type": "uint256"
            },
            {
              "internalType": "uint256",
              "name": "startingPeriod",
              "type": "uint256"
            },
            {
              "internalType": "uint256",
              "name": "lastPeriodWithdrawal",
              "type": "uint256"
            }
          ],
          "internalType": "struct DCA.UserOrder",
          "name": "order",
          "type": "tuple"
        }
      ],
      "name": "calculateAmountToWithdraw",
      "outputs": [
        {
          "internalType": "uint256",
          "name": "amountToWithdraw",
          "type": "uint256"
        },
        {
          "internalType": "uint256",
          "name": "finalPeriod",
          "type": "uint256"
        }
      ],
      "stateMutability": "view",
      "type": "function"
    },
    {
      "inputs": [
        {
          "internalType": "contract IERC20",
          "name": "_sellToken",
          "type": "address"
        },
        {
          "internalType": "contract IERC20",
          "name": "_buyToken",
          "type": "address"
        },
        {
          "internalType": "uint256",
          "name": "_amountPerSwap",
          "type": "uint256"
        },
        {
          "internalType": "uint256",
          "name": "_numberOfSwaps",
          "type": "uint256"
        }
      ],
      "name": "createOrder",
      "outputs": [
        {
          "internalType": "uint256",
          "name": "index",
          "type": "uint256"
        }
      ],
      "stateMutability": "nonpayable",
      "type": "function"
    },
    {
      "inputs": [
        {
          "internalType": "contract IERC20",
          "name": "token",
          "type": "address"
        },
        {
          "internalType": "address",
          "name": "to",
          "type": "address"
        }
      ],
      "name": "emergencyWithdrawal",
      "outputs": [],
      "stateMutability": "nonpayable",
      "type": "function"
    },
    {
      "inputs": [
        {
          "internalType": "address",
          "name": "_sellToken",
          "type": "address"
        },
        {
          "internalType": "address",
          "name": "_buyToken",
          "type": "address"
        },
        {
          "internalType": "uint256",
          "name": "_period",
          "type": "uint256"
        },
        {
          "internalType": "address",
          "name": "_swapper",
          "type": "address"
        },
        {
          "internalType": "bytes",
          "name": "_params",
          "type": "bytes"
        }
      ],
      "name": "executeOrder",
      "outputs": [],
      "stateMutability": "nonpayable",
      "type": "function"
    },
    {
      "inputs": [],
      "name": "feeNumerator",
      "outputs": [
        {
          "internalType": "uint256",
          "name": "",
          "type": "uint256"
        }
      ],
      "stateMutability": "view",
      "type": "function"
    },
    {
      "inputs": [],
      "name": "getCurrentPeriod",
      "outputs": [
        {
          "internalType": "uint256",
          "name": "period",
          "type": "uint256"
        }
      ],
      "stateMutability": "view",
      "type": "function"
    },
    {
      "inputs": [
        {
          "internalType": "address",
          "name": "sellToken",
          "type": "address"
        },
        {
          "internalType": "address",
          "name": "buyToken",
          "type": "address"
        },
        {
          "internalType": "uint256",
          "name": "period",
          "type": "uint256"
        }
      ],
      "name": "getPeriodSwapState",
      "outputs": [
        {
          "components": [
            {
              "internalType": "uint256",
              "name": "exchangeRate",
              "type": "uint256"
            },
            {
              "internalType": "uint256",
              "name": "amountToReduce",
              "type": "uint256"
            },
            {
              "internalType": "uint256",
              "name": "feeNumerator",
              "type": "uint256"
            }
          ],
          "internalType": "struct DCA.PeriodSwapState",
          "name": "",
          "type": "tuple"
        }
      ],
      "stateMutability": "view",
      "type": "function"
    },
    {
      "inputs": [
        {
          "internalType": "address",
          "name": "sellToken",
          "type": "address"
        },
        {
          "internalType": "address",
          "name": "buyToken",
          "type": "address"
        }
      ],
      "name": "getSwapState",
      "outputs": [
        {
          "components": [
            {
              "internalType": "uint256",
              "name": "amountToSwap",
              "type": "uint256"
            },
            {
              "internalType": "uint256",
              "name": "lastSwapPeriod",
              "type": "uint256"
            }
          ],
          "internalType": "struct DCA.SwapState",
          "name": "",
          "type": "tuple"
        }
      ],
      "stateMutability": "view",
      "type": "function"
    },
    {
      "inputs": [
        {
          "internalType": "address",
          "name": "userAddress",
          "type": "address"
        }
      ],
      "name": "getUserOrders",
      "outputs": [
        {
          "components": [
            {
              "internalType": "contract IERC20",
              "name": "sellToken",
              "type": "address"
            },
            {
              "internalType": "contract IERC20",
              "name": "buyToken",
              "type": "address"
            },
            {
              "internalType": "uint256",
              "name": "amountPerSwap",
              "type": "uint256"
            },
            {
              "internalType": "uint256",
              "name": "numberOfSwaps",
              "type": "uint256"
            },
            {
              "internalType": "uint256",
              "name": "startingPeriod",
              "type": "uint256"
            },
            {
              "internalType": "uint256",
              "name": "lastPeriodWithdrawal",
              "type": "uint256"
            }
          ],
          "internalType": "struct DCA.UserOrder[]",
          "name": "",
          "type": "tuple[]"
        }
      ],
      "stateMutability": "view",
      "type": "function"
    },
    {
      "inputs": [],
      "name": "guardrailsOn",
      "outputs": [
        {
          "internalType": "bool",
          "name": "",
          "type": "bool"
        }
      ],
      "stateMutability": "view",
      "type": "function"
    },
    {
      "inputs": [],
      "name": "oracle",
      "outputs": [
        {
          "internalType": "contract Oracle",
          "name": "",
          "type": "address"
        }
      ],
      "stateMutability": "view",
      "type": "function"
    },
    {
      "inputs": [],
      "name": "oracleUpdater",
      "outputs": [
        {
          "internalType": "address",
          "name": "",
          "type": "address"
        }
      ],
      "stateMutability": "view",
      "type": "function"
    },
    {
      "inputs": [
        {
          "internalType": "address",
          "name": "",
          "type": "address"
        },
        {
          "internalType": "uint256",
          "name": "",
          "type": "uint256"
        }
      ],
      "name": "orders",
      "outputs": [
        {
          "internalType": "contract IERC20",
          "name": "sellToken",
          "type": "address"
        },
        {
          "internalType": "contract IERC20",
          "name": "buyToken",
          "type": "address"
        },
        {
          "internalType": "uint256",
          "name": "amountPerSwap",
          "type": "uint256"
        },
        {
          "internalType": "uint256",
          "name": "numberOfSwaps",
          "type": "uint256"
        },
        {
          "internalType": "uint256",
          "name": "startingPeriod",
          "type": "uint256"
        },
        {
          "internalType": "uint256",
          "name": "lastPeriodWithdrawal",
          "type": "uint256"
        }
      ],
      "stateMutability": "view",
      "type": "function"
    },
    {
      "inputs": [],
      "name": "owner",
      "outputs": [
        {
          "internalType": "address",
          "name": "",
          "type": "address"
        }
      ],
      "stateMutability": "view",
      "type": "function"
    },
    {
      "inputs": [
        {
          "internalType": "address",
          "name": "",
          "type": "address"
        },
        {
          "internalType": "address",
          "name": "",
          "type": "address"
        },
        {
          "internalType": "uint256",
          "name": "",
          "type": "uint256"
        }
      ],
      "name": "periodsSwapStates",
      "outputs": [
        {
          "internalType": "uint256",
          "name": "exchangeRate",
          "type": "uint256"
        },
        {
          "internalType": "uint256",
          "name": "amountToReduce",
          "type": "uint256"
        },
        {
          "internalType": "uint256",
          "name": "feeNumerator",
          "type": "uint256"
        }
      ],
      "stateMutability": "view",
      "type": "function"
    },
    {
      "inputs": [],
      "name": "renounceOwnership",
      "outputs": [],
      "stateMutability": "nonpayable",
      "type": "function"
    },
    {
      "inputs": [
        {
          "internalType": "address",
          "name": "_beneficiary",
          "type": "address"
        }
      ],
      "name": "setBeneficiary",
      "outputs": [],
      "stateMutability": "nonpayable",
      "type": "function"
    },
    {
      "inputs": [
        {
          "internalType": "uint256",
          "name": "_feeNumerator",
          "type": "uint256"
        }
      ],
      "name": "setFeeNumerator",
      "outputs": [],
      "stateMutability": "nonpayable",
      "type": "function"
    },
    {
      "inputs": [
        {
          "internalType": "contract Oracle",
          "name": "_newOracle",
          "type": "address"
        }
      ],
      "name": "setOracle",
      "outputs": [],
      "stateMutability": "nonpayable",
      "type": "function"
    },
    {
      "inputs": [
        {
          "internalType": "address",
          "name": "_newOracleUpdater",
          "type": "address"
        }
      ],
      "name": "setOracleUpdater",
      "outputs": [],
      "stateMutability": "nonpayable",
      "type": "function"
    },
    {
      "inputs": [
        {
          "internalType": "address",
          "name": "",
          "type": "address"
        },
        {
          "internalType": "address",
          "name": "",
          "type": "address"
        }
      ],
      "name": "swapStates",
      "outputs": [
        {
          "internalType": "uint256",
          "name": "amountToSwap",
          "type": "uint256"
        },
        {
          "internalType": "uint256",
          "name": "lastSwapPeriod",
          "type": "uint256"
        }
      ],
      "stateMutability": "view",
      "type": "function"
    },
    {
      "inputs": [
        {
          "internalType": "address",
          "name": "newOwner",
          "type": "address"
        }
      ],
      "name": "transferOwnership",
      "outputs": [],
      "stateMutability": "nonpayable",
      "type": "function"
    },
    {
      "inputs": [],
      "name": "turnOffGuardrails",
      "outputs": [],
      "stateMutability": "nonpayable",
      "type": "function"
    },
    {
      "inputs": [
        {
          "internalType": "uint256",
          "name": "index",
          "type": "uint256"
        }
      ],
      "name": "withdrawAll",
      "outputs": [],
      "stateMutability": "nonpayable",
      "type": "function"
    },
    {
      "inputs": [
        {
          "internalType": "uint256",
          "name": "index",
          "type": "uint256"
        }
      ],
      "name": "withdrawSwapped",
      "outputs": [],
      "stateMutability": "nonpayable",
      "type": "function"
    }
  ],
  "transactionHash": "0x91f05a00701cd1c338fc3ae53e7ee9529e1ebb9c689fc014f6f27ce13bdd94d4",
  "args": [
    "0xF00979c09aC0c2e825d82480272cC91398e57cd6",
    "0xaCa6FBe30f1557004D261e2D905b82571aC9Bab7",
    4000
  ],
  "numDeployments": 15,
  "solcInputHash": "43aa4d3dc1a09f9946873c9e16e76b3e",
  "bytecode": "0x6080346200008057601f62002eba38819003918201601f19168301916001600160401b03831184841017620000855780849260609460405283398101031262000080578051620000709162000054826200009b565b604060208201519162000067836200009b565b015191620000ad565b604051612ccc9081620001ee8239f35b600080fd5b634e487b7160e01b600052604160045260246000fd5b6001600160a01b038116036200008057565b6020907f04d55a8be181fb8d75b76f2d48aa0b2ee40f47e53d6e61763eeeec46feea8a2492600054907f3f32684a32a11dabdbb8c0177de80aa3ae36a004d75210335b49e544e48cd0aa8460018060a01b03199433868616176000556040519060018060a01b0395863391167f8be0079c531659141344cd1fd0a4f28419497f9722a3daafe3b4186f6b6457e0600085a360068054600780548a16331790556001600160a81b031916918716918217600160a01b1790558152a11680916005541617600555604051908152a16117708111620001b4576020817fc1bcceddd77fdc95a8da9bec5802d2e0bb564dd02c0730222d8e12030bd9104392600455604051908152a1565b60405162461bcd60e51b8152602060048201526011602482015270088868274408ccaca40e8dede40d0d2ced607b1b6044820152606490fdfe60806040526004361015610013575b600080fd5b60003560e01c806306dc1f6a14610257578063086146d21461024e5780631709945a146102455780631b97e6e61461023c5780631c31f7101461023357806321ba7d631461022a57806338af3eed1461022157806363c69f08146102185780636bb987fe1461020f578063715018a614610206578063757f7934146101fd578063793b8c6d146101f45780637adbf973146101eb5780637dc0d1d0146101e2578063805d64a0146101d9578063851a1405146101d05780638da5cb5b146101c757806393bc6d7c146101be578063958e2d31146101b5578063a45db911146101ac578063aa24dca2146101a3578063ad2f6bf91461019a578063cec5afe714610191578063d73792a914610188578063e111e3e71461017f578063e86dea4a14610176578063f2fde38b1461016d578063fd9b5687146101645763fe8799181461015c57600080fd5b61000e6117d3565b5061000e611797565b5061000e6116a3565b5061000e611666565b5061000e61162b565b5061000e6115ee565b5061000e611535565b5061000e6114f0565b5061000e6112e4565b5061000e6111f6565b5061000e610ed6565b5061000e610e3c565b5061000e610de9565b5061000e610d5e565b5061000e610d0b565b5061000e610cb8565b5061000e610c00565b5061000e610b25565b5061000e610a5d565b5061000e6109b5565b5061000e610979565b5061000e6108a3565b5061000e6107c4565b5061000e610705565b5061000e610603565b5061000e61056e565b5061000e6104f5565b5061000e610471565b5061000e610373565b73ffffffffffffffffffffffffffffffffffffffff81160361000e57565b507f4e487b7100000000000000000000000000000000000000000000000000000000600052604160045260246000fd5b60c0810190811067ffffffffffffffff8211176102ca57604052565b6102d261027e565b604052565b6060810190811067ffffffffffffffff8211176102ca57604052565b6040810190811067ffffffffffffffff8211176102ca57604052565b67ffffffffffffffff81116102ca57604052565b90601f7fffffffffffffffffffffffffffffffffffffffffffffffffffffffffffffffe0910116810190811067ffffffffffffffff8211176102ca57604052565b60405190610371826102ae565b565b503461000e5760a07ffffffffffffffffffffffffffffffffffffffffffffffffffffffffffffffffc36011261000e576004356103af81610260565b6024356103bb81610260565b6064356103c781610260565b6084359267ffffffffffffffff9283851161000e573660238601121561000e578460040135938411610459575b6040519361042a60207fffffffffffffffffffffffffffffffffffffffffffffffffffffffffffffffe0601f8401160186610323565b808552366024828801011161000e576020816000926024610457990183890137860101526044359161229b565b005b61046161027e565b6103f4565b600091031261000e57565b503461000e5760007ffffffffffffffffffffffffffffffffffffffffffffffffffffffffffffffffc36011261000e57602060405161438043048152f35b7ffffffffffffffffffffffffffffffffffffffffffffffffffffffffffffffffc604091011261000e576004356104e581610260565b906024356104f281610260565b90565b503461000e5761055073ffffffffffffffffffffffffffffffffffffffff61051c366104af565b9116600052600160205260406000209073ffffffffffffffffffffffffffffffffffffffff16600052602052604060002090565b805460019091015460408051928352602083019190915290f35b0390f35b503461000e5760c07ffffffffffffffffffffffffffffffffffffffffffffffffffffffffffffffffc36011261000e576105f16040516105ad816102ae565b6004356105b981610260565b81526024356105c781610260565b602082015260443560408201526064356060820152608435608082015260a43560a0820152612af2565b60408051928352602083019190915290f35b503461000e5760207ffffffffffffffffffffffffffffffffffffffffffffffffffffffffffffffffc36011261000e577f04d55a8be181fb8d75b76f2d48aa0b2ee40f47e53d6e61763eeeec46feea8a24602060043561066281610260565b73ffffffffffffffffffffffffffffffffffffffff9061068782600054163314611b1d565b16807fffffffffffffffffffffffff00000000000000000000000000000000000000006005541617600555604051908152a1005b7ffffffffffffffffffffffffffffffffffffffffffffffffffffffffffffffffc606091011261000e576004356106f181610260565b906024356106fe81610260565b9060443590565b503461000e57606073ffffffffffffffffffffffffffffffffffffffff61072b366106bb565b6107826040949392859485948551610742816102d7565b6000968188809352826020820152015216845260026020528484209073ffffffffffffffffffffffffffffffffffffffff16600052602052604060002090565b90825260205220908051610795816102d7565b825492838252826002600183015492602085019384520154920191825282519384525160208401525190820152f35b503461000e5760007ffffffffffffffffffffffffffffffffffffffffffffffffffffffffffffffffc36011261000e57602073ffffffffffffffffffffffffffffffffffffffff60055416604051908152f35b60208082019080835283518092528060408094019401926000905b83821061084157505050505090565b8451805173ffffffffffffffffffffffffffffffffffffffff90811688528185015116878501528082015187830152606080820151908801526080808201519088015260a0908101519087015260c09095019493820193600190910190610832565b503461000e576020807ffffffffffffffffffffffffffffffffffffffffffffffffffffffffffffffffc36011261000e5773ffffffffffffffffffffffffffffffffffffffff6004356108f581610260565b1660005260038152604060002090815467ffffffffffffffff811161096c575b604051919261092a600583901b850184610323565b8183526000908152838120938084015b83831061094f576040518061056a8782610817565b60068260019261095e896127a7565b81520196019201919461093a565b61097461027e565b610915565b503461000e5760007ffffffffffffffffffffffffffffffffffffffffffffffffffffffffffffffffc36011261000e5760206040516143808152f35b503461000e576000807ffffffffffffffffffffffffffffffffffffffffffffffffffffffffffffffffc360112610a5a5780547fffffffffffffffffffffffff000000000000000000000000000000000000000073ffffffffffffffffffffffffffffffffffffffff821691610a2c338414611b1d565b16825581604051917f8be0079c531659141344cd1fd0a4f28419497f9722a3daafe3b4186f6b6457e08284a3f35b80fd5b503461000e5760007ffffffffffffffffffffffffffffffffffffffffffffffffffffffffffffffffc36011261000e57610ab073ffffffffffffffffffffffffffffffffffffffff600054163314611b1d565b600680547fffffffffffffffffffffff00ffffffffffffffffffffffffffffffffffffffff169055005b8054821015610af6576000526006602060002091020190600090565b7f4e487b7100000000000000000000000000000000000000000000000000000000600052603260045260246000fd5b503461000e5760407ffffffffffffffffffffffffffffffffffffffffffffffffffffffffffffffffc36011261000e57600435610b6181610260565b60243573ffffffffffffffffffffffffffffffffffffffff8092166000526003602052604060002090815481101561000e57610b9c91610ada565b50805460018201546002830154600384015460048501546005909501546040805173ffffffffffffffffffffffffffffffffffffffff96891687168152979094169094166020870152918501526060840152608083019190915260a082015260c090f35b503461000e5760207ffffffffffffffffffffffffffffffffffffffffffffffffffffffffffffffffc36011261000e577f3f32684a32a11dabdbb8c0177de80aa3ae36a004d75210335b49e544e48cd0aa6020600435610c5f81610260565b73ffffffffffffffffffffffffffffffffffffffff90610c8482600754163314612a21565b16807fffffffffffffffffffffffff00000000000000000000000000000000000000006006541617600655604051908152a1005b503461000e5760007ffffffffffffffffffffffffffffffffffffffffffffffffffffffffffffffffc36011261000e57602073ffffffffffffffffffffffffffffffffffffffff60065416604051908152f35b503461000e5760007ffffffffffffffffffffffffffffffffffffffffffffffffffffffffffffffffc36011261000e57602073ffffffffffffffffffffffffffffffffffffffff60075416604051908152f35b503461000e5773ffffffffffffffffffffffffffffffffffffffff610dbb610d85366106bb565b93909116600052600260205260406000209073ffffffffffffffffffffffffffffffffffffffff16600052602052604060002090565b9060005260205260606040600020805490600260018201549101549060405192835260208301526040820152f35b503461000e5760007ffffffffffffffffffffffffffffffffffffffffffffffffffffffffffffffffc36011261000e57602073ffffffffffffffffffffffffffffffffffffffff60005416604051908152f35b503461000e576040610ead73ffffffffffffffffffffffffffffffffffffffff610e65366104af565b9190600060208651610e76816102f3565b8281520152166000526001602052826000209073ffffffffffffffffffffffffffffffffffffffff16600052602052604060002090565b8151610eb8816102f3565b60206001835493848452015491019081528251918252516020820152f35b503461000e5760207ffffffffffffffffffffffffffffffffffffffffffffffffffffffffffffffffc36011261000e57600435610f1281612890565b610f4581610f403373ffffffffffffffffffffffffffffffffffffffff166000526003602052604060002090565b610ada565b5090610f81610f68835473ffffffffffffffffffffffffffffffffffffffff1690565b73ffffffffffffffffffffffffffffffffffffffff1690565b610fab8173ffffffffffffffffffffffffffffffffffffffff166000526001602052604060002090565b610ff9610fd2610f68600187015473ffffffffffffffffffffffffffffffffffffffff1690565b80929073ffffffffffffffffffffffffffffffffffffffff16600052602052604060002090565b61101461100f6004870154600388015490611da6565b611d27565b9460018201938454871161102457005b73ffffffffffffffffffffffffffffffffffffffff946110dc610f68946110ad8a61109e611189996110796110e29873ffffffffffffffffffffffffffffffffffffffff166000526002602052604060002090565b9073ffffffffffffffffffffffffffffffffffffffff16600052602052604060002090565b90600052602052604060002090565b60028601916110be83548254611d61565b90556110d1600183549201918254611d61565b905554915489611d61565b90611c6c565b95600582015561116f60006020611155611113610f68865473ffffffffffffffffffffffffffffffffffffffff1690565b6040517fa9059cbb000000000000000000000000000000000000000000000000000000008152336004820152602481018c905293849283919082906044820190565b03925af19081156111e9575b6000916111bb575b50612805565b5473ffffffffffffffffffffffffffffffffffffffff1690565b604051938452169133907f1aea12ef3450ec7749a467b47e7d800a7b493e4601d440ac5aebb94f747c122890602090a4005b6111dc915060203d81116111e2575b6111d48183610323565b810190611c9d565b38611169565b503d6111ca565b6111f1611cb5565b611161565b503461000e5760207ffffffffffffffffffffffffffffffffffffffffffffffffffffffffffffffffc36011261000e5760043561124c73ffffffffffffffffffffffffffffffffffffffff600054163314611b1d565b6117708111611286576020817fc1bcceddd77fdc95a8da9bec5802d2e0bb564dd02c0730222d8e12030bd9104392600455604051908152a1005b60646040517f08c379a000000000000000000000000000000000000000000000000000000000815260206004820152601160248201527f4443413a2046656520746f6f20686967680000000000000000000000000000006044820152fd5b503461000e5760407ffffffffffffffffffffffffffffffffffffffffffffffffffffffffffffffffc36011261000e577f3ab9db27a4cdd8c603a752b62d5fbd93b4b3509fe2596708e9688e42bbac357660043561134181610260565b6024359061134e82610260565b73ffffffffffffffffffffffffffffffffffffffff9061137382600054163314611b1d565b6006546113859060a01c60ff16612957565b6040517f70a082310000000000000000000000000000000000000000000000000000000081523060048201529291169060208084602481865afa9384156114e3575b6000946114aa575b506040517fa9059cbb00000000000000000000000000000000000000000000000000000000815273ffffffffffffffffffffffffffffffffffffffff831660048201526024810185905261147b929161144391818160448160008a5af191821561149d575b600092611480575b50506129bc565b6040519384938491939290604091606084019573ffffffffffffffffffffffffffffffffffffffff8093168552602085015216910152565b0390a1005b6114969250803d106111e2576111d48183610323565b388061143c565b6114a5611cb5565b611434565b8194506114d36114439161147b94933d88116114dc575b6114cb8183610323565b810190611ffb565b949192506113cf565b503d6114c1565b6114eb611cb5565b6113c7565b503461000e5760007ffffffffffffffffffffffffffffffffffffffffffffffffffffffffffffffffc36011261000e57602060ff60065460a01c166040519015158152f35b503461000e5760207ffffffffffffffffffffffffffffffffffffffffffffffffffffffffffffffffc36011261000e577f533d09c424dd042c543d0802296b09115923bce3f566e20c069e3d754a8aff8f60207fffffffffffffffffffffffff00000000000000000000000000000000000000006004356115b581610260565b6007549073ffffffffffffffffffffffffffffffffffffffff906115dc3383851614612a21565b169182911617600755604051908152a1005b503461000e5760007ffffffffffffffffffffffffffffffffffffffffffffffffffffffffffffffffc36011261000e576020604051620f42408152f35b503461000e5760207ffffffffffffffffffffffffffffffffffffffffffffffffffffffffffffffffc36011261000e57610457600435612890565b503461000e5760007ffffffffffffffffffffffffffffffffffffffffffffffffffffffffffffffffc36011261000e576020600454604051908152f35b503461000e5760207ffffffffffffffffffffffffffffffffffffffffffffffffffffffffffffffffc36011261000e576004356116df81610260565b73ffffffffffffffffffffffffffffffffffffffff61170381600054163314611b1d565b8116156117135761045790611b82565b60846040517f08c379a000000000000000000000000000000000000000000000000000000000815260206004820152602660248201527f4f776e61626c653a206e6577206f776e657220697320746865207a65726f206160448201527f64647265737300000000000000000000000000000000000000000000000000006064820152fd5b503461000e5760007ffffffffffffffffffffffffffffffffffffffffffffffffffffffffffffffffc36011261000e5760206040516117708152f35b503461000e5760807ffffffffffffffffffffffffffffffffffffffffffffffffffffffffffffffffc36011261000e5761056a60043561181281610260565b60243561181e81610260565b604435606435907faf8bd3c5abe498e30aea149b38afa6e7d9bbe58c9129b38eff2912440734c6e273ffffffffffffffffffffffffffffffffffffffff93848616936118d56118b860206118728488611c6c565b6040517f23b872dd000000000000000000000000000000000000000000000000000000008152336004820152306024820152604481019190915291829081906064820190565b038160008b5af1908115611b10575b600091611af2575b50611cc2565b61192c6119028673ffffffffffffffffffffffffffffffffffffffff166000526001602052604060002090565b96831680979073ffffffffffffffffffffffffffffffffffffffff16600052602052604060002090565b60018101805415611a95575b5461198a61194582611d78565b9461196d611951610364565b73ffffffffffffffffffffffffffffffffffffffff909c168c52565b73ffffffffffffffffffffffffffffffffffffffff1660208b0152565b8560408a01528260608a01528360808a015260a08901526119ac858254611da6565b905560016119fc6119e1886110798973ffffffffffffffffffffffffffffffffffffffff166000526002602052604060002090565b6119ee61100f8587611da6565b600052602052604060002090565b01611a08858254611da6565b9055611a68611a373373ffffffffffffffffffffffffffffffffffffffff166000526003602052604060002090565b5497611a633373ffffffffffffffffffffffffffffffffffffffff166000526003602052604060002090565b611db2565b60408051888152602081019590955284015260608301523391608090a46040519081529081906020820190565b611aa26143804304611d27565b81556040805173ffffffffffffffffffffffffffffffffffffffff89811682528a1660208201527f1860ddfae81fa4edaec7accf480512d07263c8e909d5cdae84da78e098fc7b099190a1611938565b611b0a915060203d81116111e2576111d48183610323565b386118cf565b611b18611cb5565b6118c7565b15611b2457565b60646040517f08c379a000000000000000000000000000000000000000000000000000000000815260206004820152602060248201527f4f776e61626c653a2063616c6c6572206973206e6f7420746865206f776e65726044820152fd5b6000549073ffffffffffffffffffffffffffffffffffffffff80911691827fffffffffffffffffffffffff0000000000000000000000000000000000000000821617600055167f8be0079c531659141344cd1fd0a4f28419497f9722a3daafe3b4186f6b6457e06000604051a3565b507f4e487b7100000000000000000000000000000000000000000000000000000000600052601160045260246000fd5b6b033b2e3c9fd0803ce800000090807fffffffffffffffffffffffffffffffffffffffffffffffffffffffffffffffff04821181151516611c60570290565b611c68611bf1565b0290565b807fffffffffffffffffffffffffffffffffffffffffffffffffffffffffffffffff04821181151516611c60570290565b9081602091031261000e5751801515810361000e5790565b506040513d6000823e3d90fd5b15611cc957565b60646040517f08c379a000000000000000000000000000000000000000000000000000000000815260206004820152601560248201527f4443413a204e6f7420656e6f7567682066756e647300000000000000000000006044820152fd5b7fffffffffffffffffffffffffffffffffffffffffffffffffffffffffffffffff9060018110611d55570190565b611d5d611bf1565b0190565b818110611d6c570390565b611d74611bf1565b0390565b6001907ffffffffffffffffffffffffffffffffffffffffffffffffffffffffffffffffe8111611d55570190565b81198111611d55570190565b8054611dd59168010000000000000000821015611ec5575b600182018155610ada565b919091611e9657805182547fffffffffffffffffffffffff00000000000000000000000000000000000000001673ffffffffffffffffffffffffffffffffffffffff91821617835560059160a091611e7190602083015116600186019073ffffffffffffffffffffffffffffffffffffffff167fffffffffffffffffffffffff0000000000000000000000000000000000000000825416179055565b6040810151600285015560608101516003850155608081015160048501550151910155565b7f4e487b7100000000000000000000000000000000000000000000000000000000600052600060045260246000fd5b611ecd61027e565b611dca565b15611ed957565b60646040517f08c379a000000000000000000000000000000000000000000000000000000000815260206004820152601360248201527f4443413a20496e76616c696420706572696f64000000000000000000000000006044820152fd5b15611f3e57565b60846040517f08c379a000000000000000000000000000000000000000000000000000000000815260206004820152602360248201527f4443413a20506572696f642063616e6e6f7420626520696e207468652066757460448201527f75726500000000000000000000000000000000000000000000000000000000006064820152fd5b8115611fcc570490565b7f4e487b7100000000000000000000000000000000000000000000000000000000600052601260045260246000fd5b9081602091031261000e575190565b1561201157565b60646040517f08c379a000000000000000000000000000000000000000000000000000000000815260206004820152601360248201527f4443413a204f7261636c65206661696c757265000000000000000000000000006044820152fd5b6001907fffffffffffffffffffffffffffffffffffffffffffffffffffffffffffffffff8114611d55570190565b156120a457565b60846040517f08c379a000000000000000000000000000000000000000000000000000000000815260206004820152602760248201527f4443413a20466565207472616e7366657220746f2062656e656669636961727960448201527f206661696c6564000000000000000000000000000000000000000000000000006064820152fd5b1561212f57565b60646040517f08c379a000000000000000000000000000000000000000000000000000000000815260206004820152601f60248201527f4443413a205472616e7366657220746f2053776170706572206661696c6564006044820152fd5b9391929095949573ffffffffffffffffffffffffffffffffffffffff809116855260209316838501526040840152606083015260a060808301528351908160a08401526000945b828610612220575050601f817fffffffffffffffffffffffffffffffffffffffffffffffffffffffffffffffe09260c0959611612213575b0116010190565b600085828601015261220c565b85810182015184870160c00152948101946121d4565b1561223d57565b60646040517f08c379a000000000000000000000000000000000000000000000000000000000815260206004820152602060248201527f4443413a204e6f7420656e6f7567682062616c616e63652072657475726e65646044820152fd5b926123ac909492946122d1836110798773ffffffffffffffffffffffffffffffffffffffff166000526001602052604060002090565b936001850154916122eb886122e585611d78565b14611ed2565b6122fb6143804304891115611f37565b85549261231661230d60045486611c6c565b620f4240900490565b966123218886611d61565b948a888b60208261234a610f6860065473ffffffffffffffffffffffffffffffffffffffff1690565b6040517f8c86f1e400000000000000000000000000000000000000000000000000000000815273ffffffffffffffffffffffffffffffffffffffff8086166004830152602482018e90529092166044830152909b8c9190829081906064820190565b03915afa998a1561279a575b60009a61275b575b5061241b939261109e61240b93611079612405946123df8f151561200a565b73ffffffffffffffffffffffffffffffffffffffff166000526002602052604060002090565b9461206f565b6001840155600184015490611d61565b905561242f8461242a87611c21565b611fc2565b8155600260045491015573ffffffffffffffffffffffffffffffffffffffff96878116966124f2600060206124d88b61247d60055473ffffffffffffffffffffffffffffffffffffffff1690565b956040519485809481937fa9059cbb000000000000000000000000000000000000000000000000000000009a8b8452600484016020909392919373ffffffffffffffffffffffffffffffffffffffff60408201951681520152565b03925af190811561274e575b60009161272f575b5061209d565b6040517f70a0823100000000000000000000000000000000000000000000000000000000808252306004830152888b169a9094919290919087908b906020868f81806024810103915afa958615612722575b6000966126f4575b5060405190815273ffffffffffffffffffffffffffffffffffffffff8416600482015260248101929092526125a49190602090829081600081604481015b03925af19081156126e7575b6000916126c8575b50612128565b1690813b1561000e578660008782947f28c738dbec11a1bed94ba127a3712d54bcd39cf4ae95b6ebd671aaf10fd0287b9b8361262d9861261761265a9c604051988997889687957f2506c0180000000000000000000000000000000000000000000000000000000087526004870161218d565b03925af180156126bb575b6126a2575b50611da6565b6040519182523060048301526020826024818b5afa918215612695575b600092612674575b501115612236565b60408051918252602082019290925290819081015b0390a4565b61268e91925060203d6020116114dc576114cb8183610323565b9038612652565b61269d611cb5565b61264a565b806126af6126b59261030f565b80610466565b38612627565b6126c3611cb5565b612622565b6126e1915060203d6020116111e2576111d48183610323565b3861259e565b6126ef611cb5565b612596565b60209196509261258a926127176125a495843d86116114dc576114cb8183610323565b97925092509261254c565b61272a611cb5565b612544565b612748915060203d6020116111e2576111d48183610323565b386124ec565b612756611cb5565b6124e4565b6123df9a509261109e61240b936110796124059461278b61241b999860203d6020116114dc576114cb8183610323565b9e5094505093505092936123c0565b6127a2611cb5565b6123b8565b906040516127b4816102ae565b60a06005829473ffffffffffffffffffffffffffffffffffffffff80825416855260018201541660208501526002810154604085015260038101546060850152600481015460808501520154910152565b1561280c57565b60846040517f08c379a000000000000000000000000000000000000000000000000000000000815260206004820152602160248201527f4443413a204e6f7420656e6f7567682066756e647320746f207769746864726160448201527f77000000000000000000000000000000000000000000000000000000000000006064820152fd5b6128be81610f403373ffffffffffffffffffffffffffffffffffffffff166000526003602052604060002090565b509073ffffffffffffffffffffffffffffffffffffffff612921610f6860016128ee6128e9876127a7565b612af2565b600588929801550161116f60006020611155611113610f68865473ffffffffffffffffffffffffffffffffffffffff1690565b604051938452169133907fe6f9d2780c8923607fbb084350c15a1655c3fc682c989303c218a016a00324a090806020810161266f565b1561295e57565b60646040517f08c379a000000000000000000000000000000000000000000000000000000000815260206004820152601760248201527f4443413a2047756172647261696c7320617265206f66660000000000000000006044820152fd5b156129c357565b60646040517f08c379a000000000000000000000000000000000000000000000000000000000815260206004820152601e60248201527f4443413a20456d657267656e6379207472616e73666572206661696c656400006044820152fd5b15612a2857565b60846040517f08c379a000000000000000000000000000000000000000000000000000000000815260206004820152602560248201527f4443413a2063616c6c6572206973206e6f7420746865206f7261636c6520757060448201527f64617465720000000000000000000000000000000000000000000000000000006064820152fd5b90604051612ab9816102f3565b602060018294805484520154910152565b90604051612ad7816102d7565b60406002829480548452600181015460208501520154910152565b612b3c612b16610f68835173ffffffffffffffffffffffffffffffffffffffff1690565b73ffffffffffffffffffffffffffffffffffffffff166000526001602052604060002090565b91612bb46020612b96612b9182860196612b6d610f68895173ffffffffffffffffffffffffffffffffffffffff1690565b73ffffffffffffffffffffffffffffffffffffffff16600052602052604060002090565b612aac565b0151612bae61100f6080860151606087015190611da6565b90612c84565b91600093612bc560a0830151611d78565b915b84831115612bd457505050565b909194612c77612c7d91612c71612c35612c308a61109e612c0f6123df610f688b5173ffffffffffffffffffffffffffffffffffffffff1690565b612b6d610f688c5173ffffffffffffffffffffffffffffffffffffffff1690565b612aca565b612c6b61230d8251612c62612c50604092838c015190611c6c565b6b033b2e3c9fd0803ce8000000900490565b93015183611c6c565b90611d61565b90611da6565b9561206f565b9190612bc7565b9080821015612c91575090565b90509056fea264697066735822122093e9be1bfa4b8cad4f0c16a289db181a078529e3013204edc2587899f0522b3564736f6c634300080d0033",
  "devdoc": {
    "details": "To perform the swaps, we aggregate the tokens for all the users and make one big swap instead of many small ones.",
    "kind": "dev",
    "methods": {
      "createOrder(address,address,uint256,uint256)": {
        "params": {
          "_amountPerSwap": "amount of _sellToken to sell each period.",
          "_buyToken": "token to buy on each period.",
          "_numberOfSwaps": "number of periods to do the swapping.",
          "_sellToken": "token to sell on each period."
        }
      },
      "executeOrder(address,address,uint256,address,bytes)": {
        "params": {
          "_buyToken": "token to buy on the swap.",
          "_params": "params to send to |_swapper| for performing the swap.",
          "_period": "period to perform the swap for. It has only one possible valid value, so it is not strictly necessary.",
          "_sellToken": "token to sell on the swap.",
          "_swapper": "address that will perform the swap."
        }
      },
      "owner()": {
        "details": "Returns the address of the current owner."
      },
      "renounceOwnership()": {
        "details": "Leaves the contract without owner. It will not be possible to call `onlyOwner` functions anymore. Can only be called by the current owner. NOTE: Renouncing ownership will leave the contract without an owner, thereby removing any functionality that is only available to the owner."
      },
      "transferOwnership(address)": {
        "details": "Transfers ownership of the contract to a new account (`newOwner`). Can only be called by the current owner."
      },
      "withdrawAll(uint256)": {
        "params": {
          "index": "the index of the |orders| array for msg.sender."
        }
      },
      "withdrawSwapped(uint256)": {
        "params": {
          "index": "the index of the |orders| array for msg.sender."
        }
      }
    },
    "title": "DCA This contract allows users to deposit one token and gradually swaps it for another one every day at the price it's trading at, allowing user to buy the target token using a Dollar-Cost Averaging (DCA) strategy.",
    "version": 1
  },
  "userdoc": {
    "events": {
      "RemainingWithdrawal(address,uint256,address,uint256)": {
        "notice": "Emitted when a user withdraws their principal early. ie. before it was swapped."
      },
      "SwappedWithdrawal(address,uint256,address,uint256)": {
        "notice": "Emitted when a user withdraws the funds that were already swapped."
      }
    },
    "kind": "user",
    "methods": {
      "BLOCKS_PER_DAY()": {
        "notice": "Number of blocks in a day assuming 5 seconds per block. Works for the Celo blockchain."
      },
      "MAX_FEE_NUMERATOR()": {
        "notice": "Upper limit of the fee that can be charged on swaps. Has to be divided by |FEE_DENOMINATOR|. Equivalent to 60bps."
      },
      "beneficiary()": {
        "notice": "Where to send the fees."
      },
      "calculateAmountToWithdraw((address,address,uint256,uint256,uint256,uint256))": {
        "notice": "Calculates hoy much |buyToken| is available to withdraw for a user order. Takes into account previous withdrawals and fee taken."
      },
      "createOrder(address,address,uint256,uint256)": {
        "notice": "Starts a new DCA position for the |msg.sender|. When creating a new position, we add the |_amountPerSwap| to the |amountToSwap| variable on |SwapState| and to |amountToReduce| on the final period's |PeriodSwapState|. Thus, the amount to swap daily will increase between the current period and the final one."
      },
      "emergencyWithdrawal(address,address)": {
        "notice": "In case of emergency, in the beginning the owner can remove the funds to return them to users. Should be turned off before receiving any meaningful deposits by calling |turnOffGuardrails|."
      },
      "executeOrder(address,address,uint256,address,bytes)": {
        "notice": "Executes a swap between two tokens. The period must be the last executed + 1. The swapping is done by the |_swapper|. We calculate the required exchange rate using an oracle, send them the funds to swap and expect them to return the calculated return amount. This allows us to more easily add pairs since we just need the oracle support, not the exact routes to follow. Callers are incentivized to call this function for the arbitrage opportunity. In other words, the general logic followed here is: - Calculate and send the fee to the |beneficiary|. - Calculate the exchange rate using |oracle|. - Send the swap amount to |_swapper| can call its |swap| function. - Check that it returned the required funds taking the exchange rate into account."
      },
      "feeNumerator()": {
        "notice": "Active fee on swaps. To be used together with |FEE_DENOMINATOR|."
      },
      "guardrailsOn()": {
        "notice": "If true, the owner can withdraw funds. Should be turned off after there is sufficient confidence in the code, for example after audits."
      },
      "oracle()": {
        "notice": "Oracle to use to get the amount to receive on swaps."
      },
      "oracleUpdater()": {
        "notice": "Address that can update the oracle. Matches the owner at first, but should be operated by the community after a while."
      },
      "orders(address,uint256)": {
        "notice": "A list of |UserOrder| for each user address."
      },
      "periodsSwapStates(address,address,uint256)": {
        "notice": "Contains information related to swaps for a (sellToken, buyToken, period) tuple. See |PeriodSwapState| for more info."
      },
      "setBeneficiary(address)": {
        "notice": "Update the beneficiary"
      },
      "setFeeNumerator(uint256)": {
        "notice": "Update the fee"
      },
      "setOracle(address)": {
        "notice": "Update the oracle"
      },
      "setOracleUpdater(address)": {
        "notice": "Change the address that can update the oracle."
      },
      "swapStates(address,address)": {
        "notice": "Contains the state of a token pair swaps. For a given (sellToken, buyToken) it contains how much it should swap in the next period and when the last period was."
      },
      "withdrawAll(uint256)": {
        "notice": "Withdraw the funds that were already swapped for the caller user AND the funds that were not swapped yet, effectively terminating the position."
      },
      "withdrawSwapped(uint256)": {
        "notice": "Withdraw the funds that were already swapped for the caller user."
      }
    },
    "version": 1
  },
  "storageLayout": {
    "storage": [
      {
        "astId": 7,
        "contract": "contracts/DCA.sol:DCA",
        "label": "_owner",
        "offset": 0,
        "slot": "0",
        "type": "t_address"
      },
      {
        "astId": 1137,
        "contract": "contracts/DCA.sol:DCA",
        "label": "swapStates",
        "offset": 0,
        "slot": "1",
        "type": "t_mapping(t_address,t_mapping(t_address,t_struct(SwapState)1119_storage))"
      },
      {
        "astId": 1147,
        "contract": "contracts/DCA.sol:DCA",
        "label": "periodsSwapStates",
        "offset": 0,
        "slot": "2",
        "type": "t_mapping(t_address,t_mapping(t_address,t_mapping(t_uint256,t_struct(PeriodSwapState)1129_storage)))"
      },
      {
        "astId": 1154,
        "contract": "contracts/DCA.sol:DCA",
        "label": "orders",
        "offset": 0,
        "slot": "3",
        "type": "t_mapping(t_address,t_array(t_struct(UserOrder)1114_storage)dyn_storage)"
      },
      {
        "astId": 1157,
        "contract": "contracts/DCA.sol:DCA",
        "label": "feeNumerator",
        "offset": 0,
        "slot": "4",
        "type": "t_uint256"
      },
      {
        "astId": 1160,
        "contract": "contracts/DCA.sol:DCA",
        "label": "beneficiary",
        "offset": 0,
        "slot": "5",
        "type": "t_address"
      },
      {
        "astId": 1164,
        "contract": "contracts/DCA.sol:DCA",
        "label": "oracle",
        "offset": 0,
        "slot": "6",
        "type": "t_contract(Oracle)2720"
      },
      {
        "astId": 1167,
        "contract": "contracts/DCA.sol:DCA",
        "label": "guardrailsOn",
        "offset": 20,
        "slot": "6",
        "type": "t_bool"
      },
      {
        "astId": 1170,
        "contract": "contracts/DCA.sol:DCA",
        "label": "oracleUpdater",
        "offset": 0,
        "slot": "7",
        "type": "t_address"
      }
    ],
    "types": {
      "t_address": {
        "encoding": "inplace",
        "label": "address",
        "numberOfBytes": "20"
      },
      "t_array(t_struct(UserOrder)1114_storage)dyn_storage": {
        "base": "t_struct(UserOrder)1114_storage",
        "encoding": "dynamic_array",
        "label": "struct DCA.UserOrder[]",
        "numberOfBytes": "32"
      },
      "t_bool": {
        "encoding": "inplace",
        "label": "bool",
        "numberOfBytes": "1"
      },
      "t_contract(IERC20)860": {
        "encoding": "inplace",
        "label": "contract IERC20",
        "numberOfBytes": "20"
      },
      "t_contract(Oracle)2720": {
        "encoding": "inplace",
        "label": "contract Oracle",
        "numberOfBytes": "20"
      },
      "t_mapping(t_address,t_array(t_struct(UserOrder)1114_storage)dyn_storage)": {
        "encoding": "mapping",
        "key": "t_address",
        "label": "mapping(address => struct DCA.UserOrder[])",
        "numberOfBytes": "32",
        "value": "t_array(t_struct(UserOrder)1114_storage)dyn_storage"
      },
      "t_mapping(t_address,t_mapping(t_address,t_mapping(t_uint256,t_struct(PeriodSwapState)1129_storage)))": {
        "encoding": "mapping",
        "key": "t_address",
        "label": "mapping(address => mapping(address => mapping(uint256 => struct DCA.PeriodSwapState)))",
        "numberOfBytes": "32",
        "value": "t_mapping(t_address,t_mapping(t_uint256,t_struct(PeriodSwapState)1129_storage))"
      },
      "t_mapping(t_address,t_mapping(t_address,t_struct(SwapState)1119_storage))": {
        "encoding": "mapping",
        "key": "t_address",
        "label": "mapping(address => mapping(address => struct DCA.SwapState))",
        "numberOfBytes": "32",
        "value": "t_mapping(t_address,t_struct(SwapState)1119_storage)"
      },
      "t_mapping(t_address,t_mapping(t_uint256,t_struct(PeriodSwapState)1129_storage))": {
        "encoding": "mapping",
        "key": "t_address",
        "label": "mapping(address => mapping(uint256 => struct DCA.PeriodSwapState))",
        "numberOfBytes": "32",
        "value": "t_mapping(t_uint256,t_struct(PeriodSwapState)1129_storage)"
      },
      "t_mapping(t_address,t_struct(SwapState)1119_storage)": {
        "encoding": "mapping",
        "key": "t_address",
        "label": "mapping(address => struct DCA.SwapState)",
        "numberOfBytes": "32",
        "value": "t_struct(SwapState)1119_storage"
      },
      "t_mapping(t_uint256,t_struct(PeriodSwapState)1129_storage)": {
        "encoding": "mapping",
        "key": "t_uint256",
        "label": "mapping(uint256 => struct DCA.PeriodSwapState)",
        "numberOfBytes": "32",
        "value": "t_struct(PeriodSwapState)1129_storage"
      },
      "t_struct(PeriodSwapState)1129_storage": {
        "encoding": "inplace",
        "label": "struct DCA.PeriodSwapState",
        "members": [
          {
            "astId": 1122,
            "contract": "contracts/DCA.sol:DCA",
            "label": "exchangeRate",
            "offset": 0,
            "slot": "0",
            "type": "t_uint256"
          },
          {
            "astId": 1125,
            "contract": "contracts/DCA.sol:DCA",
            "label": "amountToReduce",
            "offset": 0,
            "slot": "1",
            "type": "t_uint256"
          },
          {
            "astId": 1128,
            "contract": "contracts/DCA.sol:DCA",
            "label": "feeNumerator",
            "offset": 0,
            "slot": "2",
            "type": "t_uint256"
          }
        ],
        "numberOfBytes": "96"
      },
      "t_struct(SwapState)1119_storage": {
        "encoding": "inplace",
        "label": "struct DCA.SwapState",
        "members": [
          {
            "astId": 1116,
            "contract": "contracts/DCA.sol:DCA",
            "label": "amountToSwap",
            "offset": 0,
            "slot": "0",
            "type": "t_uint256"
          },
          {
            "astId": 1118,
            "contract": "contracts/DCA.sol:DCA",
            "label": "lastSwapPeriod",
            "offset": 0,
            "slot": "1",
            "type": "t_uint256"
          }
        ],
        "numberOfBytes": "64"
      },
      "t_struct(UserOrder)1114_storage": {
        "encoding": "inplace",
        "label": "struct DCA.UserOrder",
        "members": [
          {
            "astId": 1102,
            "contract": "contracts/DCA.sol:DCA",
            "label": "sellToken",
            "offset": 0,
            "slot": "0",
            "type": "t_contract(IERC20)860"
          },
          {
            "astId": 1105,
            "contract": "contracts/DCA.sol:DCA",
            "label": "buyToken",
            "offset": 0,
            "slot": "1",
            "type": "t_contract(IERC20)860"
          },
          {
            "astId": 1107,
            "contract": "contracts/DCA.sol:DCA",
            "label": "amountPerSwap",
            "offset": 0,
            "slot": "2",
            "type": "t_uint256"
          },
          {
            "astId": 1109,
            "contract": "contracts/DCA.sol:DCA",
            "label": "numberOfSwaps",
            "offset": 0,
            "slot": "3",
            "type": "t_uint256"
          },
          {
            "astId": 1111,
            "contract": "contracts/DCA.sol:DCA",
            "label": "startingPeriod",
            "offset": 0,
            "slot": "4",
            "type": "t_uint256"
          },
          {
            "astId": 1113,
            "contract": "contracts/DCA.sol:DCA",
            "label": "lastPeriodWithdrawal",
            "offset": 0,
            "slot": "5",
            "type": "t_uint256"
          }
        ],
        "numberOfBytes": "192"
      },
      "t_uint256": {
        "encoding": "inplace",
        "label": "uint256",
        "numberOfBytes": "32"
      }
    }
  }
}