{
  "address": "0x9D5039CC978C1c8aCb562B15282afA2731dBDB25",
  "abi": [
    {
      "inputs": [
        {
          "internalType": "contract Oracle",
          "name": "_oracle",
          "type": "address"
        },
        {
          "internalType": "address",
          "name": "_beneficiary",
          "type": "address"
        },
        {
          "internalType": "uint256",
          "name": "initialFeeNumerator",
          "type": "uint256"
        },
        {
          "internalType": "uint256",
          "name": "initialProtocolFeePercent",
          "type": "uint256"
        }
      ],
      "stateMutability": "nonpayable",
      "type": "constructor"
    },
    {
      "anonymous": false,
      "inputs": [
        {
          "indexed": false,
          "internalType": "address",
          "name": "newBeneficiary",
          "type": "address"
        }
      ],
      "name": "BeneficiarySet",
      "type": "event"
    },
    {
      "anonymous": false,
      "inputs": [
        {
          "indexed": false,
          "internalType": "address",
          "name": "token",
          "type": "address"
        },
        {
          "indexed": false,
          "internalType": "uint256",
          "name": "amount",
          "type": "uint256"
        },
        {
          "indexed": false,
          "internalType": "address",
          "name": "to",
          "type": "address"
        }
      ],
      "name": "EmergencyWithdrawal",
      "type": "event"
    },
    {
      "anonymous": false,
      "inputs": [
        {
          "indexed": false,
          "internalType": "address",
          "name": "oracle",
          "type": "address"
        }
      ],
      "name": "OracleSet",
      "type": "event"
    },
    {
      "anonymous": false,
      "inputs": [
        {
          "indexed": false,
          "internalType": "address",
          "name": "oracleUpdater",
          "type": "address"
        }
      ],
      "name": "OracleUpdaterChanged",
      "type": "event"
    },
    {
      "anonymous": false,
      "inputs": [
        {
          "indexed": true,
          "internalType": "address",
          "name": "userAddress",
          "type": "address"
        },
        {
          "indexed": false,
          "internalType": "uint256",
          "name": "index",
          "type": "uint256"
        },
        {
          "indexed": true,
          "internalType": "contract IERC20",
          "name": "sellToken",
          "type": "address"
        },
        {
          "indexed": true,
          "internalType": "contract IERC20",
          "name": "buyToken",
          "type": "address"
        },
        {
          "indexed": false,
          "internalType": "uint256",
          "name": "amountPerSwap",
          "type": "uint256"
        },
        {
          "indexed": false,
          "internalType": "uint256",
          "name": "numberOfSwaps",
          "type": "uint256"
        },
        {
          "indexed": false,
          "internalType": "uint256",
          "name": "startingPeriod",
          "type": "uint256"
        }
      ],
      "name": "OrderCreated",
      "type": "event"
    },
    {
      "anonymous": false,
      "inputs": [
        {
          "indexed": true,
          "internalType": "address",
          "name": "previousOwner",
          "type": "address"
        },
        {
          "indexed": true,
          "internalType": "address",
          "name": "newOwner",
          "type": "address"
        }
      ],
      "name": "OwnershipTransferred",
      "type": "event"
    },
    {
      "anonymous": false,
      "inputs": [
        {
          "indexed": true,
          "internalType": "address",
          "name": "userAddress",
          "type": "address"
        },
        {
          "indexed": true,
          "internalType": "uint256",
          "name": "index",
          "type": "uint256"
        },
        {
          "indexed": true,
          "internalType": "address",
          "name": "token",
          "type": "address"
        },
        {
          "indexed": false,
          "internalType": "uint256",
          "name": "amount",
          "type": "uint256"
        }
      ],
      "name": "RemainingWithdrawal",
      "type": "event"
    },
    {
      "anonymous": false,
      "inputs": [
        {
          "indexed": true,
          "internalType": "address",
          "name": "sellToken",
          "type": "address"
        },
        {
          "indexed": true,
          "internalType": "address",
          "name": "buyToken",
          "type": "address"
        },
        {
          "indexed": false,
          "internalType": "uint256",
          "name": "sellAmount",
          "type": "uint256"
        },
        {
          "indexed": false,
          "internalType": "uint256",
          "name": "buyAmount",
          "type": "uint256"
        },
        {
          "indexed": true,
          "internalType": "uint256",
          "name": "period",
          "type": "uint256"
        }
      ],
      "name": "SwapExecuted",
      "type": "event"
    },
    {
      "anonymous": false,
      "inputs": [
        {
          "indexed": true,
          "internalType": "address",
          "name": "userAddress",
          "type": "address"
        },
        {
          "indexed": true,
          "internalType": "uint256",
          "name": "index",
          "type": "uint256"
        },
        {
          "indexed": true,
          "internalType": "address",
          "name": "token",
          "type": "address"
        },
        {
          "indexed": false,
          "internalType": "uint256",
          "name": "amount",
          "type": "uint256"
        }
      ],
      "name": "SwappedWithdrawal",
      "type": "event"
    },
    {
      "anonymous": false,
      "inputs": [
        {
          "indexed": false,
          "internalType": "address",
          "name": "sellToken",
          "type": "address"
        },
        {
          "indexed": false,
          "internalType": "address",
          "name": "buyToken",
          "type": "address"
        }
      ],
      "name": "TokenPairInitialized",
      "type": "event"
    },
    {
      "anonymous": false,
      "inputs": [
        {
          "indexed": false,
          "internalType": "uint256",
          "name": "feeNumerator",
          "type": "uint256"
        },
        {
          "indexed": false,
          "internalType": "uint256",
          "name": "protocolFeePercent",
          "type": "uint256"
        }
      ],
      "name": "UpdateFeeNumerator",
      "type": "event"
    },
    {
      "inputs": [],
      "name": "BLOCKS_PER_DAY",
      "outputs": [
        {
          "internalType": "uint256",
          "name": "",
          "type": "uint256"
        }
      ],
      "stateMutability": "view",
      "type": "function"
    },
    {
      "inputs": [],
      "name": "FEE_DENOMINATOR",
      "outputs": [
        {
          "internalType": "uint256",
          "name": "",
          "type": "uint256"
        }
      ],
      "stateMutability": "view",
      "type": "function"
    },
    {
      "inputs": [],
      "name": "MAX_FEE_NUMERATOR",
      "outputs": [
        {
          "internalType": "uint256",
          "name": "",
          "type": "uint256"
        }
      ],
      "stateMutability": "view",
      "type": "function"
    },
    {
      "inputs": [],
      "name": "beneficiary",
      "outputs": [
        {
          "internalType": "address",
          "name": "",
          "type": "address"
        }
      ],
      "stateMutability": "view",
      "type": "function"
    },
    {
      "inputs": [
        {
          "components": [
            {
              "internalType": "contract IERC20",
              "name": "sellToken",
              "type": "address"
            },
            {
              "internalType": "contract IERC20",
              "name": "buyToken",
              "type": "address"
            },
            {
              "internalType": "uint256",
              "name": "amountPerSwap",
              "type": "uint256"
            },
            {
              "internalType": "uint256",
              "name": "numberOfSwaps",
              "type": "uint256"
            },
            {
              "internalType": "uint256",
              "name": "startingPeriod",
              "type": "uint256"
            },
            {
              "internalType": "uint256",
              "name": "lastPeriodWithdrawal",
              "type": "uint256"
            }
          ],
          "internalType": "struct DCA.UserOrder",
          "name": "order",
          "type": "tuple"
        }
      ],
      "name": "calculateAmountToWithdraw",
      "outputs": [
        {
          "internalType": "uint256",
          "name": "amountToWithdraw",
          "type": "uint256"
        },
        {
          "internalType": "uint256",
          "name": "finalPeriod",
          "type": "uint256"
        }
      ],
      "stateMutability": "view",
      "type": "function"
    },
    {
      "inputs": [
        {
          "internalType": "contract IERC20",
          "name": "_sellToken",
          "type": "address"
        },
        {
          "internalType": "contract IERC20",
          "name": "_buyToken",
          "type": "address"
        },
        {
          "internalType": "uint256",
          "name": "_amountPerSwap",
          "type": "uint256"
        },
        {
          "internalType": "uint256",
          "name": "_numberOfSwaps",
          "type": "uint256"
        }
      ],
      "name": "createOrder",
      "outputs": [
        {
          "internalType": "uint256",
          "name": "index",
          "type": "uint256"
        }
      ],
      "stateMutability": "nonpayable",
      "type": "function"
    },
    {
      "inputs": [
        {
          "internalType": "contract IERC20",
          "name": "token",
          "type": "address"
        },
        {
          "internalType": "address",
          "name": "to",
          "type": "address"
        }
      ],
      "name": "emergencyWithdrawal",
      "outputs": [],
      "stateMutability": "nonpayable",
      "type": "function"
    },
    {
      "inputs": [
        {
          "internalType": "address",
          "name": "_sellToken",
          "type": "address"
        },
        {
          "internalType": "address",
          "name": "_buyToken",
          "type": "address"
        },
        {
          "internalType": "uint256",
          "name": "_period",
          "type": "uint256"
        },
        {
          "internalType": "address",
          "name": "_swapper",
          "type": "address"
        },
        {
          "internalType": "bytes",
          "name": "_params",
          "type": "bytes"
        }
      ],
      "name": "executeOrder",
      "outputs": [],
      "stateMutability": "nonpayable",
      "type": "function"
    },
    {
      "inputs": [],
      "name": "feeNumerator",
      "outputs": [
        {
          "internalType": "uint256",
          "name": "",
          "type": "uint256"
        }
      ],
      "stateMutability": "view",
      "type": "function"
    },
    {
      "inputs": [],
      "name": "getCurrentPeriod",
      "outputs": [
        {
          "internalType": "uint256",
          "name": "period",
          "type": "uint256"
        }
      ],
      "stateMutability": "view",
      "type": "function"
    },
    {
      "inputs": [
        {
          "internalType": "address",
          "name": "sellToken",
          "type": "address"
        },
        {
          "internalType": "address",
          "name": "buyToken",
          "type": "address"
        },
        {
          "internalType": "uint256",
          "name": "period",
          "type": "uint256"
        }
      ],
      "name": "getPeriodSwapState",
      "outputs": [
        {
          "components": [
            {
              "internalType": "uint256",
              "name": "exchangeRate",
              "type": "uint256"
            },
            {
              "internalType": "uint256",
              "name": "amountToReduce",
              "type": "uint256"
            },
            {
              "internalType": "uint256",
              "name": "feeNumerator",
              "type": "uint256"
            }
          ],
          "internalType": "struct DCA.PeriodSwapState",
          "name": "",
          "type": "tuple"
        }
      ],
      "stateMutability": "view",
      "type": "function"
    },
    {
      "inputs": [
        {
          "internalType": "address",
          "name": "sellToken",
          "type": "address"
        },
        {
          "internalType": "address",
          "name": "buyToken",
          "type": "address"
        }
      ],
      "name": "getSwapState",
      "outputs": [
        {
          "components": [
            {
              "internalType": "uint256",
              "name": "amountToSwap",
              "type": "uint256"
            },
            {
              "internalType": "uint256",
              "name": "lastSwapPeriod",
              "type": "uint256"
            }
          ],
          "internalType": "struct DCA.SwapState",
          "name": "",
          "type": "tuple"
        }
      ],
      "stateMutability": "view",
      "type": "function"
    },
    {
      "inputs": [
        {
          "internalType": "address",
          "name": "userAddress",
          "type": "address"
        }
      ],
      "name": "getUserOrders",
      "outputs": [
        {
          "components": [
            {
              "internalType": "contract IERC20",
              "name": "sellToken",
              "type": "address"
            },
            {
              "internalType": "contract IERC20",
              "name": "buyToken",
              "type": "address"
            },
            {
              "internalType": "uint256",
              "name": "amountPerSwap",
              "type": "uint256"
            },
            {
              "internalType": "uint256",
              "name": "numberOfSwaps",
              "type": "uint256"
            },
            {
              "internalType": "uint256",
              "name": "startingPeriod",
              "type": "uint256"
            },
            {
              "internalType": "uint256",
              "name": "lastPeriodWithdrawal",
              "type": "uint256"
            }
          ],
          "internalType": "struct DCA.UserOrder[]",
          "name": "",
          "type": "tuple[]"
        }
      ],
      "stateMutability": "view",
      "type": "function"
    },
    {
      "inputs": [],
      "name": "guardrailsOn",
      "outputs": [
        {
          "internalType": "bool",
          "name": "",
          "type": "bool"
        }
      ],
      "stateMutability": "view",
      "type": "function"
    },
    {
      "inputs": [],
      "name": "oracle",
      "outputs": [
        {
          "internalType": "contract Oracle",
          "name": "",
          "type": "address"
        }
      ],
      "stateMutability": "view",
      "type": "function"
    },
    {
      "inputs": [],
      "name": "oracleUpdater",
      "outputs": [
        {
          "internalType": "address",
          "name": "",
          "type": "address"
        }
      ],
      "stateMutability": "view",
      "type": "function"
    },
    {
      "inputs": [
        {
          "internalType": "address",
          "name": "",
          "type": "address"
        },
        {
          "internalType": "uint256",
          "name": "",
          "type": "uint256"
        }
      ],
      "name": "orders",
      "outputs": [
        {
          "internalType": "contract IERC20",
          "name": "sellToken",
          "type": "address"
        },
        {
          "internalType": "contract IERC20",
          "name": "buyToken",
          "type": "address"
        },
        {
          "internalType": "uint256",
          "name": "amountPerSwap",
          "type": "uint256"
        },
        {
          "internalType": "uint256",
          "name": "numberOfSwaps",
          "type": "uint256"
        },
        {
          "internalType": "uint256",
          "name": "startingPeriod",
          "type": "uint256"
        },
        {
          "internalType": "uint256",
          "name": "lastPeriodWithdrawal",
          "type": "uint256"
        }
      ],
      "stateMutability": "view",
      "type": "function"
    },
    {
      "inputs": [],
      "name": "owner",
      "outputs": [
        {
          "internalType": "address",
          "name": "",
          "type": "address"
        }
      ],
      "stateMutability": "view",
      "type": "function"
    },
    {
      "inputs": [
        {
          "internalType": "address",
          "name": "",
          "type": "address"
        },
        {
          "internalType": "address",
          "name": "",
          "type": "address"
        },
        {
          "internalType": "uint256",
          "name": "",
          "type": "uint256"
        }
      ],
      "name": "periodsSwapStates",
      "outputs": [
        {
          "internalType": "uint256",
          "name": "exchangeRate",
          "type": "uint256"
        },
        {
          "internalType": "uint256",
          "name": "amountToReduce",
          "type": "uint256"
        },
        {
          "internalType": "uint256",
          "name": "feeNumerator",
          "type": "uint256"
        }
      ],
      "stateMutability": "view",
      "type": "function"
    },
    {
      "inputs": [],
      "name": "protocolFeePercent",
      "outputs": [
        {
          "internalType": "uint256",
          "name": "",
          "type": "uint256"
        }
      ],
      "stateMutability": "view",
      "type": "function"
    },
    {
      "inputs": [],
      "name": "renounceOwnership",
      "outputs": [],
      "stateMutability": "nonpayable",
      "type": "function"
    },
    {
      "inputs": [
        {
          "internalType": "address",
          "name": "_beneficiary",
          "type": "address"
        }
      ],
      "name": "setBeneficiary",
      "outputs": [],
      "stateMutability": "nonpayable",
      "type": "function"
    },
    {
      "inputs": [
        {
          "internalType": "uint256",
          "name": "_feeNumerator",
          "type": "uint256"
        },
        {
          "internalType": "uint256",
          "name": "_protocolFeePercent",
          "type": "uint256"
        }
      ],
      "name": "setFeeNumerator",
      "outputs": [],
      "stateMutability": "nonpayable",
      "type": "function"
    },
    {
      "inputs": [
        {
          "internalType": "contract Oracle",
          "name": "_newOracle",
          "type": "address"
        }
      ],
      "name": "setOracle",
      "outputs": [],
      "stateMutability": "nonpayable",
      "type": "function"
    },
    {
      "inputs": [
        {
          "internalType": "address",
          "name": "_newOracleUpdater",
          "type": "address"
        }
      ],
      "name": "setOracleUpdater",
      "outputs": [],
      "stateMutability": "nonpayable",
      "type": "function"
    },
    {
      "inputs": [
        {
          "internalType": "address",
          "name": "",
          "type": "address"
        },
        {
          "internalType": "address",
          "name": "",
          "type": "address"
        }
      ],
      "name": "swapStates",
      "outputs": [
        {
          "internalType": "uint256",
          "name": "amountToSwap",
          "type": "uint256"
        },
        {
          "internalType": "uint256",
          "name": "lastSwapPeriod",
          "type": "uint256"
        }
      ],
      "stateMutability": "view",
      "type": "function"
    },
    {
      "inputs": [
        {
          "internalType": "address",
          "name": "newOwner",
          "type": "address"
        }
      ],
      "name": "transferOwnership",
      "outputs": [],
      "stateMutability": "nonpayable",
      "type": "function"
    },
    {
      "inputs": [],
      "name": "turnOffGuardrails",
      "outputs": [],
      "stateMutability": "nonpayable",
      "type": "function"
    },
    {
      "inputs": [
        {
          "internalType": "uint256",
          "name": "index",
          "type": "uint256"
        }
      ],
      "name": "withdrawAll",
      "outputs": [],
      "stateMutability": "nonpayable",
      "type": "function"
    },
    {
      "inputs": [
        {
          "internalType": "address",
          "name": "userAddress",
          "type": "address"
        },
        {
          "internalType": "uint256",
          "name": "index",
          "type": "uint256"
        }
      ],
      "name": "withdrawSwapped",
      "outputs": [],
      "stateMutability": "nonpayable",
      "type": "function"
    }
  ],
  "transactionHash": "0x0a7b785a48121c2d4008adea9f25f00fbf4777c4353d0a58581591aa0009b2b3",
  "args": [
    "0xF00979c09aC0c2e825d82480272cC91398e57cd6",
    "0xaCa6FBe30f1557004D261e2D905b82571aC9Bab7",
    4000,
    100
  ],
  "numDeployments": 16,
  "solcInputHash": "11e2d18a7392406c8db42db10ad62473",
  "bytecode": "0x6080346200008557601f6200304238819003918201601f19168301916001600160401b038311848410176200008a578084926080946040528339810103126200008557805162000075916200005482620000a0565b60208101516200006481620000a0565b6060604083015192015192620000b2565b604051612e439081620001ff8239f35b600080fd5b634e487b7160e01b600052604160045260246000fd5b6001600160a01b038116036200008557565b6020907f04d55a8be181fb8d75b76f2d48aa0b2ee40f47e53d6e61763eeeec46feea8a2492949394600054907f3f32684a32a11dabdbb8c0177de80aa3ae36a004d75210335b49e544e48cd0aa8460018060a01b03199433868616176000556040519060018060a01b0395863391167f8be0079c531659141344cd1fd0a4f28419497f9722a3daafe3b4186f6b6457e0600085a360078054600880548a16331790556001600160a81b031916918716918217600160a01b1790558152a11680916006541617600655604051908152a16117708211620001c557816040917fda60a43fb6eeec525bb68da6aeaf58f726e6957cb02c0639ba0a9b0ff3cb8e6e936004558060055582519182526020820152a1565b60405162461bcd60e51b8152602060048201526011602482015270088868274408ccaca40e8dede40d0d2ced607b1b6044820152606490fdfe60806040526004361015610013575b600080fd5b60003560e01c806306dc1f6a1461026b578063086146d2146102625780631709945a146102595780631b97e6e6146102505780631c31f7101461024757806321ba7d631461023e578063295d05661461023557806338af3eed1461022c5780633951c7821461022357806363c69f081461021a5780636bb987fe14610211578063715018a614610208578063757f7934146101ff578063793b8c6d146101f65780637adbf973146101ed5780637dc0d1d0146101e4578063805d64a0146101db578063851a1405146101d25780638da5cb5b146101c957806393bc6d7c146101c0578063958e2d31146101b7578063aa24dca2146101ae578063ad2f6bf9146101a5578063cec5afe71461019c578063d6e6eb9f14610193578063d73792a91461018a578063e86dea4a14610181578063f2fde38b14610178578063fd9b56871461016f5763fe8799181461016757600080fd5b61000e61184a565b5061000e61180e565b5061000e61171a565b5061000e6116dd565b5061000e6116a0565b5061000e611663565b5061000e6115aa565b5061000e611565565b5061000e61135e565b5061000e61103d565b5061000e610fa3565b5061000e610f50565b5061000e610ec5565b5061000e610e72565b5061000e610e1f565b5061000e610d67565b5061000e610c8c565b5061000e610bc4565b5061000e610b1c565b5061000e610ae0565b5061000e610a0a565b5061000e610873565b5061000e610820565b5061000e6107d8565b5061000e610719565b5061000e610617565b5061000e610582565b5061000e610509565b5061000e610485565b5061000e610387565b73ffffffffffffffffffffffffffffffffffffffff81160361000e57565b507f4e487b7100000000000000000000000000000000000000000000000000000000600052604160045260246000fd5b60c0810190811067ffffffffffffffff8211176102de57604052565b6102e6610292565b604052565b6060810190811067ffffffffffffffff8211176102de57604052565b6040810190811067ffffffffffffffff8211176102de57604052565b67ffffffffffffffff81116102de57604052565b90601f7fffffffffffffffffffffffffffffffffffffffffffffffffffffffffffffffe0910116810190811067ffffffffffffffff8211176102de57604052565b60405190610385826102c2565b565b503461000e5760a07ffffffffffffffffffffffffffffffffffffffffffffffffffffffffffffffffc36011261000e576004356103c381610274565b6024356103cf81610274565b6064356103db81610274565b6084359267ffffffffffffffff9283851161000e573660238601121561000e57846004013593841161046d575b6040519361043e60207fffffffffffffffffffffffffffffffffffffffffffffffffffffffffffffffe0601f8401160186610337565b808552366024828801011161000e57602081600092602461046b9901838901378601015260443591612312565b005b610475610292565b610408565b600091031261000e57565b503461000e5760007ffffffffffffffffffffffffffffffffffffffffffffffffffffffffffffffffc36011261000e57602060405161438043048152f35b7ffffffffffffffffffffffffffffffffffffffffffffffffffffffffffffffffc604091011261000e576004356104f981610274565b9060243561050681610274565b90565b503461000e5761056473ffffffffffffffffffffffffffffffffffffffff610530366104c3565b9116600052600160205260406000209073ffffffffffffffffffffffffffffffffffffffff16600052602052604060002090565b805460019091015460408051928352602083019190915290f35b0390f35b503461000e5760c07ffffffffffffffffffffffffffffffffffffffffffffffffffffffffffffffffc36011261000e576106056040516105c1816102c2565b6004356105cd81610274565b81526024356105db81610274565b602082015260443560408201526064356060820152608435608082015260a43560a0820152612c43565b60408051928352602083019190915290f35b503461000e5760207ffffffffffffffffffffffffffffffffffffffffffffffffffffffffffffffffc36011261000e577f04d55a8be181fb8d75b76f2d48aa0b2ee40f47e53d6e61763eeeec46feea8a24602060043561067681610274565b73ffffffffffffffffffffffffffffffffffffffff9061069b82600054163314611b94565b16807fffffffffffffffffffffffff00000000000000000000000000000000000000006006541617600655604051908152a1005b7ffffffffffffffffffffffffffffffffffffffffffffffffffffffffffffffffc606091011261000e5760043561070581610274565b9060243561071281610274565b9060443590565b503461000e57606073ffffffffffffffffffffffffffffffffffffffff61073f366106cf565b6107966040949392859485948551610756816102eb565b6000968188809352826020820152015216845260026020528484209073ffffffffffffffffffffffffffffffffffffffff16600052602052604060002090565b908252602052209080516107a9816102eb565b825492838252826002600183015492602085019384520154920191825282519384525160208401525190820152f35b503461000e5760407ffffffffffffffffffffffffffffffffffffffffffffffffffffffffffffffffc36011261000e5761046b60043561081781610274565b60243590612983565b503461000e5760007ffffffffffffffffffffffffffffffffffffffffffffffffffffffffffffffffc36011261000e57602073ffffffffffffffffffffffffffffffffffffffff60065416604051908152f35b503461000e5760407ffffffffffffffffffffffffffffffffffffffffffffffffffffffffffffffffc36011261000e576004356024356108cc73ffffffffffffffffffffffffffffffffffffffff600054163314611b94565b611770821161092057817fda60a43fb6eeec525bb68da6aeaf58f726e6957cb02c0639ba0a9b0ff3cb8e6e926004558160055561091b6040519283928360209093929193604081019481520152565b0390a1005b60646040517f08c379a000000000000000000000000000000000000000000000000000000000815260206004820152601160248201527f4443413a2046656520746f6f20686967680000000000000000000000000000006044820152fd5b60208082019080835283518092528060408094019401926000905b8382106109a857505050505090565b8451805173ffffffffffffffffffffffffffffffffffffffff90811688528185015116878501528082015187830152606080820151908801526080808201519088015260a0908101519087015260c09095019493820193600190910190610999565b503461000e576020807ffffffffffffffffffffffffffffffffffffffffffffffffffffffffffffffffc36011261000e5773ffffffffffffffffffffffffffffffffffffffff600435610a5c81610274565b1660005260038152604060002090815467ffffffffffffffff8111610ad3575b6040519192610a91600583901b850184610337565b8183526000908152838120938084015b838310610ab6576040518061057e878261097e565b600682600192610ac58961289a565b815201960192019194610aa1565b610adb610292565b610a7c565b503461000e5760007ffffffffffffffffffffffffffffffffffffffffffffffffffffffffffffffffc36011261000e5760206040516143808152f35b503461000e576000807ffffffffffffffffffffffffffffffffffffffffffffffffffffffffffffffffc360112610bc15780547fffffffffffffffffffffffff000000000000000000000000000000000000000073ffffffffffffffffffffffffffffffffffffffff821691610b93338414611b94565b16825581604051917f8be0079c531659141344cd1fd0a4f28419497f9722a3daafe3b4186f6b6457e08284a3f35b80fd5b503461000e5760007ffffffffffffffffffffffffffffffffffffffffffffffffffffffffffffffffc36011261000e57610c1773ffffffffffffffffffffffffffffffffffffffff600054163314611b94565b600780547fffffffffffffffffffffff00ffffffffffffffffffffffffffffffffffffffff169055005b8054821015610c5d576000526006602060002091020190600090565b7f4e487b7100000000000000000000000000000000000000000000000000000000600052603260045260246000fd5b503461000e5760407ffffffffffffffffffffffffffffffffffffffffffffffffffffffffffffffffc36011261000e57600435610cc881610274565b60243573ffffffffffffffffffffffffffffffffffffffff8092166000526003602052604060002090815481101561000e57610d0391610c41565b50805460018201546002830154600384015460048501546005909501546040805173ffffffffffffffffffffffffffffffffffffffff96891687168152979094169094166020870152918501526060840152608083019190915260a082015260c090f35b503461000e5760207ffffffffffffffffffffffffffffffffffffffffffffffffffffffffffffffffc36011261000e577f3f32684a32a11dabdbb8c0177de80aa3ae36a004d75210335b49e544e48cd0aa6020600435610dc681610274565b73ffffffffffffffffffffffffffffffffffffffff90610deb82600854163314612b72565b16807fffffffffffffffffffffffff00000000000000000000000000000000000000006007541617600755604051908152a1005b503461000e5760007ffffffffffffffffffffffffffffffffffffffffffffffffffffffffffffffffc36011261000e57602073ffffffffffffffffffffffffffffffffffffffff60075416604051908152f35b503461000e5760007ffffffffffffffffffffffffffffffffffffffffffffffffffffffffffffffffc36011261000e57602073ffffffffffffffffffffffffffffffffffffffff60085416604051908152f35b503461000e5773ffffffffffffffffffffffffffffffffffffffff610f22610eec366106cf565b93909116600052600260205260406000209073ffffffffffffffffffffffffffffffffffffffff16600052602052604060002090565b9060005260205260606040600020805490600260018201549101549060405192835260208301526040820152f35b503461000e5760007ffffffffffffffffffffffffffffffffffffffffffffffffffffffffffffffffc36011261000e57602073ffffffffffffffffffffffffffffffffffffffff60005416604051908152f35b503461000e57604061101473ffffffffffffffffffffffffffffffffffffffff610fcc366104c3565b9190600060208651610fdd81610307565b8281520152166000526001602052826000209073ffffffffffffffffffffffffffffffffffffffff16600052602052604060002090565b815161101f81610307565b60206001835493848452015491019081528251918252516020820152f35b503461000e5760207ffffffffffffffffffffffffffffffffffffffffffffffffffffffffffffffffc36011261000e5760043561107a8133612983565b6110ad816110a83373ffffffffffffffffffffffffffffffffffffffff166000526003602052604060002090565b610c41565b50906110e96110d0835473ffffffffffffffffffffffffffffffffffffffff1690565b73ffffffffffffffffffffffffffffffffffffffff1690565b6111138173ffffffffffffffffffffffffffffffffffffffff166000526001602052604060002090565b61116161113a6110d0600187015473ffffffffffffffffffffffffffffffffffffffff1690565b80929073ffffffffffffffffffffffffffffffffffffffff16600052602052604060002090565b61117c6111776004870154600388015490611e1d565b611d9e565b9460018201938454871161118c57005b73ffffffffffffffffffffffffffffffffffffffff946112446110d0946112158a6112066112f1996111e161124a9873ffffffffffffffffffffffffffffffffffffffff166000526002602052604060002090565b9073ffffffffffffffffffffffffffffffffffffffff16600052602052604060002090565b90600052602052604060002090565b600286019161122683548254611dd8565b9055611239600183549201918254611dd8565b905554915489611dd8565b90611ce3565b9560058201556112d7600060206112bd61127b6110d0865473ffffffffffffffffffffffffffffffffffffffff1690565b6040517fa9059cbb000000000000000000000000000000000000000000000000000000008152336004820152602481018c905293849283919082906044820190565b03925af1908115611351575b600091611323575b506128f8565b5473ffffffffffffffffffffffffffffffffffffffff1690565b604051938452169133907f1aea12ef3450ec7749a467b47e7d800a7b493e4601d440ac5aebb94f747c122890602090a4005b611344915060203d811161134a575b61133c8183610337565b810190611d14565b386112d1565b503d611332565b611359611d2c565b6112c9565b503461000e5760407ffffffffffffffffffffffffffffffffffffffffffffffffffffffffffffffffc36011261000e577f3ab9db27a4cdd8c603a752b62d5fbd93b4b3509fe2596708e9688e42bbac35766004356113bb81610274565b602435906113c882610274565b73ffffffffffffffffffffffffffffffffffffffff906113ed82600054163314611b94565b6007546113ff9060a01c60ff16612aa8565b6040517f70a082310000000000000000000000000000000000000000000000000000000081523060048201529291169060208084602481865afa938415611558575b60009461151f575b506040517fa9059cbb00000000000000000000000000000000000000000000000000000000815273ffffffffffffffffffffffffffffffffffffffff831660048201526024810185905261091b92916114bd91818160448160008a5af1918215611512575b6000926114f5575b5050612b0d565b6040519384938491939290604091606084019573ffffffffffffffffffffffffffffffffffffffff8093168552602085015216910152565b61150b9250803d1061134a5761133c8183610337565b38806114b6565b61151a611d2c565b6114ae565b8194506115486114bd9161091b94933d8811611551575b6115408183610337565b810190612072565b94919250611449565b503d611536565b611560611d2c565b611441565b503461000e5760007ffffffffffffffffffffffffffffffffffffffffffffffffffffffffffffffffc36011261000e57602060ff60075460a01c166040519015158152f35b503461000e5760207ffffffffffffffffffffffffffffffffffffffffffffffffffffffffffffffffc36011261000e577f533d09c424dd042c543d0802296b09115923bce3f566e20c069e3d754a8aff8f60207fffffffffffffffffffffffff000000000000000000000000000000000000000060043561162a81610274565b6008549073ffffffffffffffffffffffffffffffffffffffff906116513383851614612b72565b169182911617600855604051908152a1005b503461000e5760007ffffffffffffffffffffffffffffffffffffffffffffffffffffffffffffffffc36011261000e576020600554604051908152f35b503461000e5760007ffffffffffffffffffffffffffffffffffffffffffffffffffffffffffffffffc36011261000e576020604051620f42408152f35b503461000e5760007ffffffffffffffffffffffffffffffffffffffffffffffffffffffffffffffffc36011261000e576020600454604051908152f35b503461000e5760207ffffffffffffffffffffffffffffffffffffffffffffffffffffffffffffffffc36011261000e5760043561175681610274565b73ffffffffffffffffffffffffffffffffffffffff61177a81600054163314611b94565b81161561178a5761046b90611bf9565b60846040517f08c379a000000000000000000000000000000000000000000000000000000000815260206004820152602660248201527f4f776e61626c653a206e6577206f776e657220697320746865207a65726f206160448201527f64647265737300000000000000000000000000000000000000000000000000006064820152fd5b503461000e5760007ffffffffffffffffffffffffffffffffffffffffffffffffffffffffffffffffc36011261000e5760206040516117708152f35b503461000e5760807ffffffffffffffffffffffffffffffffffffffffffffffffffffffffffffffffc36011261000e5761057e60043561188981610274565b60243561189581610274565b604435606435907faf8bd3c5abe498e30aea149b38afa6e7d9bbe58c9129b38eff2912440734c6e273ffffffffffffffffffffffffffffffffffffffff938486169361194c61192f60206118e98488611ce3565b6040517f23b872dd000000000000000000000000000000000000000000000000000000008152336004820152306024820152604481019190915291829081906064820190565b038160008b5af1908115611b87575b600091611b69575b50611d39565b6119a36119798673ffffffffffffffffffffffffffffffffffffffff166000526001602052604060002090565b96831680979073ffffffffffffffffffffffffffffffffffffffff16600052602052604060002090565b60018101805415611b0c575b54611a016119bc82611def565b946119e46119c8610378565b73ffffffffffffffffffffffffffffffffffffffff909c168c52565b73ffffffffffffffffffffffffffffffffffffffff1660208b0152565b8560408a01528260608a01528360808a015260a0890152611a23858254611e1d565b90556001611a73611a58886111e18973ffffffffffffffffffffffffffffffffffffffff166000526002602052604060002090565b611a656111778587611e1d565b600052602052604060002090565b01611a7f858254611e1d565b9055611adf611aae3373ffffffffffffffffffffffffffffffffffffffff166000526003602052604060002090565b5497611ada3373ffffffffffffffffffffffffffffffffffffffff166000526003602052604060002090565b611e29565b60408051888152602081019590955284015260608301523391608090a46040519081529081906020820190565b611b196143804304611d9e565b81556040805173ffffffffffffffffffffffffffffffffffffffff89811682528a1660208201527f1860ddfae81fa4edaec7accf480512d07263c8e909d5cdae84da78e098fc7b099190a16119af565b611b81915060203d811161134a5761133c8183610337565b38611946565b611b8f611d2c565b61193e565b15611b9b57565b60646040517f08c379a000000000000000000000000000000000000000000000000000000000815260206004820152602060248201527f4f776e61626c653a2063616c6c6572206973206e6f7420746865206f776e65726044820152fd5b6000549073ffffffffffffffffffffffffffffffffffffffff80911691827fffffffffffffffffffffffff0000000000000000000000000000000000000000821617600055167f8be0079c531659141344cd1fd0a4f28419497f9722a3daafe3b4186f6b6457e06000604051a3565b507f4e487b7100000000000000000000000000000000000000000000000000000000600052601160045260246000fd5b6b033b2e3c9fd0803ce800000090807fffffffffffffffffffffffffffffffffffffffffffffffffffffffffffffffff04821181151516611cd7570290565b611cdf611c68565b0290565b807fffffffffffffffffffffffffffffffffffffffffffffffffffffffffffffffff04821181151516611cd7570290565b9081602091031261000e5751801515810361000e5790565b506040513d6000823e3d90fd5b15611d4057565b60646040517f08c379a000000000000000000000000000000000000000000000000000000000815260206004820152601560248201527f4443413a204e6f7420656e6f7567682066756e647300000000000000000000006044820152fd5b7fffffffffffffffffffffffffffffffffffffffffffffffffffffffffffffffff9060018110611dcc570190565b611dd4611c68565b0190565b818110611de3570390565b611deb611c68565b0390565b6001907ffffffffffffffffffffffffffffffffffffffffffffffffffffffffffffffffe8111611dcc570190565b81198111611dcc570190565b8054611e4c9168010000000000000000821015611f3c575b600182018155610c41565b919091611f0d57805182547fffffffffffffffffffffffff00000000000000000000000000000000000000001673ffffffffffffffffffffffffffffffffffffffff91821617835560059160a091611ee890602083015116600186019073ffffffffffffffffffffffffffffffffffffffff167fffffffffffffffffffffffff0000000000000000000000000000000000000000825416179055565b6040810151600285015560608101516003850155608081015160048501550151910155565b7f4e487b7100000000000000000000000000000000000000000000000000000000600052600060045260246000fd5b611f44610292565b611e41565b15611f5057565b60646040517f08c379a000000000000000000000000000000000000000000000000000000000815260206004820152601360248201527f4443413a20496e76616c696420706572696f64000000000000000000000000006044820152fd5b15611fb557565b60846040517f08c379a000000000000000000000000000000000000000000000000000000000815260206004820152602360248201527f4443413a20506572696f642063616e6e6f7420626520696e207468652066757460448201527f75726500000000000000000000000000000000000000000000000000000000006064820152fd5b8115612043570490565b7f4e487b7100000000000000000000000000000000000000000000000000000000600052601260045260246000fd5b9081602091031261000e575190565b1561208857565b60646040517f08c379a000000000000000000000000000000000000000000000000000000000815260206004820152601360248201527f4443413a204f7261636c65206661696c757265000000000000000000000000006044820152fd5b6001907fffffffffffffffffffffffffffffffffffffffffffffffffffffffffffffffff8114611dcc570190565b1561211b57565b60846040517f08c379a000000000000000000000000000000000000000000000000000000000815260206004820152602760248201527f4443413a20466565207472616e7366657220746f2062656e656669636961727960448201527f206661696c6564000000000000000000000000000000000000000000000000006064820152fd5b156121a657565b60646040517f08c379a000000000000000000000000000000000000000000000000000000000815260206004820152601f60248201527f4443413a205472616e7366657220746f2053776170706572206661696c6564006044820152fd5b9391929095949573ffffffffffffffffffffffffffffffffffffffff809116855260209316838501526040840152606083015260a060808301528351908160a08401526000945b828610612297575050601f817fffffffffffffffffffffffffffffffffffffffffffffffffffffffffffffffe09260c095961161228a575b0116010190565b6000858286010152612283565b85810182015184870160c001529481019461224b565b156122b457565b60646040517f08c379a000000000000000000000000000000000000000000000000000000000815260206004820152602060248201527f4443413a204e6f7420656e6f7567682062616c616e63652072657475726e65646044820152fd5b61244b9094939294612348836111e18373ffffffffffffffffffffffffffffffffffffffff166000526001602052604060002090565b946001860154946123628861235c88611def565b14611f49565b6123726143804304891115611fae565b86549261238d61238460045486611ce3565b620f4240900490565b966123ae6123a76123a06005548b611ce3565b6064900490565b8099611dd8565b986123c28a6123bd8b89611dd8565b611dd8565b958b60208a6123e96110d060075473ffffffffffffffffffffffffffffffffffffffff1690565b6040517f8c86f1e400000000000000000000000000000000000000000000000000000000815273ffffffffffffffffffffffffffffffffffffffff808a166004830152602482018d90529092166044830152909a8b9190829081906064820190565b03915afa98891561288d575b60009961285e575b50906124aa6124a46124ba936124768c1515612081565b6112068d6111e18a73ffffffffffffffffffffffffffffffffffffffff166000526002602052604060002090565b946120e6565b6001840155600184015490611dd8565b90556124ce856124c988611c98565b612039565b8155600260045491015561258b61256e602073ffffffffffffffffffffffffffffffffffffffff84169961251760065473ffffffffffffffffffffffffffffffffffffffff1690565b60405193849283927fa9059cbb000000000000000000000000000000000000000000000000000000008452600484016020909392919373ffffffffffffffffffffffffffffffffffffffff60408201951681520152565b038160008d5af1908115612851575b600091612832575b50612114565b6040517f70a082310000000000000000000000000000000000000000000000000000000080825230600483015273ffffffffffffffffffffffffffffffffffffffff8816999093909190896020836024818f5afa928315612825575b6000936127de575b506000602061267461268e9361261b73ffffffffffffffffffffffffffffffffffffffff97988d611e1d565b6040519485809481937fa9059cbb0000000000000000000000000000000000000000000000000000000083528a600484016020909392919373ffffffffffffffffffffffffffffffffffffffff60408201951681520152565b03925af19081156127d1575b6000916127b2575b5061219f565b1690813b1561000e578660008782947f28c738dbec11a1bed94ba127a3712d54bcd39cf4ae95b6ebd671aaf10fd0287b9b83612717986127016127449c604051988997889687957f2506c01800000000000000000000000000000000000000000000000000000000875260048701612204565b03925af180156127a5575b61278c575b50611e1d565b6040519182523060048301526020826024818b5afa91821561277f575b60009261275e575b5011156122ad565b60408051918252602082019290925290819081015b0390a4565b61277891925060203d602011611551576115408183610337565b903861273c565b612787611d2c565b612734565b8061279961279f92610323565b8061047a565b38612711565b6127ad611d2c565b61270c565b6127cb915060203d60201161134a5761133c8183610337565b38612688565b6127d9611d2c565b612680565b73ffffffffffffffffffffffffffffffffffffffff9350602061267461268e9361261b612819600095853d8711611551576115408183610337565b975050935050506125ef565b61282d611d2c565b6125e7565b61284b915060203d60201161134a5761133c8183610337565b38612585565b612859611d2c565b61257d565b6124ba929199506124a46128836124aa9260203d602011611551576115408183610337565b9a9293505061245f565b612895611d2c565b612457565b906040516128a7816102c2565b60a06005829473ffffffffffffffffffffffffffffffffffffffff80825416855260018201541660208501526002810154604085015260038101546060850152600481015460808501520154910152565b156128ff57565b60846040517f08c379a000000000000000000000000000000000000000000000000000000000815260206004820152602160248201527f4443413a204e6f7420656e6f7567682066756e647320746f207769746864726160448201527f77000000000000000000000000000000000000000000000000000000000000006064820152fd5b906129b2816110a88473ffffffffffffffffffffffffffffffffffffffff166000526003602052604060002090565b507fe6f9d2780c8923607fbb084350c15a1655c3fc682c989303c218a016a00324a0612759612a7d6110d060016129f06129eb8761289a565b612c43565b60058892980155016112d76112bd602088612a226110d0865473ffffffffffffffffffffffffffffffffffffffff1690565b8c60006040518096819582947fa9059cbb000000000000000000000000000000000000000000000000000000008452600484016020909392919373ffffffffffffffffffffffffffffffffffffffff60408201951681520152565b60405193845273ffffffffffffffffffffffffffffffffffffffff9081169516929081906020820190565b15612aaf57565b60646040517f08c379a000000000000000000000000000000000000000000000000000000000815260206004820152601760248201527f4443413a2047756172647261696c7320617265206f66660000000000000000006044820152fd5b15612b1457565b60646040517f08c379a000000000000000000000000000000000000000000000000000000000815260206004820152601e60248201527f4443413a20456d657267656e6379207472616e73666572206661696c656400006044820152fd5b15612b7957565b60846040517f08c379a000000000000000000000000000000000000000000000000000000000815260206004820152602560248201527f4443413a2063616c6c6572206973206e6f7420746865206f7261636c6520757060448201527f64617465720000000000000000000000000000000000000000000000000000006064820152fd5b90604051612c0a81610307565b602060018294805484520154910152565b90604051612c28816102eb565b60406002829480548452600181015460208501520154910152565b612c8d612c676110d0835173ffffffffffffffffffffffffffffffffffffffff1690565b73ffffffffffffffffffffffffffffffffffffffff166000526001602052604060002090565b91612d056020612ce7612ce282860196612cbe6110d0895173ffffffffffffffffffffffffffffffffffffffff1690565b73ffffffffffffffffffffffffffffffffffffffff16600052602052604060002090565b612bfd565b0151612cff6111776080860151606087015190611e1d565b90612dfb565b91600093612d1660a0830151611def565b915b84831115612d2557505050565b909194612dee612df491612de8612dac612da78a611206612d86612d606110d08b5173ffffffffffffffffffffffffffffffffffffffff1690565b73ffffffffffffffffffffffffffffffffffffffff166000526002602052604060002090565b612cbe6110d08c5173ffffffffffffffffffffffffffffffffffffffff1690565b612c1b565b612de26123848251612dd9612dc7604092838c015190611ce3565b6b033b2e3c9fd0803ce8000000900490565b93015183611ce3565b90611dd8565b90611e1d565b956120e6565b9190612d18565b9080821015612e08575090565b90509056fea2646970667358221220ba588184fdb94258c8e021964849b6a6079a5dbea41b8523332b2ffd949125a964736f6c634300080d0033",
  "devdoc": {
    "details": "To perform the swaps, we aggregate the tokens for all the users and make one big swap instead of many small ones.",
    "kind": "dev",
    "methods": {
      "createOrder(address,address,uint256,uint256)": {
        "params": {
          "_amountPerSwap": "amount of _sellToken to sell each period.",
          "_buyToken": "token to buy on each period.",
          "_numberOfSwaps": "number of periods to do the swapping.",
          "_sellToken": "token to sell on each period."
        }
      },
      "executeOrder(address,address,uint256,address,bytes)": {
        "params": {
          "_buyToken": "token to buy on the swap.",
          "_params": "params to send to |_swapper| for performing the swap.",
          "_period": "period to perform the swap for. It has only one possible valid value, so it is not strictly necessary.",
          "_sellToken": "token to sell on the swap.",
          "_swapper": "address that will perform the swap."
        }
      },
      "owner()": {
        "details": "Returns the address of the current owner."
      },
      "renounceOwnership()": {
        "details": "Leaves the contract without owner. It will not be possible to call `onlyOwner` functions anymore. Can only be called by the current owner. NOTE: Renouncing ownership will leave the contract without an owner, thereby removing any functionality that is only available to the owner."
      },
      "transferOwnership(address)": {
        "details": "Transfers ownership of the contract to a new account (`newOwner`). Can only be called by the current owner."
      },
      "withdrawAll(uint256)": {
        "params": {
          "index": "the index of the |orders| array for msg.sender."
        }
      },
      "withdrawSwapped(address,uint256)": {
        "params": {
          "index": "the index of the |orders| array for |userAddress|.",
          "userAddress": "the user to withdraw for."
        }
      }
    },
    "title": "DCA This contract allows users to deposit one token and gradually swaps it for another one every day at the price it's trading at, allowing user to buy the target token using a Dollar-Cost Averaging (DCA) strategy.",
    "version": 1
  },
  "userdoc": {
    "events": {
      "RemainingWithdrawal(address,uint256,address,uint256)": {
        "notice": "Emitted when a user withdraws their principal early. ie. before it was swapped."
      },
      "SwappedWithdrawal(address,uint256,address,uint256)": {
        "notice": "Emitted when a user withdraws the funds that were already swapped."
      }
    },
    "kind": "user",
    "methods": {
      "BLOCKS_PER_DAY()": {
        "notice": "Number of blocks in a day assuming 5 seconds per block. Works for the Celo blockchain."
      },
      "MAX_FEE_NUMERATOR()": {
        "notice": "Upper limit of the fee that can be charged on swaps. Has to be divided by |FEE_DENOMINATOR|. Equivalent to 60bps."
      },
      "beneficiary()": {
        "notice": "Where to send the fees."
      },
      "calculateAmountToWithdraw((address,address,uint256,uint256,uint256,uint256))": {
        "notice": "Calculates hoy much |buyToken| is available to withdraw for a user order. Takes into account previous withdrawals and fee taken."
      },
      "createOrder(address,address,uint256,uint256)": {
        "notice": "Starts a new DCA position for the |msg.sender|. When creating a new position, we add the |_amountPerSwap| to the |amountToSwap| variable on |SwapState| and to |amountToReduce| on the final period's |PeriodSwapState|. Thus, the amount to swap daily will increase between the current period and the final one."
      },
      "emergencyWithdrawal(address,address)": {
        "notice": "In case of emergency, in the beginning the owner can remove the funds to return them to users. Should be turned off before receiving any meaningful deposits by calling |turnOffGuardrails|."
      },
      "executeOrder(address,address,uint256,address,bytes)": {
        "notice": "Executes a swap between two tokens. The period must be the last executed + 1. The swapping is done by the |_swapper|. We calculate the required exchange rate using an oracle, send them the funds to swap and expect them to return the calculated return amount. This allows us to more easily add pairs since we just need the oracle support, not the exact routes to follow. Callers are incentivized to call this function for the arbitrage opportunity. In other words, the general logic followed here is: - Calculate and send the fee to the |beneficiary|. - Calculate the exchange rate using |oracle|. - Send the swap amount to |_swapper| can call its |swap| function. - Check that it returned the required funds taking the exchange rate into account."
      },
      "feeNumerator()": {
        "notice": "Active fees on swaps. To be used together with |FEE_DENOMINATOR|."
      },
      "guardrailsOn()": {
        "notice": "If true, the owner can withdraw funds. Should be turned off after there is sufficient confidence in the code, for example after audits."
      },
      "oracle()": {
        "notice": "Oracle to use to get the amount to receive on swaps."
      },
      "oracleUpdater()": {
        "notice": "Address that can update the oracle. Matches the owner at first, but should be operated by the community after a while."
      },
      "orders(address,uint256)": {
        "notice": "A list of |UserOrder| for each user address."
      },
      "periodsSwapStates(address,address,uint256)": {
        "notice": "Contains information related to swaps for a (sellToken, buyToken, period) tuple. See |PeriodSwapState| for more info."
      },
      "protocolFeePercent()": {
        "notice": "|protocolFeeNumerator| / 100 of the fee will be sent to the treasury and the rest to the swapper."
      },
      "setBeneficiary(address)": {
        "notice": "Update the beneficiary"
      },
      "setFeeNumerator(uint256,uint256)": {
        "notice": "Update the fee"
      },
      "setOracle(address)": {
        "notice": "Update the oracle"
      },
      "setOracleUpdater(address)": {
        "notice": "Change the address that can update the oracle."
      },
      "swapStates(address,address)": {
        "notice": "Contains the state of a token pair swaps. For a given (sellToken, buyToken) it contains how much it should swap in the next period and when the last period was."
      },
      "withdrawAll(uint256)": {
        "notice": "Withdraw the funds that were already swapped for the caller user AND the funds that were not swapped yet, effectively terminating the position."
      },
      "withdrawSwapped(address,uint256)": {
        "notice": "Withdraw the funds that were already swapped."
      }
    },
    "version": 1
  },
  "storageLayout": {
    "storage": [
      {
        "astId": 7,
        "contract": "contracts/DCA.sol:DCA",
        "label": "_owner",
        "offset": 0,
        "slot": "0",
        "type": "t_address"
      },
      {
        "astId": 1139,
        "contract": "contracts/DCA.sol:DCA",
        "label": "swapStates",
        "offset": 0,
        "slot": "1",
        "type": "t_mapping(t_address,t_mapping(t_address,t_struct(SwapState)1121_storage))"
      },
      {
        "astId": 1149,
        "contract": "contracts/DCA.sol:DCA",
        "label": "periodsSwapStates",
        "offset": 0,
        "slot": "2",
        "type": "t_mapping(t_address,t_mapping(t_address,t_mapping(t_uint256,t_struct(PeriodSwapState)1131_storage)))"
      },
      {
        "astId": 1156,
        "contract": "contracts/DCA.sol:DCA",
        "label": "orders",
        "offset": 0,
        "slot": "3",
        "type": "t_mapping(t_address,t_array(t_struct(UserOrder)1116_storage)dyn_storage)"
      },
      {
        "astId": 1159,
        "contract": "contracts/DCA.sol:DCA",
        "label": "feeNumerator",
        "offset": 0,
        "slot": "4",
        "type": "t_uint256"
      },
      {
        "astId": 1162,
        "contract": "contracts/DCA.sol:DCA",
        "label": "protocolFeePercent",
        "offset": 0,
        "slot": "5",
        "type": "t_uint256"
      },
      {
        "astId": 1165,
        "contract": "contracts/DCA.sol:DCA",
        "label": "beneficiary",
        "offset": 0,
        "slot": "6",
        "type": "t_address"
      },
      {
        "astId": 1169,
        "contract": "contracts/DCA.sol:DCA",
        "label": "oracle",
        "offset": 0,
        "slot": "7",
        "type": "t_contract(Oracle)2779"
      },
      {
        "astId": 1172,
        "contract": "contracts/DCA.sol:DCA",
        "label": "guardrailsOn",
        "offset": 20,
        "slot": "7",
        "type": "t_bool"
      },
      {
        "astId": 1175,
        "contract": "contracts/DCA.sol:DCA",
        "label": "oracleUpdater",
        "offset": 0,
        "slot": "8",
        "type": "t_address"
      }
    ],
    "types": {
      "t_address": {
        "encoding": "inplace",
        "label": "address",
        "numberOfBytes": "20"
      },
      "t_array(t_struct(UserOrder)1116_storage)dyn_storage": {
        "base": "t_struct(UserOrder)1116_storage",
        "encoding": "dynamic_array",
        "label": "struct DCA.UserOrder[]",
        "numberOfBytes": "32"
      },
      "t_bool": {
        "encoding": "inplace",
        "label": "bool",
        "numberOfBytes": "1"
      },
      "t_contract(IERC20)860": {
        "encoding": "inplace",
        "label": "contract IERC20",
        "numberOfBytes": "20"
      },
      "t_contract(Oracle)2779": {
        "encoding": "inplace",
        "label": "contract Oracle",
        "numberOfBytes": "20"
      },
      "t_mapping(t_address,t_array(t_struct(UserOrder)1116_storage)dyn_storage)": {
        "encoding": "mapping",
        "key": "t_address",
        "label": "mapping(address => struct DCA.UserOrder[])",
        "numberOfBytes": "32",
        "value": "t_array(t_struct(UserOrder)1116_storage)dyn_storage"
      },
      "t_mapping(t_address,t_mapping(t_address,t_mapping(t_uint256,t_struct(PeriodSwapState)1131_storage)))": {
        "encoding": "mapping",
        "key": "t_address",
        "label": "mapping(address => mapping(address => mapping(uint256 => struct DCA.PeriodSwapState)))",
        "numberOfBytes": "32",
        "value": "t_mapping(t_address,t_mapping(t_uint256,t_struct(PeriodSwapState)1131_storage))"
      },
      "t_mapping(t_address,t_mapping(t_address,t_struct(SwapState)1121_storage))": {
        "encoding": "mapping",
        "key": "t_address",
        "label": "mapping(address => mapping(address => struct DCA.SwapState))",
        "numberOfBytes": "32",
        "value": "t_mapping(t_address,t_struct(SwapState)1121_storage)"
      },
      "t_mapping(t_address,t_mapping(t_uint256,t_struct(PeriodSwapState)1131_storage))": {
        "encoding": "mapping",
        "key": "t_address",
        "label": "mapping(address => mapping(uint256 => struct DCA.PeriodSwapState))",
        "numberOfBytes": "32",
        "value": "t_mapping(t_uint256,t_struct(PeriodSwapState)1131_storage)"
      },
      "t_mapping(t_address,t_struct(SwapState)1121_storage)": {
        "encoding": "mapping",
        "key": "t_address",
        "label": "mapping(address => struct DCA.SwapState)",
        "numberOfBytes": "32",
        "value": "t_struct(SwapState)1121_storage"
      },
      "t_mapping(t_uint256,t_struct(PeriodSwapState)1131_storage)": {
        "encoding": "mapping",
        "key": "t_uint256",
        "label": "mapping(uint256 => struct DCA.PeriodSwapState)",
        "numberOfBytes": "32",
        "value": "t_struct(PeriodSwapState)1131_storage"
      },
      "t_struct(PeriodSwapState)1131_storage": {
        "encoding": "inplace",
        "label": "struct DCA.PeriodSwapState",
        "members": [
          {
            "astId": 1124,
            "contract": "contracts/DCA.sol:DCA",
            "label": "exchangeRate",
            "offset": 0,
            "slot": "0",
            "type": "t_uint256"
          },
          {
            "astId": 1127,
            "contract": "contracts/DCA.sol:DCA",
            "label": "amountToReduce",
            "offset": 0,
            "slot": "1",
            "type": "t_uint256"
          },
          {
            "astId": 1130,
            "contract": "contracts/DCA.sol:DCA",
            "label": "feeNumerator",
            "offset": 0,
            "slot": "2",
            "type": "t_uint256"
          }
        ],
        "numberOfBytes": "96"
      },
      "t_struct(SwapState)1121_storage": {
        "encoding": "inplace",
        "label": "struct DCA.SwapState",
        "members": [
          {
            "astId": 1118,
            "contract": "contracts/DCA.sol:DCA",
            "label": "amountToSwap",
            "offset": 0,
            "slot": "0",
            "type": "t_uint256"
          },
          {
            "astId": 1120,
            "contract": "contracts/DCA.sol:DCA",
            "label": "lastSwapPeriod",
            "offset": 0,
            "slot": "1",
            "type": "t_uint256"
          }
        ],
        "numberOfBytes": "64"
      },
      "t_struct(UserOrder)1116_storage": {
        "encoding": "inplace",
        "label": "struct DCA.UserOrder",
        "members": [
          {
            "astId": 1104,
            "contract": "contracts/DCA.sol:DCA",
            "label": "sellToken",
            "offset": 0,
            "slot": "0",
            "type": "t_contract(IERC20)860"
          },
          {
            "astId": 1107,
            "contract": "contracts/DCA.sol:DCA",
            "label": "buyToken",
            "offset": 0,
            "slot": "1",
            "type": "t_contract(IERC20)860"
          },
          {
            "astId": 1109,
            "contract": "contracts/DCA.sol:DCA",
            "label": "amountPerSwap",
            "offset": 0,
            "slot": "2",
            "type": "t_uint256"
          },
          {
            "astId": 1111,
            "contract": "contracts/DCA.sol:DCA",
            "label": "numberOfSwaps",
            "offset": 0,
            "slot": "3",
            "type": "t_uint256"
          },
          {
            "astId": 1113,
            "contract": "contracts/DCA.sol:DCA",
            "label": "startingPeriod",
            "offset": 0,
            "slot": "4",
            "type": "t_uint256"
          },
          {
            "astId": 1115,
            "contract": "contracts/DCA.sol:DCA",
            "label": "lastPeriodWithdrawal",
            "offset": 0,
            "slot": "5",
            "type": "t_uint256"
          }
        ],
        "numberOfBytes": "192"
      },
      "t_uint256": {
        "encoding": "inplace",
        "label": "uint256",
        "numberOfBytes": "32"
      }
    }
  }
}