{
  "address": "0x0e0f930d4712c2104D8A5AEAf65f2c77a57fc3ec",
  "abi": [
    {
      "inputs": [
        {
          "internalType": "contract Oracle",
          "name": "_oracle",
          "type": "address"
        },
        {
          "internalType": "address",
          "name": "_beneficiary",
          "type": "address"
        },
        {
          "internalType": "uint256",
          "name": "initialFee",
          "type": "uint256"
        }
      ],
      "stateMutability": "nonpayable",
      "type": "constructor"
    },
    {
      "anonymous": false,
      "inputs": [
        {
          "indexed": false,
          "internalType": "address",
          "name": "newBeneficiary",
          "type": "address"
        }
      ],
      "name": "BeneficiarySet",
      "type": "event"
    },
    {
      "anonymous": false,
      "inputs": [
        {
          "indexed": false,
          "internalType": "address",
          "name": "token",
          "type": "address"
        },
        {
          "indexed": false,
          "internalType": "uint256",
          "name": "amount",
          "type": "uint256"
        },
        {
          "indexed": false,
          "internalType": "address",
          "name": "to",
          "type": "address"
        }
      ],
      "name": "EmergencyWithdrawal",
      "type": "event"
    },
    {
      "anonymous": false,
      "inputs": [
        {
          "indexed": false,
          "internalType": "uint256",
          "name": "feeNumerator",
          "type": "uint256"
        }
      ],
      "name": "FeeNumeratorSet",
      "type": "event"
    },
    {
      "anonymous": false,
      "inputs": [
        {
          "indexed": false,
          "internalType": "address",
          "name": "from",
          "type": "address"
        },
        {
          "indexed": false,
          "internalType": "address",
          "name": "to",
          "type": "address"
        }
      ],
      "name": "OracleAddressMappingSet",
      "type": "event"
    },
    {
      "anonymous": false,
      "inputs": [
        {
          "indexed": false,
          "internalType": "address",
          "name": "oracle",
          "type": "address"
        }
      ],
      "name": "OracleSet",
      "type": "event"
    },
    {
      "anonymous": false,
      "inputs": [
        {
          "indexed": true,
          "internalType": "address",
          "name": "userAddress",
          "type": "address"
        },
        {
          "indexed": false,
          "internalType": "uint256",
          "name": "index",
          "type": "uint256"
        },
        {
          "indexed": true,
          "internalType": "contract IERC20",
          "name": "sellToken",
          "type": "address"
        },
        {
          "indexed": true,
          "internalType": "contract IERC20",
          "name": "buyToken",
          "type": "address"
        },
        {
          "indexed": false,
          "internalType": "uint256",
          "name": "amountPerSwap",
          "type": "uint256"
        },
        {
          "indexed": false,
          "internalType": "uint256",
          "name": "numberOfSwaps",
          "type": "uint256"
        },
        {
          "indexed": false,
          "internalType": "uint256",
          "name": "startingPeriod",
          "type": "uint256"
        }
      ],
      "name": "OrderCreated",
      "type": "event"
    },
    {
      "anonymous": false,
      "inputs": [
        {
          "indexed": true,
          "internalType": "address",
          "name": "previousOwner",
          "type": "address"
        },
        {
          "indexed": true,
          "internalType": "address",
          "name": "newOwner",
          "type": "address"
        }
      ],
      "name": "OwnershipTransferred",
      "type": "event"
    },
    {
      "anonymous": false,
      "inputs": [
        {
          "indexed": true,
          "internalType": "address",
          "name": "userAddress",
          "type": "address"
        },
        {
          "indexed": true,
          "internalType": "uint256",
          "name": "index",
          "type": "uint256"
        },
        {
          "indexed": true,
          "internalType": "address",
          "name": "token",
          "type": "address"
        },
        {
          "indexed": false,
          "internalType": "uint256",
          "name": "amount",
          "type": "uint256"
        }
      ],
      "name": "RemainingWithdrawal",
      "type": "event"
    },
    {
      "anonymous": false,
      "inputs": [
        {
          "indexed": true,
          "internalType": "address",
          "name": "sellToken",
          "type": "address"
        },
        {
          "indexed": true,
          "internalType": "address",
          "name": "buyToken",
          "type": "address"
        },
        {
          "indexed": false,
          "internalType": "uint256",
          "name": "sellAmount",
          "type": "uint256"
        },
        {
          "indexed": false,
          "internalType": "uint256",
          "name": "buyAmount",
          "type": "uint256"
        },
        {
          "indexed": true,
          "internalType": "uint256",
          "name": "period",
          "type": "uint256"
        }
      ],
      "name": "SwapExecuted",
      "type": "event"
    },
    {
      "anonymous": false,
      "inputs": [
        {
          "indexed": true,
          "internalType": "address",
          "name": "userAddress",
          "type": "address"
        },
        {
          "indexed": true,
          "internalType": "uint256",
          "name": "index",
          "type": "uint256"
        },
        {
          "indexed": true,
          "internalType": "address",
          "name": "token",
          "type": "address"
        },
        {
          "indexed": false,
          "internalType": "uint256",
          "name": "amount",
          "type": "uint256"
        }
      ],
      "name": "SwappedWithdrawal",
      "type": "event"
    },
    {
      "anonymous": false,
      "inputs": [
        {
          "indexed": false,
          "internalType": "address",
          "name": "sellToken",
          "type": "address"
        },
        {
          "indexed": false,
          "internalType": "address",
          "name": "buyToken",
          "type": "address"
        }
      ],
      "name": "TokenPairInitialized",
      "type": "event"
    },
    {
      "inputs": [],
      "name": "BLOCKS_PER_DAY",
      "outputs": [
        {
          "internalType": "uint256",
          "name": "",
          "type": "uint256"
        }
      ],
      "stateMutability": "view",
      "type": "function"
    },
    {
      "inputs": [],
      "name": "FEE_DENOMINATOR",
      "outputs": [
        {
          "internalType": "uint256",
          "name": "",
          "type": "uint256"
        }
      ],
      "stateMutability": "view",
      "type": "function"
    },
    {
      "inputs": [],
      "name": "MAX_FEE_NUMERATOR",
      "outputs": [
        {
          "internalType": "uint256",
          "name": "",
          "type": "uint256"
        }
      ],
      "stateMutability": "view",
      "type": "function"
    },
    {
      "inputs": [
        {
          "internalType": "address",
          "name": "_from",
          "type": "address"
        },
        {
          "internalType": "address",
          "name": "_to",
          "type": "address"
        }
      ],
      "name": "addAddressMapping",
      "outputs": [],
      "stateMutability": "nonpayable",
      "type": "function"
    },
    {
      "inputs": [],
      "name": "beneficiary",
      "outputs": [
        {
          "internalType": "address",
          "name": "",
          "type": "address"
        }
      ],
      "stateMutability": "view",
      "type": "function"
    },
    {
      "inputs": [
        {
          "components": [
            {
              "internalType": "contract IERC20",
              "name": "sellToken",
              "type": "address"
            },
            {
              "internalType": "contract IERC20",
              "name": "buyToken",
              "type": "address"
            },
            {
              "internalType": "uint256",
              "name": "amountPerSwap",
              "type": "uint256"
            },
            {
              "internalType": "uint256",
              "name": "numberOfSwaps",
              "type": "uint256"
            },
            {
              "internalType": "uint256",
              "name": "startingPeriod",
              "type": "uint256"
            },
            {
              "internalType": "uint256",
              "name": "lastPeriodWithdrawal",
              "type": "uint256"
            }
          ],
          "internalType": "struct DCA.UserOrder",
          "name": "order",
          "type": "tuple"
        }
      ],
      "name": "calculateAmountToWithdraw",
      "outputs": [
        {
          "internalType": "uint256",
          "name": "amountToWithdraw",
          "type": "uint256"
        },
        {
          "internalType": "uint256",
          "name": "finalPeriod",
          "type": "uint256"
        }
      ],
      "stateMutability": "view",
      "type": "function"
    },
    {
      "inputs": [
        {
          "components": [
            {
              "internalType": "contract IERC20",
              "name": "sellToken",
              "type": "address"
            },
            {
              "internalType": "contract IERC20",
              "name": "buyToken",
              "type": "address"
            },
            {
              "internalType": "uint256",
              "name": "amountPerSwap",
              "type": "uint256"
            },
            {
              "internalType": "uint256",
              "name": "numberOfSwaps",
              "type": "uint256"
            },
            {
              "internalType": "uint256",
              "name": "startingPeriod",
              "type": "uint256"
            },
            {
              "internalType": "uint256",
              "name": "lastPeriodWithdrawal",
              "type": "uint256"
            }
          ],
          "internalType": "struct DCA.UserOrder",
          "name": "order",
          "type": "tuple"
        }
      ],
      "name": "calculateAmountWithdrawn",
      "outputs": [
        {
          "internalType": "uint256",
          "name": "amountWithdrawn",
          "type": "uint256"
        }
      ],
      "stateMutability": "view",
      "type": "function"
    },
    {
      "inputs": [
        {
          "internalType": "contract IERC20",
          "name": "_sellToken",
          "type": "address"
        },
        {
          "internalType": "contract IERC20",
          "name": "_buyToken",
          "type": "address"
        },
        {
          "internalType": "uint256",
          "name": "_amountPerSwap",
          "type": "uint256"
        },
        {
          "internalType": "uint256",
          "name": "_numberOfSwaps",
          "type": "uint256"
        }
      ],
      "name": "createOrder",
      "outputs": [
        {
          "internalType": "uint256",
          "name": "index",
          "type": "uint256"
        }
      ],
      "stateMutability": "nonpayable",
      "type": "function"
    },
    {
      "inputs": [
        {
          "internalType": "contract IERC20",
          "name": "token",
          "type": "address"
        },
        {
          "internalType": "address",
          "name": "to",
          "type": "address"
        }
      ],
      "name": "emergencyWithdrawal",
      "outputs": [],
      "stateMutability": "nonpayable",
      "type": "function"
    },
    {
      "inputs": [
        {
          "internalType": "address",
          "name": "_sellToken",
          "type": "address"
        },
        {
          "internalType": "address",
          "name": "_buyToken",
          "type": "address"
        },
        {
          "internalType": "uint256",
          "name": "_period",
          "type": "uint256"
        },
        {
          "internalType": "address",
          "name": "_swapper",
          "type": "address"
        },
        {
          "internalType": "bytes",
          "name": "_params",
          "type": "bytes"
        }
      ],
      "name": "executeOrder",
      "outputs": [],
      "stateMutability": "nonpayable",
      "type": "function"
    },
    {
      "inputs": [],
      "name": "feeNumerator",
      "outputs": [
        {
          "internalType": "uint256",
          "name": "",
          "type": "uint256"
        }
      ],
      "stateMutability": "view",
      "type": "function"
    },
    {
      "inputs": [],
      "name": "getCurrentPeriod",
      "outputs": [
        {
          "internalType": "uint256",
          "name": "period",
          "type": "uint256"
        }
      ],
      "stateMutability": "view",
      "type": "function"
    },
    {
      "inputs": [
        {
          "internalType": "address",
          "name": "token",
          "type": "address"
        }
      ],
      "name": "getOracleTokenAddress",
      "outputs": [
        {
          "internalType": "address",
          "name": "",
          "type": "address"
        }
      ],
      "stateMutability": "view",
      "type": "function"
    },
    {
      "inputs": [
        {
          "internalType": "address",
          "name": "userAddress",
          "type": "address"
        },
        {
          "internalType": "uint256",
          "name": "index",
          "type": "uint256"
        }
      ],
      "name": "getOrder",
      "outputs": [
        {
          "components": [
            {
              "internalType": "contract IERC20",
              "name": "sellToken",
              "type": "address"
            },
            {
              "internalType": "contract IERC20",
              "name": "buyToken",
              "type": "address"
            },
            {
              "internalType": "uint256",
              "name": "amountPerSwap",
              "type": "uint256"
            },
            {
              "internalType": "uint256",
              "name": "numberOfSwaps",
              "type": "uint256"
            },
            {
              "internalType": "uint256",
              "name": "startingPeriod",
              "type": "uint256"
            },
            {
              "internalType": "uint256",
              "name": "lastPeriodWithdrawal",
              "type": "uint256"
            }
          ],
          "internalType": "struct DCA.UserOrder",
          "name": "",
          "type": "tuple"
        }
      ],
      "stateMutability": "view",
      "type": "function"
    },
    {
      "inputs": [
        {
          "internalType": "address",
          "name": "_sellToken",
          "type": "address"
        },
        {
          "internalType": "address",
          "name": "_buyToken",
          "type": "address"
        },
        {
          "internalType": "uint256",
          "name": "_period",
          "type": "uint256"
        }
      ],
      "name": "getSwapOrderAmountToReduce",
      "outputs": [
        {
          "internalType": "uint256",
          "name": "",
          "type": "uint256"
        }
      ],
      "stateMutability": "view",
      "type": "function"
    },
    {
      "inputs": [
        {
          "internalType": "address",
          "name": "_sellToken",
          "type": "address"
        },
        {
          "internalType": "address",
          "name": "_buyToken",
          "type": "address"
        },
        {
          "internalType": "uint256",
          "name": "_period",
          "type": "uint256"
        }
      ],
      "name": "getSwapOrderExchangeRate",
      "outputs": [
        {
          "internalType": "uint256",
          "name": "",
          "type": "uint256"
        }
      ],
      "stateMutability": "view",
      "type": "function"
    },
    {
      "inputs": [
        {
          "internalType": "address",
          "name": "userAddress",
          "type": "address"
        }
      ],
      "name": "getUserOrders",
      "outputs": [
        {
          "components": [
            {
              "internalType": "contract IERC20",
              "name": "sellToken",
              "type": "address"
            },
            {
              "internalType": "contract IERC20",
              "name": "buyToken",
              "type": "address"
            },
            {
              "internalType": "uint256",
              "name": "amountPerSwap",
              "type": "uint256"
            },
            {
              "internalType": "uint256",
              "name": "numberOfSwaps",
              "type": "uint256"
            },
            {
              "internalType": "uint256",
              "name": "startingPeriod",
              "type": "uint256"
            },
            {
              "internalType": "uint256",
              "name": "lastPeriodWithdrawal",
              "type": "uint256"
            }
          ],
          "internalType": "struct DCA.UserOrder[]",
          "name": "",
          "type": "tuple[]"
        }
      ],
      "stateMutability": "view",
      "type": "function"
    },
    {
      "inputs": [
        {
          "internalType": "address",
          "name": "userAddress",
          "type": "address"
        }
      ],
      "name": "getUserOrdersWithExtras",
      "outputs": [
        {
          "components": [
            {
              "internalType": "contract IERC20",
              "name": "sellToken",
              "type": "address"
            },
            {
              "internalType": "contract IERC20",
              "name": "buyToken",
              "type": "address"
            },
            {
              "internalType": "uint256",
              "name": "amountPerSwap",
              "type": "uint256"
            },
            {
              "internalType": "uint256",
              "name": "numberOfSwaps",
              "type": "uint256"
            },
            {
              "internalType": "uint256",
              "name": "startingPeriod",
              "type": "uint256"
            },
            {
              "internalType": "uint256",
              "name": "lastPeriodWithdrawal",
              "type": "uint256"
            }
          ],
          "internalType": "struct DCA.UserOrder[]",
          "name": "",
          "type": "tuple[]"
        },
        {
          "internalType": "uint256[]",
          "name": "",
          "type": "uint256[]"
        },
        {
          "internalType": "uint256[]",
          "name": "",
          "type": "uint256[]"
        },
        {
          "internalType": "uint256[]",
          "name": "",
          "type": "uint256[]"
        },
        {
          "internalType": "uint256",
          "name": "",
          "type": "uint256"
        }
      ],
      "stateMutability": "view",
      "type": "function"
    },
    {
      "inputs": [],
      "name": "oracle",
      "outputs": [
        {
          "internalType": "contract Oracle",
          "name": "",
          "type": "address"
        }
      ],
      "stateMutability": "view",
      "type": "function"
    },
    {
      "inputs": [
        {
          "internalType": "address",
          "name": "",
          "type": "address"
        }
      ],
      "name": "oracleAddresses",
      "outputs": [
        {
          "internalType": "address",
          "name": "",
          "type": "address"
        }
      ],
      "stateMutability": "view",
      "type": "function"
    },
    {
      "inputs": [
        {
          "internalType": "address",
          "name": "",
          "type": "address"
        },
        {
          "internalType": "uint256",
          "name": "",
          "type": "uint256"
        }
      ],
      "name": "orders",
      "outputs": [
        {
          "internalType": "contract IERC20",
          "name": "sellToken",
          "type": "address"
        },
        {
          "internalType": "contract IERC20",
          "name": "buyToken",
          "type": "address"
        },
        {
          "internalType": "uint256",
          "name": "amountPerSwap",
          "type": "uint256"
        },
        {
          "internalType": "uint256",
          "name": "numberOfSwaps",
          "type": "uint256"
        },
        {
          "internalType": "uint256",
          "name": "startingPeriod",
          "type": "uint256"
        },
        {
          "internalType": "uint256",
          "name": "lastPeriodWithdrawal",
          "type": "uint256"
        }
      ],
      "stateMutability": "view",
      "type": "function"
    },
    {
      "inputs": [],
      "name": "owner",
      "outputs": [
        {
          "internalType": "address",
          "name": "",
          "type": "address"
        }
      ],
      "stateMutability": "view",
      "type": "function"
    },
    {
      "inputs": [],
      "name": "renounceOwnership",
      "outputs": [],
      "stateMutability": "nonpayable",
      "type": "function"
    },
    {
      "inputs": [
        {
          "internalType": "address",
          "name": "_beneficiary",
          "type": "address"
        }
      ],
      "name": "setBeneficiary",
      "outputs": [],
      "stateMutability": "nonpayable",
      "type": "function"
    },
    {
      "inputs": [
        {
          "internalType": "uint256",
          "name": "_feeNumerator",
          "type": "uint256"
        }
      ],
      "name": "setFeeNumerator",
      "outputs": [],
      "stateMutability": "nonpayable",
      "type": "function"
    },
    {
      "inputs": [
        {
          "internalType": "contract Oracle",
          "name": "_newOracle",
          "type": "address"
        }
      ],
      "name": "setOracle",
      "outputs": [],
      "stateMutability": "nonpayable",
      "type": "function"
    },
    {
      "inputs": [
        {
          "internalType": "address",
          "name": "",
          "type": "address"
        },
        {
          "internalType": "address",
          "name": "",
          "type": "address"
        }
      ],
      "name": "swapOrders",
      "outputs": [
        {
          "internalType": "uint256",
          "name": "amountToSwap",
          "type": "uint256"
        },
        {
          "internalType": "uint256",
          "name": "lastPeriod",
          "type": "uint256"
        }
      ],
      "stateMutability": "view",
      "type": "function"
    },
    {
      "inputs": [
        {
          "internalType": "address",
          "name": "newOwner",
          "type": "address"
        }
      ],
      "name": "transferOwnership",
      "outputs": [],
      "stateMutability": "nonpayable",
      "type": "function"
    },
    {
      "inputs": [
        {
          "internalType": "uint256",
          "name": "index",
          "type": "uint256"
        }
      ],
      "name": "withdrawAll",
      "outputs": [],
      "stateMutability": "nonpayable",
      "type": "function"
    },
    {
      "inputs": [
        {
          "internalType": "uint256",
          "name": "index",
          "type": "uint256"
        }
      ],
      "name": "withdrawSwapped",
      "outputs": [],
      "stateMutability": "nonpayable",
      "type": "function"
    }
  ],
  "transactionHash": "0x4339d3491878bf298289ea866d0c60c415d8ce1d492987d76ca8487df5a596e0",
  "args": [
    "0x056d9AAC902cc2925BB31f6C516B1e1579c35df9",
    "0xaCa6FBe30f1557004D261e2D905b82571aC9Bab7",
    4000
  ],
  "numDeployments": 13,
  "solcInputHash": "c0c774333706ff6479e6c30278bbe18f",
  "bytecode": "0x6080346200008057601f62002eec38819003918201601f19168301916001600160401b03831184841017620000855780849260609460405283398101031262000080578051620000709162000054826200009b565b604060208201519162000067836200009b565b015191620000ad565b604051612d539081620001998239f35b600080fd5b634e487b7160e01b600052604160045260246000fd5b6001600160a01b038116036200008057565b600080546001600160a01b03198082163390811784556040517fc1bcceddd77fdc95a8da9bec5802d2e0bb564dd02c0730222d8e12030bd910439760209790967f04d55a8be181fb8d75b76f2d48aa0b2ee40f47e53d6e61763eeeec46feea8a249689966001600160a01b039593947f3f32684a32a11dabdbb8c0177de80aa3ae36a004d75210335b49e544e48cd0aa948994919388938416907f8be0079c531659141344cd1fd0a4f28419497f9722a3daafe3b4186f6b6457e09086a316808760065416176006558152a11680916005541617600555604051908152a180600455604051908152a156fe60806040526004361015610013575b600080fd5b60003560e01c806306dc1f6a1461026b578063086146d2146102625780631b97e6e6146102595780631c31f710146102505780631d9dcf5114610247578063242b02d11461023e57806324b0b59c1461023557806337e5724b1461022c57806338af3eed146102235780633dea653b1461021a57806363c69f08146102115780636bb987fe14610208578063715018a6146101ff57806371eb125e146101f6578063793b8c6d146101ed5780637adbf973146101e45780637dc0d1d0146101db5780638da5cb5b146101d25780638ff9b843146101c9578063958e2d31146101c0578063a45db911146101b7578063aa24dca2146101ae578063d73792a9146101a5578063e111e3e71461019c578063e86dea4a14610193578063edb258411461018a578063f2c1063614610181578063f2fde38b14610178578063fd9b56871461016f5763fe8799181461016757600080fd5b61000e611870565b5061000e611834565b5061000e611740565b5061000e611717565b5061000e611667565b5061000e6115cf565b5061000e611594565b5061000e611557565b5061000e611362565b5061000e6112dc565b5061000e611012565b5061000e610f39565b5061000e610ee6565b5061000e610e93565b5061000e610ddb565b5061000e610d00565b5061000e610c3a565b5061000e610b92565b5061000e610b56565b5061000e610a9c565b5061000e610a16565b5061000e61097d565b5061000e610919565b5061000e6108a2565b5061000e61071a565b5061000e6105e8565b5061000e610530565b5061000e610503565b5061000e61044d565b5061000e61034f565b73ffffffffffffffffffffffffffffffffffffffff81160361000e57565b507f4e487b7100000000000000000000000000000000000000000000000000000000600052604160045260246000fd5b60c0810190811067ffffffffffffffff8211176102de57604052565b6102e6610292565b604052565b67ffffffffffffffff81116102de57604052565b90601f7fffffffffffffffffffffffffffffffffffffffffffffffffffffffffffffffe0910116810190811067ffffffffffffffff8211176102de57604052565b6040519061034d826102c2565b565b503461000e5760a07ffffffffffffffffffffffffffffffffffffffffffffffffffffffffffffffffc36011261000e5760043561038b81610274565b60243561039781610274565b6064356103a381610274565b6084359267ffffffffffffffff9283851161000e573660238601121561000e578460040135938411610435575b6040519361040660207fffffffffffffffffffffffffffffffffffffffffffffffffffffffffffffffe0601f84011601866102ff565b808552366024828801011161000e5760208160009260246104339901838901378601015260443591612308565b005b61043d610292565b6103d0565b600091031261000e57565b503461000e5760007ffffffffffffffffffffffffffffffffffffffffffffffffffffffffffffffffc36011261000e57602060405161438043048152f35b7ffffffffffffffffffffffffffffffffffffffffffffffffffffffffffffffffc60c091011261000e576040516104c1816102c2565b6004356104cd81610274565b81526024356104db81610274565b602082015260443560408201526064356060820152608435608082015260a43560a082015290565b503461000e5761051a6105153661048b565b612a41565b60408051928352602083019190915290f35b0390f35b503461000e5760207ffffffffffffffffffffffffffffffffffffffffffffffffffffffffffffffffc36011261000e577f04d55a8be181fb8d75b76f2d48aa0b2ee40f47e53d6e61763eeeec46feea8a24602060043561058f81610274565b73ffffffffffffffffffffffffffffffffffffffff906105b482600054163314611b8e565b16807fffffffffffffffffffffffff00000000000000000000000000000000000000006005541617600555604051908152a1005b503461000e5760206106016105fc3661048b565b612b56565b604051908152f35b90815180825260208080930193019160005b828110610629575050505090565b909192938260c082610688600194895160a0809173ffffffffffffffffffffffffffffffffffffffff80825116855260208201511660208501526040810151604085015260608101516060850152608081015160808501520151910152565b0195019392910161061b565b90815180825260208080930193019160005b8281106106b4575050505090565b8351855293810193928101926001016106a6565b959493906080936106f9610715946106eb6107079460a08c5260a08c0190610609565b908a820360208c0152610694565b9088820360408a0152610694565b908682036060880152610694565b930152565b503461000e576020807ffffffffffffffffffffffffffffffffffffffffffffffffffffffffffffffffc36011261000e576004359061075882610274565b73ffffffffffffffffffffffffffffffffffffffff600092168252600281526040822080549061078782612c52565b9261079560405194856102ff565b82845280840191855280852085925b84841061083b5786866107b78151612c79565b916107c28251612c79565b926107cd8351612c79565b915b8351811015610823578061080e6107e961081e9387612cc8565b516107f381612a41565b6107fd8588612cc8565b52610808848a612cc8565b52612b56565b6108188286612cc8565b526120dc565b6107cf565b509161052c91604051948594614380430493866106c8565b60068360019261084a85612831565b8152019201930192906107a4565b7ffffffffffffffffffffffffffffffffffffffffffffffffffffffffffffffffc606091011261000e5760043561088e81610274565b9060243561089b81610274565b9060443590565b503461000e5773ffffffffffffffffffffffffffffffffffffffff60026109016108cb36610858565b94909116600052600160205260406000209073ffffffffffffffffffffffffffffffffffffffff16600052602052604060002090565b01906000526020526020604060002054604051908152f35b503461000e5760207ffffffffffffffffffffffffffffffffffffffffffffffffffffffffffffffffc36011261000e57602061095f60043561095a81610274565b612cea565b73ffffffffffffffffffffffffffffffffffffffff60405191168152f35b503461000e5760007ffffffffffffffffffffffffffffffffffffffffffffffffffffffffffffffffc36011261000e57602073ffffffffffffffffffffffffffffffffffffffff60055416604051908152f35b7ffffffffffffffffffffffffffffffffffffffffffffffffffffffffffffffffc604091011261000e57600435610a0681610274565b90602435610a1381610274565b90565b503461000e57610a7173ffffffffffffffffffffffffffffffffffffffff610a3d366109d0565b9116600052600160205260406000209073ffffffffffffffffffffffffffffffffffffffff16600052602052604060002090565b805460019091015460408051928352602083019190915290f35b906020610a13928181520190610609565b503461000e576020807ffffffffffffffffffffffffffffffffffffffffffffffffffffffffffffffffc36011261000e5773ffffffffffffffffffffffffffffffffffffffff600435610aee81610274565b166000526002815260406000208054610b0681612c52565b91610b1460405193846102ff565b8183526000908152838120938084015b838310610b39576040518061052c8782610a8b565b600682600192610b4889612831565b815201960192019194610b24565b503461000e5760007ffffffffffffffffffffffffffffffffffffffffffffffffffffffffffffffffc36011261000e5760206040516143808152f35b503461000e576000807ffffffffffffffffffffffffffffffffffffffffffffffffffffffffffffffffc360112610c375780547fffffffffffffffffffffffff000000000000000000000000000000000000000073ffffffffffffffffffffffffffffffffffffffff821691610c09338414611b8e565b16825581604051917f8be0079c531659141344cd1fd0a4f28419497f9722a3daafe3b4186f6b6457e08284a3f35b80fd5b503461000e5760207ffffffffffffffffffffffffffffffffffffffffffffffffffffffffffffffffc36011261000e576020600435610c7881610274565b73ffffffffffffffffffffffffffffffffffffffff8091166000526003825260406000205416604051908152f35b507f4e487b7100000000000000000000000000000000000000000000000000000000600052603260045260246000fd5b8054821015610cf3575b6000526006602060002091020190600090565b610cfb610ca6565b610ce0565b503461000e5760407ffffffffffffffffffffffffffffffffffffffffffffffffffffffffffffffffc36011261000e57600435610d3c81610274565b60243573ffffffffffffffffffffffffffffffffffffffff8092166000526002602052604060002090815481101561000e57610d7791610cd6565b50805460018201546002830154600384015460048501546005909501546040805173ffffffffffffffffffffffffffffffffffffffff96891687168152979094169094166020870152918501526060840152608083019190915260a082015260c090f35b503461000e5760207ffffffffffffffffffffffffffffffffffffffffffffffffffffffffffffffffc36011261000e577f3f32684a32a11dabdbb8c0177de80aa3ae36a004d75210335b49e544e48cd0aa6020600435610e3a81610274565b73ffffffffffffffffffffffffffffffffffffffff90610e5f82600054163314611b8e565b16807fffffffffffffffffffffffff00000000000000000000000000000000000000006006541617600655604051908152a1005b503461000e5760007ffffffffffffffffffffffffffffffffffffffffffffffffffffffffffffffffc36011261000e57602073ffffffffffffffffffffffffffffffffffffffff60065416604051908152f35b503461000e5760007ffffffffffffffffffffffffffffffffffffffffffffffffffffffffffffffffc36011261000e57602073ffffffffffffffffffffffffffffffffffffffff60005416604051908152f35b503461000e577f07d2c916c33b57e54689377381be3ef67a6a53c120daaf90e1e16f1645777e50610f69366109d0565b9073ffffffffffffffffffffffffffffffffffffffff610f8e81600054163314611b8e565b81166000526003602052610fe18260406000209073ffffffffffffffffffffffffffffffffffffffff167fffffffffffffffffffffffff0000000000000000000000000000000000000000825416179055565b6040805173ffffffffffffffffffffffffffffffffffffffff9283168152929091166020830152819081015b0390a1005b503461000e5760207ffffffffffffffffffffffffffffffffffffffffffffffffffffffffffffffffc36011261000e5760043561104e8161291a565b6110818161107c3373ffffffffffffffffffffffffffffffffffffffff166000526002602052604060002090565b610cd6565b50906111316110e96110c36110aa855473ffffffffffffffffffffffffffffffffffffffff1690565b73ffffffffffffffffffffffffffffffffffffffff1690565b73ffffffffffffffffffffffffffffffffffffffff166000526001602052604060002090565b61110d6110aa600186015473ffffffffffffffffffffffffffffffffffffffff1690565b73ffffffffffffffffffffffffffffffffffffffff16600052602052604060002090565b9161114d6111486004830154600384015490611e13565b611d94565b92600181018054851161115c57005b826111c86110aa926111c261126f95600273ffffffffffffffffffffffffffffffffffffffff98019061119182548254611dce565b81556111b76111af8c60038554940190600052602052604060002090565b918254611dce565b905554915489611dce565b90611cd9565b9560058201556112556000602061123b6111f96110aa865473ffffffffffffffffffffffffffffffffffffffff1690565b6040517fa9059cbb000000000000000000000000000000000000000000000000000000008152336004820152602481018c905293849283919082906044820190565b03925af19081156112cf575b6000916112a1575b5061288f565b5473ffffffffffffffffffffffffffffffffffffffff1690565b604051938452169133907f1aea12ef3450ec7749a467b47e7d800a7b493e4601d440ac5aebb94f747c122890602090a4005b6112c2915060203d81116112c8575b6112ba81836102ff565b810190611d0a565b3861124f565b503d6112b0565b6112d7611d22565b611247565b503461000e5760207ffffffffffffffffffffffffffffffffffffffffffffffffffffffffffffffffc36011261000e577fc1bcceddd77fdc95a8da9bec5802d2e0bb564dd02c0730222d8e12030bd91043602060043561135573ffffffffffffffffffffffffffffffffffffffff600054163314611b8e565b80600455604051908152a1005b503461000e5760407ffffffffffffffffffffffffffffffffffffffffffffffffffffffffffffffffc36011261000e577f3ab9db27a4cdd8c603a752b62d5fbd93b4b3509fe2596708e9688e42bbac35766004356113bf81610274565b602435906113cc82610274565b73ffffffffffffffffffffffffffffffffffffffff906113f182600054163314611b8e565b6040517f70a082310000000000000000000000000000000000000000000000000000000081523060048201529291169060208084602481865afa93841561154a575b600094611511575b506040517fa9059cbb00000000000000000000000000000000000000000000000000000000815273ffffffffffffffffffffffffffffffffffffffff831660048201526024810185905261100d92916114af91818160448160008a5af1918215611504575b6000926114e7575b50506129dc565b6040519384938491939290604091606084019573ffffffffffffffffffffffffffffffffffffffff8093168552602085015216910152565b6114fd9250803d106112c8576112ba81836102ff565b38806114a8565b61150c611d22565b6114a0565b81945061153a6114af9161100d94933d8811611543575b61153281836102ff565b810190612068565b9491925061143b565b503d611528565b611552611d22565b611433565b503461000e5760007ffffffffffffffffffffffffffffffffffffffffffffffffffffffffffffffffc36011261000e576020604051620f42408152f35b503461000e5760207ffffffffffffffffffffffffffffffffffffffffffffffffffffffffffffffffc36011261000e5761043360043561291a565b503461000e5760007ffffffffffffffffffffffffffffffffffffffffffffffffffffffffffffffffc36011261000e576020600454604051908152f35b61034d9092919260c081019360a0809173ffffffffffffffffffffffffffffffffffffffff80825116855260208201511660208501526040810151604085015260608101516060850152608081015160808501520151910152565b503461000e5760407ffffffffffffffffffffffffffffffffffffffffffffffffffffffffffffffffc36011261000e5761052c61170b61170560a073ffffffffffffffffffffffffffffffffffffffff6004356116c381610274565b6040516116cf816102c2565b60009381858093528260208201528260408201528260608201528260808201520152168152600260205260406024359120610cd6565b50612831565b6040519182918261160c565b503461000e5773ffffffffffffffffffffffffffffffffffffffff60036109016108cb36610858565b503461000e5760207ffffffffffffffffffffffffffffffffffffffffffffffffffffffffffffffffc36011261000e5760043561177c81610274565b73ffffffffffffffffffffffffffffffffffffffff6117a081600054163314611b8e565b8116156117b05761043390611bf3565b60846040517f08c379a000000000000000000000000000000000000000000000000000000000815260206004820152602660248201527f4f776e61626c653a206e6577206f776e657220697320746865207a65726f206160448201527f64647265737300000000000000000000000000000000000000000000000000006064820152fd5b503461000e5760007ffffffffffffffffffffffffffffffffffffffffffffffffffffffffffffffffc36011261000e5760206040516117708152f35b503461000e5760807ffffffffffffffffffffffffffffffffffffffffffffffffffffffffffffffffc36011261000e5761052c6004356118af81610274565b6024356118bb81610274565b604435606435907faf8bd3c5abe498e30aea149b38afa6e7d9bbe58c9129b38eff2912440734c6e273ffffffffffffffffffffffffffffffffffffffff9384861693611972611955602061190f8488611cd9565b6040517f23b872dd000000000000000000000000000000000000000000000000000000008152336004820152306024820152604481019190915291829081906064820190565b038160008b5af1908115611b81575b600091611b63575b50611d2f565b611a6e6119cc6119a28773ffffffffffffffffffffffffffffffffffffffff166000526001602052604060002090565b97841680989073ffffffffffffffffffffffffffffffffffffffff16600052602052604060002090565b60018101805415611b06575b54611a2a6119e582611de5565b95611a0d6119f1610340565b73ffffffffffffffffffffffffffffffffffffffff909d168d52565b73ffffffffffffffffffffffffffffffffffffffff1660208c0152565b8660408b01528360608b01528460808b015260a08a0152611a4c868254611e13565b81556003611a5d6111488587611e13565b910190600052602052604060002090565b611a79858254611e13565b9055611ad9611aa83373ffffffffffffffffffffffffffffffffffffffff166000526002602052604060002090565b5497611ad43373ffffffffffffffffffffffffffffffffffffffff166000526002602052604060002090565b611e1f565b60408051888152602081019590955284015260608301523391608090a46040519081529081906020820190565b611b136143804304611d94565b81556040805173ffffffffffffffffffffffffffffffffffffffff8a811682528b1660208201527f1860ddfae81fa4edaec7accf480512d07263c8e909d5cdae84da78e098fc7b099190a16119d8565b611b7b915060203d81116112c8576112ba81836102ff565b3861196c565b611b89611d22565b611964565b15611b9557565b60646040517f08c379a000000000000000000000000000000000000000000000000000000000815260206004820152602060248201527f4f776e61626c653a2063616c6c6572206973206e6f7420746865206f776e65726044820152fd5b6000549073ffffffffffffffffffffffffffffffffffffffff80911691827fffffffffffffffffffffffff0000000000000000000000000000000000000000821617600055167f8be0079c531659141344cd1fd0a4f28419497f9722a3daafe3b4186f6b6457e06000604051a3565b507f4e487b7100000000000000000000000000000000000000000000000000000000600052601160045260246000fd5b670de0b6b3a764000090807fffffffffffffffffffffffffffffffffffffffffffffffffffffffffffffffff04821181151516611ccd570290565b611cd5611c62565b0290565b807fffffffffffffffffffffffffffffffffffffffffffffffffffffffffffffffff04821181151516611ccd570290565b9081602091031261000e5751801515810361000e5790565b506040513d6000823e3d90fd5b15611d3657565b60646040517f08c379a000000000000000000000000000000000000000000000000000000000815260206004820152601560248201527f4443413a204e6f7420656e6f7567682066756e647300000000000000000000006044820152fd5b7fffffffffffffffffffffffffffffffffffffffffffffffffffffffffffffffff9060018110611dc2570190565b611dca611c62565b0190565b818110611dd9570390565b611de1611c62565b0390565b6001907ffffffffffffffffffffffffffffffffffffffffffffffffffffffffffffffffe8111611dc2570190565b81198111611dc2570190565b8054611e429168010000000000000000821015611f32575b600182018155610cd6565b919091611f0357805182547fffffffffffffffffffffffff00000000000000000000000000000000000000001673ffffffffffffffffffffffffffffffffffffffff91821617835560059160a091611ede90602083015116600186019073ffffffffffffffffffffffffffffffffffffffff167fffffffffffffffffffffffff0000000000000000000000000000000000000000825416179055565b6040810151600285015560608101516003850155608081015160048501550151910155565b7f4e487b7100000000000000000000000000000000000000000000000000000000600052600060045260246000fd5b611f3a610292565b611e37565b15611f4657565b60646040517f08c379a000000000000000000000000000000000000000000000000000000000815260206004820152601360248201527f4443413a20496e76616c696420706572696f64000000000000000000000000006044820152fd5b15611fab57565b60846040517f08c379a000000000000000000000000000000000000000000000000000000000815260206004820152602360248201527f4443413a20506572696f642063616e6e6f7420626520696e207468652066757460448201527f75726500000000000000000000000000000000000000000000000000000000006064820152fd5b8115612039570490565b7f4e487b7100000000000000000000000000000000000000000000000000000000600052601260045260246000fd5b9081602091031261000e575190565b1561207e57565b60646040517f08c379a000000000000000000000000000000000000000000000000000000000815260206004820152601360248201527f4443413a204f7261636c65206661696c757265000000000000000000000000006044820152fd5b6001907fffffffffffffffffffffffffffffffffffffffffffffffffffffffffffffffff8114611dc2570190565b1561211157565b60846040517f08c379a000000000000000000000000000000000000000000000000000000000815260206004820152602760248201527f4443413a20466565207472616e7366657220746f2062656e656669636961727960448201527f206661696c6564000000000000000000000000000000000000000000000000006064820152fd5b1561219c57565b60646040517f08c379a000000000000000000000000000000000000000000000000000000000815260206004820152601f60248201527f4443413a205472616e7366657220746f2053776170706572206661696c6564006044820152fd5b9391929095949573ffffffffffffffffffffffffffffffffffffffff809116855260209316838501526040840152606083015260a060808301528351908160a08401526000945b82861061228d575050601f817fffffffffffffffffffffffffffffffffffffffffffffffffffffffffffffffe09260c0959611612280575b0116010190565b6000858286010152612279565b85810182015184870160c0015294810194612241565b156122aa57565b60646040517f08c379a000000000000000000000000000000000000000000000000000000000815260206004820152602060248201527f4443413a204e6f7420656e6f7567682062616c616e63652072657475726e65646044820152fd5b9261244e909492946123638361233e8773ffffffffffffffffffffffffffffffffffffffff166000526001602052604060002090565b9073ffffffffffffffffffffffffffffffffffffffff16600052602052604060002090565b9360018501549161237d8861237785611de5565b14611f3f565b61238d6143804304891115611fa4565b8554956123b26123ab6123a26004548a611cd9565b620f4240900490565b8098611dce565b9360206123d76110aa60065473ffffffffffffffffffffffffffffffffffffffff1690565b6123e08b612cea565b90876123eb8b612cea565b926040519a8b94859384937f8c86f1e40000000000000000000000000000000000000000000000000000000085526004850191939290604091606084019573ffffffffffffffffffffffffffffffffffffffff8093168552602085015216910152565b03915afa958615612824575b6000966127ff575b5061247790612472871515612077565b6120dc565b600182015561248e8461248987611c92565b61202f565b60008a81526002830160205260409020556124c16124b98a6003840190600052602052604060002090565b548254611dce565b81556124dc8960048054930190600052602052604060002090565b5573ffffffffffffffffffffffffffffffffffffffff96878116966125966000602061257c8b61252160055473ffffffffffffffffffffffffffffffffffffffff1690565b956040519485809481937fa9059cbb000000000000000000000000000000000000000000000000000000009a8b8452600484016020909392919373ffffffffffffffffffffffffffffffffffffffff60408201951681520152565b03925af19081156127f2575b6000916127d3575b5061210a565b6040517f70a0823100000000000000000000000000000000000000000000000000000000808252306004830152888b169a9094919290919087908b906020868f81806024810103915afa9586156127c6575b600096612798575b5060405190815273ffffffffffffffffffffffffffffffffffffffff8416600482015260248101929092526126489190602090829081600081604481015b03925af190811561278b575b60009161276c575b50612195565b1690813b1561000e578660008782947f28c738dbec11a1bed94ba127a3712d54bcd39cf4ae95b6ebd671aaf10fd0287b9b836126d1986126bb6126fe9c604051988997889687957f2506c018000000000000000000000000000000000000000000000000000000008752600487016121fa565b03925af1801561275f575b612746575b50611e13565b6040519182523060048301526020826024818b5afa918215612739575b600092612718575b5011156122a3565b60408051918252602082019290925290819081015b0390a4565b61273291925060203d6020116115435761153281836102ff565b90386126f6565b612741611d22565b6126ee565b80612753612759926102eb565b80610442565b386126cb565b612767611d22565b6126c6565b612785915060203d6020116112c8576112ba81836102ff565b38612642565b612793611d22565b61263a565b60209196509261262e926127bb61264895843d86116115435761153281836102ff565b9792509250926125f0565b6127ce611d22565b6125e8565b6127ec915060203d6020116112c8576112ba81836102ff565b38612590565b6127fa611d22565b612588565b61247791965061281d9060203d6020116115435761153281836102ff565b9590612462565b61282c611d22565b61245a565b9060405161283e816102c2565b60a06005829473ffffffffffffffffffffffffffffffffffffffff80825416855260018201541660208501526002810154604085015260038101546060850152600481015460808501520154910152565b1561289657565b60846040517f08c379a000000000000000000000000000000000000000000000000000000000815260206004820152602160248201527f4443413a204e6f7420656e6f7567682066756e647320746f207769746864726160448201527f77000000000000000000000000000000000000000000000000000000000000006064820152fd5b6129488161107c3373ffffffffffffffffffffffffffffffffffffffff166000526002602052604060002090565b509073ffffffffffffffffffffffffffffffffffffffff6129a66110aa600161297361051587612831565b60058892980155016112556000602061123b6111f96110aa865473ffffffffffffffffffffffffffffffffffffffff1690565b604051938452169133907fe6f9d2780c8923607fbb084350c15a1655c3fc682c989303c218a016a00324a0908060208101612713565b156129e357565b60646040517f08c379a000000000000000000000000000000000000000000000000000000000815260206004820152601e60248201527f4443413a20456d657267656e6379207472616e73666572206661696c656400006044820152fd5b90612a8d612a696110c36110aa855173ffffffffffffffffffffffffffffffffffffffff1690565b61110d6110aa602086015173ffffffffffffffffffffffffffffffffffffffff1690565b90612ab26001830154612aac6111486080870151606088015190611e13565b90612b44565b916000936002612ac560a0830151611de5565b920190600454905b85841115612adb5750505050565b90919295612b36612b3c91612b30612b1d612b0f612b038c8a90600052602052604060002090565b54604088015190611cd9565b670de0b6b3a7640000900490565b612b2a6123a28883611cd9565b90611dce565b90611e13565b966120dc565b929190612acd565b9080821015612b51575090565b905090565b9073ffffffffffffffffffffffffffffffffffffffff612bc8612b9c8285511673ffffffffffffffffffffffffffffffffffffffff166000526001602052604060002090565b602092838601511673ffffffffffffffffffffffffffffffffffffffff16600052602052604060002090565b926000809260026080840151960190600454945b60a08501518811612c4957612c30612c3691898652848452670de0b6b3a7640000612c10604080892054908a015190611cd9565b04620f4240612c1f8a83611cd9565b0490818110612c3c575b0390611e13565b976120dc565b96612bdc565b612c44611c62565b612c29565b96505050505050565b60209067ffffffffffffffff8111612c6c575b60051b0190565b612c74610292565b612c65565b90612c8382612c52565b612c9060405191826102ff565b8281527fffffffffffffffffffffffffffffffffffffffffffffffffffffffffffffffe0612cbe8294612c52565b0190602036910137565b6020918151811015612cdd575b60051b010190565b612ce5610ca6565b612cd5565b73ffffffffffffffffffffffffffffffffffffffff81811660009081526003602052604090205416908115612b5157509056fea2646970667358221220f00364593f35fa684a16b4eadaf45c31cbde7a4b1752591eaec182f5fd961a2164736f6c634300080d0033",
  "devdoc": {
    "kind": "dev",
    "methods": {
      "owner()": {
        "details": "Returns the address of the current owner."
      },
      "renounceOwnership()": {
        "details": "Leaves the contract without owner. It will not be possible to call `onlyOwner` functions anymore. Can only be called by the current owner. NOTE: Renouncing ownership will leave the contract without an owner, thereby removing any functionality that is only available to the owner."
      },
      "transferOwnership(address)": {
        "details": "Transfers ownership of the contract to a new account (`newOwner`). Can only be called by the current owner."
      }
    },
    "version": 1
  },
  "userdoc": {
    "kind": "user",
    "methods": {},
    "version": 1
  },
  "storageLayout": {
    "storage": [
      {
        "astId": 7,
        "contract": "contracts/DCA.sol:DCA",
        "label": "_owner",
        "offset": 0,
        "slot": "0",
        "type": "t_address"
      },
      {
        "astId": 1135,
        "contract": "contracts/DCA.sol:DCA",
        "label": "swapOrders",
        "offset": 0,
        "slot": "1",
        "type": "t_mapping(t_address,t_mapping(t_address,t_struct(SwapOrder)1128_storage))"
      },
      {
        "astId": 1141,
        "contract": "contracts/DCA.sol:DCA",
        "label": "orders",
        "offset": 0,
        "slot": "2",
        "type": "t_mapping(t_address,t_array(t_struct(UserOrder)1111_storage)dyn_storage)"
      },
      {
        "astId": 1145,
        "contract": "contracts/DCA.sol:DCA",
        "label": "oracleAddresses",
        "offset": 0,
        "slot": "3",
        "type": "t_mapping(t_address,t_address)"
      },
      {
        "astId": 1147,
        "contract": "contracts/DCA.sol:DCA",
        "label": "feeNumerator",
        "offset": 0,
        "slot": "4",
        "type": "t_uint256"
      },
      {
        "astId": 1149,
        "contract": "contracts/DCA.sol:DCA",
        "label": "beneficiary",
        "offset": 0,
        "slot": "5",
        "type": "t_address"
      },
      {
        "astId": 1152,
        "contract": "contracts/DCA.sol:DCA",
        "label": "oracle",
        "offset": 0,
        "slot": "6",
        "type": "t_contract(Oracle)2415"
      }
    ],
    "types": {
      "t_address": {
        "encoding": "inplace",
        "label": "address",
        "numberOfBytes": "20"
      },
      "t_array(t_struct(UserOrder)1111_storage)dyn_storage": {
        "base": "t_struct(UserOrder)1111_storage",
        "encoding": "dynamic_array",
        "label": "struct DCA.UserOrder[]",
        "numberOfBytes": "32"
      },
      "t_contract(IERC20)860": {
        "encoding": "inplace",
        "label": "contract IERC20",
        "numberOfBytes": "20"
      },
      "t_contract(Oracle)2415": {
        "encoding": "inplace",
        "label": "contract Oracle",
        "numberOfBytes": "20"
      },
      "t_mapping(t_address,t_address)": {
        "encoding": "mapping",
        "key": "t_address",
        "label": "mapping(address => address)",
        "numberOfBytes": "32",
        "value": "t_address"
      },
      "t_mapping(t_address,t_array(t_struct(UserOrder)1111_storage)dyn_storage)": {
        "encoding": "mapping",
        "key": "t_address",
        "label": "mapping(address => struct DCA.UserOrder[])",
        "numberOfBytes": "32",
        "value": "t_array(t_struct(UserOrder)1111_storage)dyn_storage"
      },
      "t_mapping(t_address,t_mapping(t_address,t_struct(SwapOrder)1128_storage))": {
        "encoding": "mapping",
        "key": "t_address",
        "label": "mapping(address => mapping(address => struct DCA.SwapOrder))",
        "numberOfBytes": "32",
        "value": "t_mapping(t_address,t_struct(SwapOrder)1128_storage)"
      },
      "t_mapping(t_address,t_struct(SwapOrder)1128_storage)": {
        "encoding": "mapping",
        "key": "t_address",
        "label": "mapping(address => struct DCA.SwapOrder)",
        "numberOfBytes": "32",
        "value": "t_struct(SwapOrder)1128_storage"
      },
      "t_mapping(t_uint256,t_uint256)": {
        "encoding": "mapping",
        "key": "t_uint256",
        "label": "mapping(uint256 => uint256)",
        "numberOfBytes": "32",
        "value": "t_uint256"
      },
      "t_struct(SwapOrder)1128_storage": {
        "encoding": "inplace",
        "label": "struct DCA.SwapOrder",
        "members": [
          {
            "astId": 1113,
            "contract": "contracts/DCA.sol:DCA",
            "label": "amountToSwap",
            "offset": 0,
            "slot": "0",
            "type": "t_uint256"
          },
          {
            "astId": 1115,
            "contract": "contracts/DCA.sol:DCA",
            "label": "lastPeriod",
            "offset": 0,
            "slot": "1",
            "type": "t_uint256"
          },
          {
            "astId": 1119,
            "contract": "contracts/DCA.sol:DCA",
            "label": "swapExchangeRates",
            "offset": 0,
            "slot": "2",
            "type": "t_mapping(t_uint256,t_uint256)"
          },
          {
            "astId": 1123,
            "contract": "contracts/DCA.sol:DCA",
            "label": "amountsToReduce",
            "offset": 0,
            "slot": "3",
            "type": "t_mapping(t_uint256,t_uint256)"
          },
          {
            "astId": 1127,
            "contract": "contracts/DCA.sol:DCA",
            "label": "feeOnPeriod",
            "offset": 0,
            "slot": "4",
            "type": "t_mapping(t_uint256,t_uint256)"
          }
        ],
        "numberOfBytes": "160"
      },
      "t_struct(UserOrder)1111_storage": {
        "encoding": "inplace",
        "label": "struct DCA.UserOrder",
        "members": [
          {
            "astId": 1099,
            "contract": "contracts/DCA.sol:DCA",
            "label": "sellToken",
            "offset": 0,
            "slot": "0",
            "type": "t_contract(IERC20)860"
          },
          {
            "astId": 1102,
            "contract": "contracts/DCA.sol:DCA",
            "label": "buyToken",
            "offset": 0,
            "slot": "1",
            "type": "t_contract(IERC20)860"
          },
          {
            "astId": 1104,
            "contract": "contracts/DCA.sol:DCA",
            "label": "amountPerSwap",
            "offset": 0,
            "slot": "2",
            "type": "t_uint256"
          },
          {
            "astId": 1106,
            "contract": "contracts/DCA.sol:DCA",
            "label": "numberOfSwaps",
            "offset": 0,
            "slot": "3",
            "type": "t_uint256"
          },
          {
            "astId": 1108,
            "contract": "contracts/DCA.sol:DCA",
            "label": "startingPeriod",
            "offset": 0,
            "slot": "4",
            "type": "t_uint256"
          },
          {
            "astId": 1110,
            "contract": "contracts/DCA.sol:DCA",
            "label": "lastPeriodWithdrawal",
            "offset": 0,
            "slot": "5",
            "type": "t_uint256"
          }
        ],
        "numberOfBytes": "192"
      },
      "t_uint256": {
        "encoding": "inplace",
        "label": "uint256",
        "numberOfBytes": "32"
      }
    }
  }
}