{
  "address": "0x3615d545897E8a34BEE70B7F18fA6c3D23A7730F",
  "abi": [
    {
      "anonymous": false,
      "inputs": [
        {
          "indexed": true,
          "internalType": "address",
          "name": "previousOwner",
          "type": "address"
        },
        {
          "indexed": true,
          "internalType": "address",
          "name": "newOwner",
          "type": "address"
        }
      ],
      "name": "OwnershipTransferred",
      "type": "event"
    },
    {
      "inputs": [
        {
          "internalType": "contract DCA",
          "name": "dca",
          "type": "address"
        },
        {
          "internalType": "address[]",
          "name": "userAddresses",
          "type": "address[]"
        },
        {
          "internalType": "uint256[]",
          "name": "indexes",
          "type": "uint256[]"
        }
      ],
      "name": "claimSwappedAmounts",
      "outputs": [
        {
          "internalType": "bool[]",
          "name": "",
          "type": "bool[]"
        }
      ],
      "stateMutability": "nonpayable",
      "type": "function"
    },
    {
      "inputs": [
        {
          "internalType": "contract IERC20",
          "name": "token",
          "type": "address"
        }
      ],
      "name": "emergency",
      "outputs": [],
      "stateMutability": "nonpayable",
      "type": "function"
    },
    {
      "inputs": [],
      "name": "owner",
      "outputs": [
        {
          "internalType": "address",
          "name": "",
          "type": "address"
        }
      ],
      "stateMutability": "view",
      "type": "function"
    },
    {
      "inputs": [],
      "name": "renounceOwnership",
      "outputs": [],
      "stateMutability": "nonpayable",
      "type": "function"
    },
    {
      "inputs": [
        {
          "internalType": "address",
          "name": "newOwner",
          "type": "address"
        }
      ],
      "name": "transferOwnership",
      "outputs": [],
      "stateMutability": "nonpayable",
      "type": "function"
    }
  ],
  "transactionHash": "0x584febe76d163dafc060099ae37c9a02a0e3d6aafdbdabda264973f29668cfb2",
  "args": [],
  "numDeployments": 4,
  "solcInputHash": "5b6f734bcbab792d91e929c8bc0df9da",
  "bytecode": "0x6080806040523461005b5760008054336001600160a01b0319821681178355916001600160a01b03909116907f8be0079c531659141344cd1fd0a4f28419497f9722a3daafe3b4186f6b6457e09084a3610dee90816100618239f35b600080fdfe60806040526004361015610013575b600080fd5b6000803560e01c90816345941ee01461007a57508063715018a6146100715780638da5cb5b1461006857806391d70d431461005f5763f2fde38b1461005757600080fd5b61000e610777565b5061000e610396565b5061000e6102d5565b5061000e610230565b34610204576020807ffffffffffffffffffffffffffffffffffffffffffffffffffffffffffffffffc3601126102005780826101879261016d6004356100bf81610207565b73ffffffffffffffffffffffffffffffffffffffff906100e382865416331461086d565b6040517f70a082310000000000000000000000000000000000000000000000000000000081523060048201529116908381602481855afa9081156101f3575b85916101c6575b506040517fa9059cbb000000000000000000000000000000000000000000000000000000008152336004820152602481019190915293849283919082906044820190565b03925af19182156101b9575b849261018c575b5050610d2d565b604051f35b6101ab9250803d106101b2575b6101a38183610a39565b810190610d15565b8380610180565b503d610199565b6101c1610c87565b610179565b6101e69150843d86116101ec575b6101de8183610a39565b810190610d06565b88610129565b503d6101d4565b6101fb610c87565b610122565b5080fd5b80fd5b73ffffffffffffffffffffffffffffffffffffffff81160361000e57565b600091031261000e57565b503461000e576000807ffffffffffffffffffffffffffffffffffffffffffffffffffffffffffffffffc3601126102045780547fffffffffffffffffffffffff000000000000000000000000000000000000000073ffffffffffffffffffffffffffffffffffffffff8216916102a733841461086d565b16825581604051917f8be0079c531659141344cd1fd0a4f28419497f9722a3daafe3b4186f6b6457e08284a3f35b503461000e5760007ffffffffffffffffffffffffffffffffffffffffffffffffffffffffffffffffc36011261000e57602073ffffffffffffffffffffffffffffffffffffffff60005416604051908152f35b9181601f8401121561000e5782359167ffffffffffffffff831161000e576020808501948460051b01011161000e57565b6020908160408183019282815285518094520193019160005b828110610380575050505090565b8351151585529381019392810192600101610372565b503461000e576060807ffffffffffffffffffffffffffffffffffffffffffffffffffffffffffffffffc36011261000e57600480356103d481610207565b67ffffffffffffffff9260243584811161000e576103f59036908501610328565b93909460443590811161000e576104129095939536908301610328565b610420818798939814610941565b61042986610aa1565b9573ffffffffffffffffffffffffffffffffffffffff60009316925b81811061045e576040518061045a8a82610359565b0390f35b61047161046c82848a610b8a565b610ba2565b906104f68a6104cf838760006040978c895195869283927f63c69f08000000000000000000000000000000000000000000000000000000008452830191909173ffffffffffffffffffffffffffffffffffffffff6020820193169052565b03818d5afa92831561076a575b600093610745575b506104ef9293610b8a565b3590610c94565b51610531610518825173ffffffffffffffffffffffffffffffffffffffff1690565b73ffffffffffffffffffffffffffffffffffffffff1690565b908a838a8661055a610518602087015173ffffffffffffffffffffffffffffffffffffffff1690565b81517f1709945a00000000000000000000000000000000000000000000000000000000815273ffffffffffffffffffffffffffffffffffffffff9788168e82019081529190971660208201528690819060400103818d5afa948515610738575b6000956106f0575b506105fc929160a06105e86105e36105f59460808901519089015190610ccc565b610cd8565b9501948551101592610c94565b9015159052565b5110806106d0575b610618575b6106139150610b20565b610445565b61062661046c82858b610b8a565b61063182868d610b8a565b3592863b1561000e57517f295d056600000000000000000000000000000000000000000000000000000000815273ffffffffffffffffffffffffffffffffffffffff909116878201908152602081019390935261061392600090829081906040010381838a5af180156106c3575b6106aa575b50610609565b806106b76106bd926109fc565b80610225565b386106a4565b6106cb610c87565b61069f565b506106eb6106e76106e1838c610c94565b51151590565b1590565b610604565b6105f59195509160a06105e86105e36107226105fc97968c8d3d10610731575b61071a8183610a39565b810190610cb6565b905098945050505091926105c2565b503d610710565b610740610c87565b6105ba565b610764906104ef943d8091833e61075c8183610a39565b810190610baf565b926104e4565b610772610c87565b6104dc565b503461000e5760207ffffffffffffffffffffffffffffffffffffffffffffffffffffffffffffffffc36011261000e576004356107b381610207565b73ffffffffffffffffffffffffffffffffffffffff6107d78160005416331461086d565b8116156107e9576107e7906108d2565b005b60846040517f08c379a000000000000000000000000000000000000000000000000000000000815260206004820152602660248201527f4f776e61626c653a206e6577206f776e657220697320746865207a65726f206160448201527f64647265737300000000000000000000000000000000000000000000000000006064820152fd5b1561087457565b60646040517f08c379a000000000000000000000000000000000000000000000000000000000815260206004820152602060248201527f4f776e61626c653a2063616c6c6572206973206e6f7420746865206f776e65726044820152fd5b6000549073ffffffffffffffffffffffffffffffffffffffff80911691827fffffffffffffffffffffffff0000000000000000000000000000000000000000821617600055167f8be0079c531659141344cd1fd0a4f28419497f9722a3daafe3b4186f6b6457e06000604051a3565b1561094857565b60846040517f08c379a000000000000000000000000000000000000000000000000000000000815260206004820152602260248201527f444341436c61696d65723a2041727261792073697a6573206d757374206d617460448201527f63680000000000000000000000000000000000000000000000000000000000006064820152fd5b507f4e487b7100000000000000000000000000000000000000000000000000000000600052604160045260246000fd5b67ffffffffffffffff8111610a1057604052565b610a186109cc565b604052565b60c0810190811067ffffffffffffffff821117610a1057604052565b90601f7fffffffffffffffffffffffffffffffffffffffffffffffffffffffffffffffe0910116810190811067ffffffffffffffff821117610a1057604052565b60209067ffffffffffffffff8111610a94575b60051b0190565b610a9c6109cc565b610a8d565b90610aab82610a7a565b610ab86040519182610a39565b8281527fffffffffffffffffffffffffffffffffffffffffffffffffffffffffffffffe0610ae68294610a7a565b0190602036910137565b507f4e487b7100000000000000000000000000000000000000000000000000000000600052601160045260246000fd5b6001907fffffffffffffffffffffffffffffffffffffffffffffffffffffffffffffffff8114610b4e570190565b610b56610af0565b0190565b507f4e487b7100000000000000000000000000000000000000000000000000000000600052603260045260246000fd5b9190811015610b9a5760051b0190565b610a9c610b5a565b35610bac81610207565b90565b602090818184031261000e5780519067ffffffffffffffff821161000e570182601f8201121561000e57805191610be583610a7a565b936040610bf481519687610a39565b848652828601918360c08097028601019481861161000e578401925b858410610c21575050505050505090565b868483031261000e578487918451610c3881610a1d565b8651610c4381610207565b815282870151610c5281610207565b838201528587015186820152606080880151908201526080808801519082015260a08088015190820152815201930192610c10565b506040513d6000823e3d90fd5b6020918151811015610ca9575b60051b010190565b610cb1610b5a565b610ca1565b919082604091031261000e576020825192015190565b81198111610b4e570190565b7fffffffffffffffffffffffffffffffffffffffffffffffffffffffffffffffff9060018110610b4e570190565b9081602091031261000e575190565b9081602091031261000e5751801515810361000e5790565b15610d3457565b60846040517f08c379a000000000000000000000000000000000000000000000000000000000815260206004820152602760248201527f444341436c61696d65723a20456d657267656e6379207769746864726177616c60448201527f206661696c6564000000000000000000000000000000000000000000000000006064820152fdfea2646970667358221220341f8d93fae409982bc4f372f0490666125e444ea2eb68f791e653a49e8d196264736f6c634300080d0033",
  "devdoc": {
    "kind": "dev",
    "methods": {
      "owner()": {
        "details": "Returns the address of the current owner."
      },
      "renounceOwnership()": {
        "details": "Leaves the contract without owner. It will not be possible to call `onlyOwner` functions anymore. Can only be called by the current owner. NOTE: Renouncing ownership will leave the contract without an owner, thereby removing any functionality that is only available to the owner."
      },
      "transferOwnership(address)": {
        "details": "Transfers ownership of the contract to a new account (`newOwner`). Can only be called by the current owner."
      }
    },
    "version": 1
  },
  "userdoc": {
    "kind": "user",
    "methods": {
      "emergency(address)": {
        "notice": "Shouldn't be necessary, just in case of emergency"
      }
    },
    "version": 1
  },
  "storageLayout": {
    "storage": [
      {
        "astId": 7,
        "contract": "contracts/DCAClaimer.sol:DCAClaimer",
        "label": "_owner",
        "offset": 0,
        "slot": "0",
        "type": "t_address"
      }
    ],
    "types": {
      "t_address": {
        "encoding": "inplace",
        "label": "address",
        "numberOfBytes": "20"
      }
    }
  }
}