{
  "address": "0xdeFFB51f2d1D166d2d9bd81f80eF01f0e378191C",
  "abi": [
    {
      "anonymous": false,
      "inputs": [
        {
          "indexed": true,
          "internalType": "address",
          "name": "previousOwner",
          "type": "address"
        },
        {
          "indexed": true,
          "internalType": "address",
          "name": "newOwner",
          "type": "address"
        }
      ],
      "name": "OwnershipTransferred",
      "type": "event"
    },
    {
      "inputs": [
        {
          "internalType": "contract DCA",
          "name": "dca",
          "type": "address"
        },
        {
          "components": [
            {
              "internalType": "contract IERC20",
              "name": "sellToken",
              "type": "address"
            },
            {
              "internalType": "contract IERC20",
              "name": "buyToken",
              "type": "address"
            },
            {
              "internalType": "uint256",
              "name": "amountPerSwap",
              "type": "uint256"
            },
            {
              "internalType": "uint256",
              "name": "numberOfSwaps",
              "type": "uint256"
            },
            {
              "internalType": "uint256",
              "name": "startingPeriod",
              "type": "uint256"
            },
            {
              "internalType": "uint256",
              "name": "lastPeriodWithdrawal",
              "type": "uint256"
            }
          ],
          "internalType": "struct DCA.UserOrder",
          "name": "order",
          "type": "tuple"
        }
      ],
      "name": "calculateAmountWithdrawn",
      "outputs": [
        {
          "internalType": "uint256",
          "name": "amountWithdrawn",
          "type": "uint256"
        }
      ],
      "stateMutability": "view",
      "type": "function"
    },
    {
      "inputs": [
        {
          "internalType": "contract IERC20",
          "name": "token",
          "type": "address"
        }
      ],
      "name": "emergency",
      "outputs": [],
      "stateMutability": "nonpayable",
      "type": "function"
    },
    {
      "inputs": [
        {
          "internalType": "contract DCA",
          "name": "dca",
          "type": "address"
        },
        {
          "internalType": "address",
          "name": "userAddress",
          "type": "address"
        },
        {
          "internalType": "uint256",
          "name": "index",
          "type": "uint256"
        }
      ],
      "name": "getOrder",
      "outputs": [
        {
          "components": [
            {
              "internalType": "contract IERC20",
              "name": "sellToken",
              "type": "address"
            },
            {
              "internalType": "contract IERC20",
              "name": "buyToken",
              "type": "address"
            },
            {
              "internalType": "uint256",
              "name": "amountPerSwap",
              "type": "uint256"
            },
            {
              "internalType": "uint256",
              "name": "numberOfSwaps",
              "type": "uint256"
            },
            {
              "internalType": "uint256",
              "name": "startingPeriod",
              "type": "uint256"
            },
            {
              "internalType": "uint256",
              "name": "lastPeriodWithdrawal",
              "type": "uint256"
            }
          ],
          "internalType": "struct DCA.UserOrder",
          "name": "",
          "type": "tuple"
        }
      ],
      "stateMutability": "view",
      "type": "function"
    },
    {
      "inputs": [
        {
          "internalType": "contract DCA",
          "name": "dca",
          "type": "address"
        },
        {
          "internalType": "address",
          "name": "_sellToken",
          "type": "address"
        },
        {
          "internalType": "address",
          "name": "_buyToken",
          "type": "address"
        },
        {
          "internalType": "uint256",
          "name": "_period",
          "type": "uint256"
        }
      ],
      "name": "getSwapStateAmountToReduce",
      "outputs": [
        {
          "internalType": "uint256",
          "name": "",
          "type": "uint256"
        }
      ],
      "stateMutability": "view",
      "type": "function"
    },
    {
      "inputs": [
        {
          "internalType": "contract DCA",
          "name": "dca",
          "type": "address"
        },
        {
          "internalType": "address",
          "name": "_sellToken",
          "type": "address"
        },
        {
          "internalType": "address",
          "name": "_buyToken",
          "type": "address"
        },
        {
          "internalType": "uint256",
          "name": "_period",
          "type": "uint256"
        }
      ],
      "name": "getSwapStateExchangeRate",
      "outputs": [
        {
          "internalType": "uint256",
          "name": "",
          "type": "uint256"
        }
      ],
      "stateMutability": "view",
      "type": "function"
    },
    {
      "inputs": [
        {
          "internalType": "contract DCA",
          "name": "dca",
          "type": "address"
        },
        {
          "internalType": "address",
          "name": "userAddress",
          "type": "address"
        }
      ],
      "name": "getUserOrdersWithExtras",
      "outputs": [
        {
          "components": [
            {
              "internalType": "contract IERC20",
              "name": "sellToken",
              "type": "address"
            },
            {
              "internalType": "contract IERC20",
              "name": "buyToken",
              "type": "address"
            },
            {
              "internalType": "uint256",
              "name": "amountPerSwap",
              "type": "uint256"
            },
            {
              "internalType": "uint256",
              "name": "numberOfSwaps",
              "type": "uint256"
            },
            {
              "internalType": "uint256",
              "name": "startingPeriod",
              "type": "uint256"
            },
            {
              "internalType": "uint256",
              "name": "lastPeriodWithdrawal",
              "type": "uint256"
            }
          ],
          "internalType": "struct DCA.UserOrder[]",
          "name": "",
          "type": "tuple[]"
        },
        {
          "internalType": "uint256[]",
          "name": "",
          "type": "uint256[]"
        },
        {
          "internalType": "uint256[]",
          "name": "",
          "type": "uint256[]"
        },
        {
          "internalType": "uint256[]",
          "name": "",
          "type": "uint256[]"
        },
        {
          "internalType": "uint256",
          "name": "",
          "type": "uint256"
        }
      ],
      "stateMutability": "view",
      "type": "function"
    },
    {
      "inputs": [],
      "name": "owner",
      "outputs": [
        {
          "internalType": "address",
          "name": "",
          "type": "address"
        }
      ],
      "stateMutability": "view",
      "type": "function"
    },
    {
      "inputs": [],
      "name": "renounceOwnership",
      "outputs": [],
      "stateMutability": "nonpayable",
      "type": "function"
    },
    {
      "inputs": [
        {
          "internalType": "address",
          "name": "newOwner",
          "type": "address"
        }
      ],
      "name": "transferOwnership",
      "outputs": [],
      "stateMutability": "nonpayable",
      "type": "function"
    }
  ],
  "transactionHash": "0xa09051d15644453e0779ee207b82e7f4f1e8d92e3717cb62a63ff89a971ebf45",
  "args": [],
  "numDeployments": 2,
  "solcInputHash": "ddd10bd5900de300090856df2c2d3880",
  "bytecode": "0x6080806040523461005b5760008054336001600160a01b0319821681178355916001600160a01b03909116907f8be0079c531659141344cd1fd0a4f28419497f9722a3daafe3b4186f6b6457e09084a361137f90816100618239f35b600080fdfe608060408181526004918236101561001657600080fd5b600092833560e01c938463325ce2ef146100da5750505050806345941ee0146100d157806369c3b7e2146100c8578063715018a6146100bf57806389aa67d1146100b65780638da5cb5b146100ad578063acb41c22146100a4578063ea376eea1461009b5763f2fde38b1461008e575b388080600080fd5b610096610ba7565b610086565b50610096610b32565b506100966109f3565b50610096610943565b50610096610875565b50610096610736565b50610096610650565b50610096610483565b3461035457837ffffffffffffffffffffffffffffffffffffffffffffffffffffffffffffffffc3601126103545781359361011485610357565b6024359161012183610357565b80858061018773ffffffffffffffffffffffffffffffffffffffff8a16967f63c69f0800000000000000000000000000000000000000000000000000000000835288830191909173ffffffffffffffffffffffffffffffffffffffff6020820193169052565b0381865afa948515610347575b8195610323575b506101a685516111fe565b6101b086516111fe565b906101bb87516111fe565b95835b885181101561029157806102406101d8610250938c61124d565b5188517f1b97e6e600000000000000000000000000000000000000000000000000000000815289818c818061020f878c8301610996565b03915afa8015610284575b89918a91610255575b5061022e858961124d565b52610239848961124d565b528c610edd565b61024a828b61124d565b52610d9f565b6101be565b905061027791508a3d8c1161027d575b61026f8183610834565b810190611290565b8f610223565b503d610265565b61028c610e28565b61021a565b5060206102e2969897949592988351928380927f086146d20000000000000000000000000000000000000000000000000000000082525afa948515610316575b946102e6575b5051958695866103ae565b0390f35b61030891945060203d811161030f575b6103008183610834565b810190610eab565b92876102d7565b503d6102f6565b61031e610e28565b6102d1565b6103409195503d8087833e6103388183610834565b810190611126565b938661019b565b61034f610e28565b610194565b80fd5b73ffffffffffffffffffffffffffffffffffffffff81160361037557565b600080fd5b90815180825260208080930193019160005b82811061039a575050505090565b83518552938101939281019260010161038c565b959493929160a087019160a08852805180935260c0808901936020809301916000905b8282106104195750505050926103f88361040693610414968b6080999703908c015261037a565b9088820360408a015261037a565b90868203606088015261037a565b930152565b909192958482826104776001948b5160a0809173ffffffffffffffffffffffffffffffffffffffff80825116855260208201511660208501526040810151604085015260608101516060850152608081015160808501520151910152565b019701939201906103d1565b5034610375576020807ffffffffffffffffffffffffffffffffffffffffffffffffffffffffffffffffc36011261037557806000610593926105786004356104ca81610357565b73ffffffffffffffffffffffffffffffffffffffff906104ee828654163314610c9b565b6040517f70a082310000000000000000000000000000000000000000000000000000000081523060048201529116908381602481855afa9081156105ec575b85916105cf575b506040517fa9059cbb000000000000000000000000000000000000000000000000000000008152336004820152602481019190915293849283919082906044820190565b03925af19182156105c2575b600092610595575b50506112be565b005b6105b49250803d106105bb575b6105ac8183610834565b8101906112a6565b388061058c565b503d6105a2565b6105ca610e28565b610584565b6105e69150843d861161030f576103008183610834565b38610534565b6105f4610e28565b61052d565b7ffffffffffffffffffffffffffffffffffffffffffffffffffffffffffffffffc60809101126103755760043561062f81610357565b9060243561063c81610357565b9060443561064981610357565b9060643590565b5034610375576020806106db606073ffffffffffffffffffffffffffffffffffffffff61067c366105f9565b6040517f21ba7d6300000000000000000000000000000000000000000000000000000000815273ffffffffffffffffffffffffffffffffffffffff93841660048201529290911660248301526044820152938492839182906064820190565b0392165afa908115610729575b6000916106fb575b500151604051908152f35b61071c915060603d8111610722575b6107148183610834565b810190610dd9565b386106f0565b503d61070a565b610731610e28565b6106e8565b5034610375576000807ffffffffffffffffffffffffffffffffffffffffffffffffffffffffffffffffc3601126103545780547fffffffffffffffffffffffff000000000000000000000000000000000000000073ffffffffffffffffffffffffffffffffffffffff8216916107ad338414610c9b565b16825581604051917f8be0079c531659141344cd1fd0a4f28419497f9722a3daafe3b4186f6b6457e08284a3f35b507f4e487b7100000000000000000000000000000000000000000000000000000000600052604160045260246000fd5b60c0810190811067ffffffffffffffff82111761082757604052565b61082f6107db565b604052565b90601f7fffffffffffffffffffffffffffffffffffffffffffffffffffffffffffffffe0910116810190811067ffffffffffffffff82111761082757604052565b50346103755760e07ffffffffffffffffffffffffffffffffffffffffffffffffffffffffffffffffc360112610375576004356108b181610357565b60c07fffffffffffffffffffffffffffffffffffffffffffffffffffffffffffffffdc360112610375576109336102e291604051906108ef8261080b565b6024356108fb81610357565b825260443561090981610357565b60208301526064356040830152608435606083015260a435608083015260c43560a0830152610edd565b6040519081529081906020820190565b50346103755760007ffffffffffffffffffffffffffffffffffffffffffffffffffffffffffffffffc36011261037557602073ffffffffffffffffffffffffffffffffffffffff60005416604051908152f35b6109f19092919260c081019360a0809173ffffffffffffffffffffffffffffffffffffffff80825116855260208201511660208501526040810151604085015260608101516060850152608081015160808501520151910152565b565b50346103755760607ffffffffffffffffffffffffffffffffffffffffffffffffffffffffffffffffc360112610375576102e2610afd60a073ffffffffffffffffffffffffffffffffffffffff600435610a4c81610357565b610ade60243591610a5c83610357565b60405192610a698461080b565b60008096858280975282602082015282604082015282606082015282608082015201526040519485809481937f63c69f080000000000000000000000000000000000000000000000000000000083526004830191909173ffffffffffffffffffffffffffffffffffffffff6020820193169052565b0392165afa918215610b25575b8092610b0a575b50506044359061124d565b5160405191829182610996565b610b1e92503d8091833e6103388183610834565b3880610af2565b610b2d610e28565b610aeb565b5034610375576020610b5d606073ffffffffffffffffffffffffffffffffffffffff61067c366105f9565b0392165afa908115610b9a575b600091610b7c575b5051604051908152f35b610b94915060603d8111610722576107148183610834565b38610b72565b610ba2610e28565b610b6a565b50346103755760207ffffffffffffffffffffffffffffffffffffffffffffffffffffffffffffffffc36011261037557600435610be381610357565b73ffffffffffffffffffffffffffffffffffffffff610c0781600054163314610c9b565b811615610c175761059390610d00565b60846040517f08c379a000000000000000000000000000000000000000000000000000000000815260206004820152602660248201527f4f776e61626c653a206e6577206f776e657220697320746865207a65726f206160448201527f64647265737300000000000000000000000000000000000000000000000000006064820152fd5b15610ca257565b60646040517f08c379a000000000000000000000000000000000000000000000000000000000815260206004820152602060248201527f4f776e61626c653a2063616c6c6572206973206e6f7420746865206f776e65726044820152fd5b6000549073ffffffffffffffffffffffffffffffffffffffff80911691827fffffffffffffffffffffffff0000000000000000000000000000000000000000821617600055167f8be0079c531659141344cd1fd0a4f28419497f9722a3daafe3b4186f6b6457e06000604051a3565b507f4e487b7100000000000000000000000000000000000000000000000000000000600052601160045260246000fd5b6001907fffffffffffffffffffffffffffffffffffffffffffffffffffffffffffffffff8114610dcd570190565b610dd5610d6f565b0190565b908160609103126103755760408051916060830183811067ffffffffffffffff821117610e1b575b825280518352602081015160208401520151604082015290565b610e236107db565b610e01565b506040513d6000823e3d90fd5b807fffffffffffffffffffffffffffffffffffffffffffffffffffffffffffffffff04821181151516610e66570290565b610e6e610d6f565b0290565b8115610e7c570490565b7f4e487b7100000000000000000000000000000000000000000000000000000000600052601260045260246000fd5b90816020910312610375575190565b818110610ec5570390565b610ecd610d6f565b0390565b81198111610dcd570190565b6080820151929190600090815b60a084015186116110f85761107e61108491611078868973ffffffffffffffffffffffffffffffffffffffff8716610f52610f39845173ffffffffffffffffffffffffffffffffffffffff1690565b73ffffffffffffffffffffffffffffffffffffffff1690565b90602091610f79610f398487015173ffffffffffffffffffffffffffffffffffffffff1690565b916040928351907f21ba7d630000000000000000000000000000000000000000000000000000000082528180610fe36060998a9460049889850160409194939294606082019573ffffffffffffffffffffffffffffffffffffffff80921683521660208201520152565b0381855afa9586156110eb575b8d966110b6575b5050839061103184611028611016899a836110729b5191015190610e35565b6b033b2e3c9fd0803ce8000000900490565b98015188610e35565b9351928380927fd73792a90000000000000000000000000000000000000000000000000000000082525afa9283156110a9575b8b9361108a575b5050610e72565b90610eba565b90610ed1565b95610d9f565b94610eea565b6110a1929350803d1061030f576103008183610834565b90388061106b565b6110b1610e28565b611064565b6110729650846110286110166110de8996958561103196903d10610722576107148183610834565b9950505050819250610ff7565b6110f3610e28565b610ff0565b9450505050565b60209067ffffffffffffffff8111611119575b60051b0190565b6111216107db565b611112565b60209081818403126103755780519067ffffffffffffffff8211610375570182601f820112156103755780519161115c836110ff565b93604061116b81519687610834565b848652828601918360c080970286010194818611610375578401925b858410611198575050505050505090565b86848303126103755784879184516111af8161080b565b86516111ba81610357565b8152828701516111c981610357565b838201528587015186820152606080880151908201526080808801519082015260a08088015190820152815201930192611187565b90611208826110ff565b6112156040519182610834565b8281527fffffffffffffffffffffffffffffffffffffffffffffffffffffffffffffffe061124382946110ff565b0190602036910137565b80518210156112615760209160051b010190565b7f4e487b7100000000000000000000000000000000000000000000000000000000600052603260045260246000fd5b9190826040910312610375576020825192015190565b90816020910312610375575180151581036103755790565b156112c557565b60846040517f08c379a000000000000000000000000000000000000000000000000000000000815260206004820152602960248201527f537761704578656375746f723a20456d657267656e637920776974686472617760448201527f616c206661696c656400000000000000000000000000000000000000000000006064820152fdfea2646970667358221220488593a8a006f76f135e23518a6ed8e82c7f39c726ef1c78c51176112dd5d65f64736f6c634300080d0033",
  "devdoc": {
    "kind": "dev",
    "methods": {
      "owner()": {
        "details": "Returns the address of the current owner."
      },
      "renounceOwnership()": {
        "details": "Leaves the contract without owner. It will not be possible to call `onlyOwner` functions anymore. Can only be called by the current owner. NOTE: Renouncing ownership will leave the contract without an owner, thereby removing any functionality that is only available to the owner."
      },
      "transferOwnership(address)": {
        "details": "Transfers ownership of the contract to a new account (`newOwner`). Can only be called by the current owner."
      }
    },
    "version": 1
  },
  "userdoc": {
    "kind": "user",
    "methods": {
      "calculateAmountWithdrawn(address,(address,address,uint256,uint256,uint256,uint256))": {
        "notice": "Calculates hoy much |buyToken| has already been withdrawn for a user order. Takes into account fees taken."
      },
      "getUserOrdersWithExtras(address,address)": {
        "notice": "Returns the orders for a user with more information that can be shown on a front end. Might not work well if the user has too many orders, it's just for short-term convenience."
      }
    },
    "version": 1
  },
  "storageLayout": {
    "storage": [
      {
        "astId": 7,
        "contract": "contracts/DCAViewer.sol:DCAViewer",
        "label": "_owner",
        "offset": 0,
        "slot": "0",
        "type": "t_address"
      }
    ],
    "types": {
      "t_address": {
        "encoding": "inplace",
        "label": "address",
        "numberOfBytes": "20"
      }
    }
  }
}