{
  "address": "0xF00979c09aC0c2e825d82480272cC91398e57cd6",
  "abi": [
    {
      "inputs": [
        {
          "internalType": "contract Oracle",
          "name": "_oracle",
          "type": "address"
        }
      ],
      "stateMutability": "nonpayable",
      "type": "constructor"
    },
    {
      "anonymous": false,
      "inputs": [
        {
          "indexed": false,
          "internalType": "address",
          "name": "from",
          "type": "address"
        },
        {
          "indexed": false,
          "internalType": "address",
          "name": "to",
          "type": "address"
        }
      ],
      "name": "OracleAddressMappingSet",
      "type": "event"
    },
    {
      "anonymous": false,
      "inputs": [
        {
          "indexed": false,
          "internalType": "address",
          "name": "oracle",
          "type": "address"
        }
      ],
      "name": "OracleSet",
      "type": "event"
    },
    {
      "anonymous": false,
      "inputs": [
        {
          "indexed": true,
          "internalType": "address",
          "name": "previousOwner",
          "type": "address"
        },
        {
          "indexed": true,
          "internalType": "address",
          "name": "newOwner",
          "type": "address"
        }
      ],
      "name": "OwnershipTransferred",
      "type": "event"
    },
    {
      "inputs": [
        {
          "internalType": "address",
          "name": "_from",
          "type": "address"
        },
        {
          "internalType": "address",
          "name": "_to",
          "type": "address"
        }
      ],
      "name": "addAddressMapping",
      "outputs": [],
      "stateMutability": "nonpayable",
      "type": "function"
    },
    {
      "inputs": [
        {
          "internalType": "address",
          "name": "tokenIn",
          "type": "address"
        },
        {
          "internalType": "uint256",
          "name": "amountIn",
          "type": "uint256"
        },
        {
          "internalType": "address",
          "name": "tokenOut",
          "type": "address"
        }
      ],
      "name": "consult",
      "outputs": [
        {
          "internalType": "uint256",
          "name": "amountOut",
          "type": "uint256"
        }
      ],
      "stateMutability": "view",
      "type": "function"
    },
    {
      "inputs": [
        {
          "internalType": "address",
          "name": "token",
          "type": "address"
        }
      ],
      "name": "getOracleTokenAddress",
      "outputs": [
        {
          "internalType": "address",
          "name": "",
          "type": "address"
        }
      ],
      "stateMutability": "view",
      "type": "function"
    },
    {
      "inputs": [],
      "name": "oracle",
      "outputs": [
        {
          "internalType": "contract Oracle",
          "name": "",
          "type": "address"
        }
      ],
      "stateMutability": "view",
      "type": "function"
    },
    {
      "inputs": [
        {
          "internalType": "address",
          "name": "",
          "type": "address"
        }
      ],
      "name": "oracleAddresses",
      "outputs": [
        {
          "internalType": "address",
          "name": "",
          "type": "address"
        }
      ],
      "stateMutability": "view",
      "type": "function"
    },
    {
      "inputs": [],
      "name": "owner",
      "outputs": [
        {
          "internalType": "address",
          "name": "",
          "type": "address"
        }
      ],
      "stateMutability": "view",
      "type": "function"
    },
    {
      "inputs": [],
      "name": "renounceOwnership",
      "outputs": [],
      "stateMutability": "nonpayable",
      "type": "function"
    },
    {
      "inputs": [
        {
          "internalType": "contract Oracle",
          "name": "_newOracle",
          "type": "address"
        }
      ],
      "name": "setOracle",
      "outputs": [],
      "stateMutability": "nonpayable",
      "type": "function"
    },
    {
      "inputs": [
        {
          "internalType": "address",
          "name": "newOwner",
          "type": "address"
        }
      ],
      "name": "transferOwnership",
      "outputs": [],
      "stateMutability": "nonpayable",
      "type": "function"
    }
  ],
  "transactionHash": "0x2c7b2f83e18d63612f5b95740cf4223b22a8f37f8ead102623786deddd21db83",
  "args": [
    "0x056d9AAC902cc2925BB31f6C516B1e1579c35df9"
  ],
  "numDeployments": 1,
  "solcInputHash": "109aa8e1c7d6e2f21b38b6db3a6b47a3",
  "bytecode": "0x60803461006757601f61097b38819003918201601f19168301916001600160401b0383118484101761006c5780849260209460405283398101031261006757516001600160a01b03811681036100675761005890610082565b60405161087590816101068239f35b600080fd5b634e487b7160e01b600052604160045260246000fd5b600080546001600160a01b03198082163390811784556040517f3f32684a32a11dabdbb8c0177de80aa3ae36a004d75210335b49e544e48cd0aa9560209591946001600160a01b03939192908416907f8be0079c531659141344cd1fd0a4f28419497f9722a3daafe3b4186f6b6457e09087a316809160015416176001558152a156fe60806040526004361015610013575b600080fd5b60003560e01c806337e5724b146100c7578063715018a6146100be57806371eb125e146100b55780637adbf973146100ac5780637dc0d1d0146100a35780638c86f1e41461009a5780638da5cb5b146100915780638ff9b843146100885763f2fde38b1461008057600080fd5b61000e6105b1565b5061000e6104d9565b5061000e610486565b5061000e610367565b5061000e610314565b5061000e61025c565b5061000e6101f0565b5061000e610148565b3461000e5760207ffffffffffffffffffffffffffffffffffffffffffffffffffffffffffffffffc36011261000e57602061010c6004356101078161012a565b610807565b73ffffffffffffffffffffffffffffffffffffffff60405191168152f35b73ffffffffffffffffffffffffffffffffffffffff81160361000e57565b503461000e576000807ffffffffffffffffffffffffffffffffffffffffffffffffffffffffffffffffc3601126101ed5780547fffffffffffffffffffffffff000000000000000000000000000000000000000073ffffffffffffffffffffffffffffffffffffffff8216916101bf3384146106a7565b16825581604051917f8be0079c531659141344cd1fd0a4f28419497f9722a3daafe3b4186f6b6457e08284a3f35b80fd5b503461000e5760207ffffffffffffffffffffffffffffffffffffffffffffffffffffffffffffffffc36011261000e57602060043561022e8161012a565b73ffffffffffffffffffffffffffffffffffffffff8091166000526002825260406000205416604051908152f35b503461000e5760207ffffffffffffffffffffffffffffffffffffffffffffffffffffffffffffffffc36011261000e577f3f32684a32a11dabdbb8c0177de80aa3ae36a004d75210335b49e544e48cd0aa60206004356102bb8161012a565b73ffffffffffffffffffffffffffffffffffffffff906102e0826000541633146106a7565b16807fffffffffffffffffffffffff00000000000000000000000000000000000000006001541617600155604051908152a1005b503461000e5760007ffffffffffffffffffffffffffffffffffffffffffffffffffffffffffffffffc36011261000e57602073ffffffffffffffffffffffffffffffffffffffff60015416604051908152f35b503461000e5760607ffffffffffffffffffffffffffffffffffffffffffffffffffffffffffffffffc36011261000e576104476004356103a68161012a565b60206044356103b48161012a565b606473ffffffffffffffffffffffffffffffffffffffff916103e36103dd846001541696610807565b91610807565b948360405196879586947f8c86f1e400000000000000000000000000000000000000000000000000000000865216600485015260243560248501521660448301525afa908115610479575b60009161044b575b506040519081529081906020820190565b0390f35b61046c915060203d8111610472575b610464818361077b565b8101906107eb565b38610436565b503d61045a565b6104816107fa565b61042e565b503461000e5760007ffffffffffffffffffffffffffffffffffffffffffffffffffffffffffffffffc36011261000e57602073ffffffffffffffffffffffffffffffffffffffff60005416604051908152f35b503461000e5760407ffffffffffffffffffffffffffffffffffffffffffffffffffffffffffffffffc36011261000e577f07d2c916c33b57e54689377381be3ef67a6a53c120daaf90e1e16f1645777e5060406004356105388161012a565b6024356105448161012a565b73ffffffffffffffffffffffffffffffffffffffff809261056a826000541633146106a7565b169182600052600260205283600020911690817fffffffffffffffffffffffff000000000000000000000000000000000000000082541617905582519182526020820152a1005b503461000e5760207ffffffffffffffffffffffffffffffffffffffffffffffffffffffffffffffffc36011261000e576004356105ed8161012a565b73ffffffffffffffffffffffffffffffffffffffff610611816000541633146106a7565b811615610623576106219061070c565b005b60846040517f08c379a000000000000000000000000000000000000000000000000000000000815260206004820152602660248201527f4f776e61626c653a206e6577206f776e657220697320746865207a65726f206160448201527f64647265737300000000000000000000000000000000000000000000000000006064820152fd5b156106ae57565b60646040517f08c379a000000000000000000000000000000000000000000000000000000000815260206004820152602060248201527f4f776e61626c653a2063616c6c6572206973206e6f7420746865206f776e65726044820152fd5b6000549073ffffffffffffffffffffffffffffffffffffffff80911691827fffffffffffffffffffffffff0000000000000000000000000000000000000000821617600055167f8be0079c531659141344cd1fd0a4f28419497f9722a3daafe3b4186f6b6457e06000604051a3565b90601f7fffffffffffffffffffffffffffffffffffffffffffffffffffffffffffffffe0910116810190811067ffffffffffffffff8211176107bc57604052565b7f4e487b7100000000000000000000000000000000000000000000000000000000600052604160045260246000fd5b9081602091031261000e575190565b506040513d6000823e3d90fd5b73ffffffffffffffffffffffffffffffffffffffff8181166000908152600260205260409020541690811561083a575090565b90509056fea264697066735822122024d43c7932e6cae982e0f795b1201eb4881e51fc54f2ddbf6696590f4010ff3764736f6c634300080d0033",
  "devdoc": {
    "kind": "dev",
    "methods": {
      "owner()": {
        "details": "Returns the address of the current owner."
      },
      "renounceOwnership()": {
        "details": "Leaves the contract without owner. It will not be possible to call `onlyOwner` functions anymore. Can only be called by the current owner. NOTE: Renouncing ownership will leave the contract without an owner, thereby removing any functionality that is only available to the owner."
      },
      "transferOwnership(address)": {
        "details": "Transfers ownership of the contract to a new account (`newOwner`). Can only be called by the current owner."
      }
    },
    "version": 1
  },
  "userdoc": {
    "kind": "user",
    "methods": {
      "oracleAddresses(address)": {
        "notice": "Mapping from address to swap to address to use in the oracle. For cUSD, we need to use mcUSD in the oracle because of Ubeswap liquidity. Same with cEUR/cREAL."
      }
    },
    "version": 1
  },
  "storageLayout": {
    "storage": [
      {
        "astId": 7,
        "contract": "contracts/OracleWrapper.sol:OracleWrapper",
        "label": "_owner",
        "offset": 0,
        "slot": "0",
        "type": "t_address"
      },
      {
        "astId": 2372,
        "contract": "contracts/OracleWrapper.sol:OracleWrapper",
        "label": "oracle",
        "offset": 0,
        "slot": "1",
        "type": "t_contract(Oracle)2720"
      },
      {
        "astId": 2377,
        "contract": "contracts/OracleWrapper.sol:OracleWrapper",
        "label": "oracleAddresses",
        "offset": 0,
        "slot": "2",
        "type": "t_mapping(t_address,t_address)"
      }
    ],
    "types": {
      "t_address": {
        "encoding": "inplace",
        "label": "address",
        "numberOfBytes": "20"
      },
      "t_contract(Oracle)2720": {
        "encoding": "inplace",
        "label": "contract Oracle",
        "numberOfBytes": "20"
      },
      "t_mapping(t_address,t_address)": {
        "encoding": "mapping",
        "key": "t_address",
        "label": "mapping(address => address)",
        "numberOfBytes": "32",
        "value": "t_address"
      }
    }
  }
}