{
  "address": "0x4D5ad15035344E1546044491cc52C609B7dF1A87",
  "abi": [
    {
      "inputs": [
        {
          "internalType": "contract ISwappaRouterV1",
          "name": "_swappaRouter",
          "type": "address"
        },
        {
          "internalType": "address",
          "name": "_beneficiary",
          "type": "address"
        }
      ],
      "stateMutability": "nonpayable",
      "type": "constructor"
    },
    {
      "anonymous": false,
      "inputs": [
        {
          "indexed": false,
          "internalType": "address",
          "name": "newBeneficiary",
          "type": "address"
        }
      ],
      "name": "BeneficiarySet",
      "type": "event"
    },
    {
      "anonymous": false,
      "inputs": [
        {
          "indexed": true,
          "internalType": "address",
          "name": "previousOwner",
          "type": "address"
        },
        {
          "indexed": true,
          "internalType": "address",
          "name": "newOwner",
          "type": "address"
        }
      ],
      "name": "OwnershipTransferred",
      "type": "event"
    },
    {
      "inputs": [],
      "name": "beneficiary",
      "outputs": [
        {
          "internalType": "address",
          "name": "",
          "type": "address"
        }
      ],
      "stateMutability": "view",
      "type": "function"
    },
    {
      "inputs": [
        {
          "internalType": "contract IERC20",
          "name": "token",
          "type": "address"
        }
      ],
      "name": "emergency",
      "outputs": [],
      "stateMutability": "nonpayable",
      "type": "function"
    },
    {
      "inputs": [
        {
          "internalType": "contract DCA",
          "name": "dca",
          "type": "address"
        },
        {
          "internalType": "uint256",
          "name": "period",
          "type": "uint256"
        },
        {
          "internalType": "address[]",
          "name": "path",
          "type": "address[]"
        },
        {
          "internalType": "address[]",
          "name": "pairs",
          "type": "address[]"
        },
        {
          "internalType": "bytes[]",
          "name": "extras",
          "type": "bytes[]"
        }
      ],
      "name": "executeMezumoSwap",
      "outputs": [],
      "stateMutability": "nonpayable",
      "type": "function"
    },
    {
      "inputs": [],
      "name": "owner",
      "outputs": [
        {
          "internalType": "address",
          "name": "",
          "type": "address"
        }
      ],
      "stateMutability": "view",
      "type": "function"
    },
    {
      "inputs": [],
      "name": "renounceOwnership",
      "outputs": [],
      "stateMutability": "nonpayable",
      "type": "function"
    },
    {
      "inputs": [
        {
          "internalType": "address",
          "name": "_beneficiary",
          "type": "address"
        }
      ],
      "name": "setBeneficiary",
      "outputs": [],
      "stateMutability": "nonpayable",
      "type": "function"
    },
    {
      "inputs": [
        {
          "internalType": "address",
          "name": "_sellToken",
          "type": "address"
        },
        {
          "internalType": "address",
          "name": "_buyToken",
          "type": "address"
        },
        {
          "internalType": "uint256",
          "name": "_inAmount",
          "type": "uint256"
        },
        {
          "internalType": "uint256",
          "name": "_outAmount",
          "type": "uint256"
        },
        {
          "internalType": "bytes",
          "name": "_params",
          "type": "bytes"
        }
      ],
      "name": "swap",
      "outputs": [],
      "stateMutability": "nonpayable",
      "type": "function"
    },
    {
      "inputs": [
        {
          "internalType": "address",
          "name": "newOwner",
          "type": "address"
        }
      ],
      "name": "transferOwnership",
      "outputs": [],
      "stateMutability": "nonpayable",
      "type": "function"
    }
  ],
  "transactionHash": "0xe0bfaf859c4bdb5f4105da284127d7a1b4aecb65ca79bfab72ffdddde66797f1",
  "args": [
    "0xF35ed7156BABF2541E032B3bB8625210316e2832",
    "0x76efD61146049612A78Fa3e0E9BD0a8Febc9dCe0"
  ],
  "numDeployments": 14,
  "solcInputHash": "109aa8e1c7d6e2f21b38b6db3a6b47a3",
  "bytecode": "0x60803461006f57601f61159e38819003918201601f19168301916001600160401b0383118484101761007457808492604094855283398101031261006f5780602061006092519161004f8361008a565b01519061005b8261008a565b61009b565b604051611471908161012d8239f35b600080fd5b634e487b7160e01b600052604160045260246000fd5b6001600160a01b0381160361006f57565b60008054336001600160a01b0319808316821784556040517f04d55a8be181fb8d75b76f2d48aa0b2ee40f47e53d6e61763eeeec46feea8a2496602096919592946001600160a01b03949193859392918416907f8be0079c531659141344cd1fd0a4f28419497f9722a3daafe3b4186f6b6457e09089a31683600154161760015516809160025416176002558152a156fe60806040526004361015610013575b600080fd5b6000803560e01c9081631c31f710146100b6575080632506c018146100ad57806338af3eed146100a457806345941ee01461009b578063715018a6146100925780638da5cb5b14610089578063adc32210146100805763f2fde38b1461007857600080fd5b61000e6105fb565b5061000e61055a565b5061000e6104d6565b5061000e610431565b5061000e610285565b5061000e610232565b5061000e610190565b3461016f5760207ffffffffffffffffffffffffffffffffffffffffffffffffffffffffffffffffc36011261016f577f04d55a8be181fb8d75b76f2d48aa0b2ee40f47e53d6e61763eeeec46feea8a24602060043561011481610172565b73ffffffffffffffffffffffffffffffffffffffff906101388286541633146106ef565b16807fffffffffffffffffffffffff00000000000000000000000000000000000000006002541617600255604051908152a1604051f35b80fd5b73ffffffffffffffffffffffffffffffffffffffff81160361000e57565b503461000e5760a07ffffffffffffffffffffffffffffffffffffffffffffffffffffffffffffffffc36011261000e576004356101cc81610172565b6024356101d881610172565b6084359167ffffffffffffffff9182841161000e573660238501121561000e57836004013592831161000e57366024848601011161000e576024610225940191606435916044359161105d565b005b600091031261000e57565b503461000e5760007ffffffffffffffffffffffffffffffffffffffffffffffffffffffffffffffffc36011261000e57602073ffffffffffffffffffffffffffffffffffffffff60025416604051908152f35b503461000e576020807ffffffffffffffffffffffffffffffffffffffffffffffffffffffffffffffffc36011261000e57806103a06102259273ffffffffffffffffffffffffffffffffffffffff6004356102df81610172565b166102ff60025473ffffffffffffffffffffffffffffffffffffffff1690565b6040517f70a0823100000000000000000000000000000000000000000000000000000000815230600482015291908383602481855afa928315610424575b6000936103f5575b5060006040518096819582947fa9059cbb000000000000000000000000000000000000000000000000000000008452600484016020909392919373ffffffffffffffffffffffffffffffffffffffff60408201951681520152565b03925af19182156103e8575b6000926103bb575b50506113b0565b6103da9250803d106103e1575b6103d281836108a8565b810190610df7565b38806103b4565b503d6103c8565b6103f0610a4e565b6103ac565b610416919350843d861161041d575b61040e81836108a8565b810190610e9a565b9138610345565b503d610404565b61042c610a4e565b61033d565b503461000e576000807ffffffffffffffffffffffffffffffffffffffffffffffffffffffffffffffffc36011261016f5780547fffffffffffffffffffffffff000000000000000000000000000000000000000073ffffffffffffffffffffffffffffffffffffffff8216916104a83384146106ef565b16825581604051917f8be0079c531659141344cd1fd0a4f28419497f9722a3daafe3b4186f6b6457e08284a3f35b503461000e5760007ffffffffffffffffffffffffffffffffffffffffffffffffffffffffffffffffc36011261000e57602073ffffffffffffffffffffffffffffffffffffffff60005416604051908152f35b9181601f8401121561000e5782359167ffffffffffffffff831161000e576020808501948460051b01011161000e57565b503461000e5760a07ffffffffffffffffffffffffffffffffffffffffffffffffffffffffffffffffc36011261000e5760043561059681610172565b67ffffffffffffffff9060443582811161000e576105b8903690600401610529565b60649291923584811161000e576105d3903690600401610529565b9160843595861161000e576105ef610225963690600401610529565b95909460243590610a5b565b503461000e5760207ffffffffffffffffffffffffffffffffffffffffffffffffffffffffffffffffc36011261000e5760043561063781610172565b73ffffffffffffffffffffffffffffffffffffffff61065b816000541633146106ef565b81161561066b5761022590610754565b60846040517f08c379a000000000000000000000000000000000000000000000000000000000815260206004820152602660248201527f4f776e61626c653a206e6577206f776e657220697320746865207a65726f206160448201527f64647265737300000000000000000000000000000000000000000000000000006064820152fd5b156106f657565b60646040517f08c379a000000000000000000000000000000000000000000000000000000000815260206004820152602060248201527f4f776e61626c653a2063616c6c6572206973206e6f7420746865206f776e65726044820152fd5b6000549073ffffffffffffffffffffffffffffffffffffffff80911691827fffffffffffffffffffffffff0000000000000000000000000000000000000000821617600055167f8be0079c531659141344cd1fd0a4f28419497f9722a3daafe3b4186f6b6457e06000604051a3565b91908082526020809201929160005b8281106107e0575050505090565b90919293828060019273ffffffffffffffffffffffffffffffffffffffff883561080981610172565b168152019501939291016107d2565b601f82602094937fffffffffffffffffffffffffffffffffffffffffffffffffffffffffffffffe0938186528686013760008582860101520116010190565b507f4e487b7100000000000000000000000000000000000000000000000000000000600052604160045260246000fd5b67ffffffffffffffff811161089b57604052565b6108a3610857565b604052565b90601f7fffffffffffffffffffffffffffffffffffffffffffffffffffffffffffffffe0910116810190811067ffffffffffffffff82111761089b57604052565b90156108f25790565b7f4e487b7100000000000000000000000000000000000000000000000000000000600052603260045260246000fd5b91908110156108f25760051b0190565b3561093b81610172565b90565b6001811061096b577fffffffffffffffffffffffffffffffffffffffffffffffffffffffffffffffff0190565b7f4e487b7100000000000000000000000000000000000000000000000000000000600052601160045260246000fd5b91908251928382526000905b8482106109f15750601f84602094957fffffffffffffffffffffffffffffffffffffffffffffffffffffffffffffffe093116109e4575b0116010190565b60008582860101526109dd565b906020908180828501015190828601015201906109a6565b91909360a09361093b969573ffffffffffffffffffffffffffffffffffffffff938480921686521660208501526040840152166060820152816080820152019061099a565b506040513d6000823e3d90fd5b9294969095939193604051978892610ab5602092606084870152610a83608087018b8b6107c3565b907fffffffffffffffffffffffffffffffffffffffffffffffffffffffffffffffe097888884030160408901526107c3565b918585840301606086015281835280830192818360051b8201019480946000925b858410610bb1575050505050505092610b12610b219373ffffffffffffffffffffffffffffffffffffffff93610b3696039081018a52896108a8565b1692610b26610b2186836108e9565b610931565b94610b308161093e565b91610921565b92813b1561000e5760008094610b7d604051978896879586947f06dc1f6a000000000000000000000000000000000000000000000000000000008652309260048701610a09565b03925af18015610ba4575b610b8f5750565b80610b9c610ba292610887565b80610227565b565b610bac610a4e565b610b88565b91939597509193958882820301835287357fffffffffffffffffffffffffffffffffffffffffffffffffffffffffffffffe18536030181121561000e57840190813567ffffffffffffffff811161000e57803603861361000e57610c1c889283928360019601610818565b99019301940191949290938d979694610ad6565b60209067ffffffffffffffff8111610c4a575b60051b0190565b610c52610857565b610c43565b81601f8201121561000e57803591610c6e83610c30565b92610c7c60405194856108a8565b808452602092838086019260051b82010192831161000e578301905b828210610ca6575050505090565b8380918335610cb481610172565b815201910190610c98565b909160608284031261000e5767ffffffffffffffff91803583811161000e5784610cea918301610c57565b936020908183013585811161000e5781610d05918501610c57565b94604093848101359082821161000e570191601f81818501121561000e57833591610d2f83610c30565b96610d3c815198896108a8565b838852868089019460051b8701019582871161000e57878101945b878610610d6a5750505050505050505090565b853587811161000e57820184603f8201121561000e578981013591888311610dea575b8451610dbf8c7fffffffffffffffffffffffffffffffffffffffffffffffffffffffffffffffe08a87011601826108a8565b8381528686858501011161000e5760008c858196898397018386013783010152815201950194610d57565b610df2610857565b610d8d565b9081602091031261000e5751801515810361000e5790565b15610e1657565b60846040517f08c379a000000000000000000000000000000000000000000000000000000000815260206004820152602760248201527f537761704578656375746f723a20417070726f76616c20746f2053776170706160448201527f206661696c6564000000000000000000000000000000000000000000000000006064820152fd5b9081602091031261000e575190565b90815180825260208080930193019160005b828110610ec9575050505090565b835173ffffffffffffffffffffffffffffffffffffffff1685529381019392810192600101610ebb565b94929190610f11610f2091999897959960e0885260e0880190610ea9565b60209287820384890152610ea9565b9085820360408701528251908183528083019281808460051b8301019501936000915b848310610f875750505050505091610f839160c09493976060850152608084015260a083019073ffffffffffffffffffffffffffffffffffffffff169052565b0152565b9091929394958480610fc3837fffffffffffffffffffffffffffffffffffffffffffffffffffffffffffffffe086600196030187528a5161099a565b9801930193019194939290610f43565b15610fda57565b60846040517f08c379a0000000000000000000000000000000000000000000000000000000008152602060048201526024808201527f537761704578656375746f723a205472616e7366657220746f2044434120666160448201527f696c6564000000000000000000000000000000000000000000000000000000006064820152fd5b938395810161106b91610cbf565b96919590926001546110909073ffffffffffffffffffffffffffffffffffffffff1690565b73ffffffffffffffffffffffffffffffffffffffff166040517f095ea7b300000000000000000000000000000000000000000000000000000000815273ffffffffffffffffffffffffffffffffffffffff90911660048201526024810186905296879660209687968792918a60448101038460009d8e92818473ffffffffffffffffffffffffffffffffffffffff809d165af19d8e15610ba29f6112c39e611144926113a3575b8491611386575b50610e0f565b6111bd61118261116960015473ffffffffffffffffffffffffffffffffffffffff1690565b73ffffffffffffffffffffffffffffffffffffffff1690565b94604051988997889687957f0862d12f0000000000000000000000000000000000000000000000000000000087524294309460048901610ef3565b03925af18015611379575b61135c575b506040517fa9059cbb0000000000000000000000000000000000000000000000000000000080825233600483015260248201949094529116906112289084816044818b875af190811561134f575b8891611332575b50610fd3565b6002546040517f70a082310000000000000000000000000000000000000000000000000000000081523060048201529273ffffffffffffffffffffffffffffffffffffffff9091169087908585602481875afa948515611325575b8295611306575b50604051978895869485938452600484016020909392919373ffffffffffffffffffffffffffffffffffffffff60408201951681520152565b03925af19283156112f9575b926112dc575b5050610fd3565b6112f29250803d106103e1576103d281836108a8565b38806112d5565b611301610a4e565b6112cf565b61131e919550863d881161041d5761040e81836108a8565b933861128a565b61132d610a4e565b611283565b6113499150853d87116103e1576103d281836108a8565b38611222565b611357610a4e565b61121b565b61137290853d871161041d5761040e81836108a8565b50386111cd565b611381610a4e565b6111c8565b61139d9150883d8a116103e1576103d281836108a8565b3861113e565b6113ab610a4e565b611137565b156113b757565b60846040517f08c379a000000000000000000000000000000000000000000000000000000000815260206004820152602960248201527f537761704578656375746f723a20456d657267656e637920776974686472617760448201527f616c206661696c656400000000000000000000000000000000000000000000006064820152fdfea2646970667358221220b8947e7b14bbbb2010836703acc2fa1f5beba576f23372d87ed9ef0a583c468164736f6c634300080d0033",
  "devdoc": {
    "kind": "dev",
    "methods": {
      "owner()": {
        "details": "Returns the address of the current owner."
      },
      "renounceOwnership()": {
        "details": "Leaves the contract without owner. It will not be possible to call `onlyOwner` functions anymore. Can only be called by the current owner. NOTE: Renouncing ownership will leave the contract without an owner, thereby removing any functionality that is only available to the owner."
      },
      "transferOwnership(address)": {
        "details": "Transfers ownership of the contract to a new account (`newOwner`). Can only be called by the current owner."
      }
    },
    "version": 1
  },
  "userdoc": {
    "kind": "user",
    "methods": {},
    "version": 1
  },
  "storageLayout": {
    "storage": [
      {
        "astId": 7,
        "contract": "contracts/SwapExecutor.sol:SwapExecutor",
        "label": "_owner",
        "offset": 0,
        "slot": "0",
        "type": "t_address"
      },
      {
        "astId": 2500,
        "contract": "contracts/SwapExecutor.sol:SwapExecutor",
        "label": "swappaRouter",
        "offset": 0,
        "slot": "1",
        "type": "t_contract(ISwappaRouterV1)2783"
      },
      {
        "astId": 2502,
        "contract": "contracts/SwapExecutor.sol:SwapExecutor",
        "label": "beneficiary",
        "offset": 0,
        "slot": "2",
        "type": "t_address"
      }
    ],
    "types": {
      "t_address": {
        "encoding": "inplace",
        "label": "address",
        "numberOfBytes": "20"
      },
      "t_contract(ISwappaRouterV1)2783": {
        "encoding": "inplace",
        "label": "contract ISwappaRouterV1",
        "numberOfBytes": "20"
      }
    }
  }
}