{
  "address": "0x75e612f4b0395B4f66590A05eC528dec938376A9",
  "abi": [
    {
      "inputs": [
        {
          "internalType": "contract DCA",
          "name": "_dca",
          "type": "address"
        },
        {
          "internalType": "contract ISwappaRouterV1",
          "name": "_swappaRouter",
          "type": "address"
        },
        {
          "internalType": "address",
          "name": "_beneficiary",
          "type": "address"
        }
      ],
      "stateMutability": "nonpayable",
      "type": "constructor"
    },
    {
      "anonymous": false,
      "inputs": [
        {
          "indexed": false,
          "internalType": "address",
          "name": "newBeneficiary",
          "type": "address"
        }
      ],
      "name": "BeneficiarySet",
      "type": "event"
    },
    {
      "anonymous": false,
      "inputs": [
        {
          "indexed": true,
          "internalType": "address",
          "name": "previousOwner",
          "type": "address"
        },
        {
          "indexed": true,
          "internalType": "address",
          "name": "newOwner",
          "type": "address"
        }
      ],
      "name": "OwnershipTransferred",
      "type": "event"
    },
    {
      "inputs": [],
      "name": "beneficiary",
      "outputs": [
        {
          "internalType": "address",
          "name": "",
          "type": "address"
        }
      ],
      "stateMutability": "view",
      "type": "function"
    },
    {
      "inputs": [
        {
          "internalType": "contract IERC20",
          "name": "token",
          "type": "address"
        }
      ],
      "name": "emergency",
      "outputs": [],
      "stateMutability": "nonpayable",
      "type": "function"
    },
    {
      "inputs": [
        {
          "internalType": "uint256",
          "name": "period",
          "type": "uint256"
        },
        {
          "internalType": "address[]",
          "name": "path",
          "type": "address[]"
        },
        {
          "internalType": "address[]",
          "name": "pairs",
          "type": "address[]"
        },
        {
          "internalType": "bytes[]",
          "name": "extras",
          "type": "bytes[]"
        }
      ],
      "name": "executeMezumoSwap",
      "outputs": [],
      "stateMutability": "nonpayable",
      "type": "function"
    },
    {
      "inputs": [],
      "name": "owner",
      "outputs": [
        {
          "internalType": "address",
          "name": "",
          "type": "address"
        }
      ],
      "stateMutability": "view",
      "type": "function"
    },
    {
      "inputs": [],
      "name": "renounceOwnership",
      "outputs": [],
      "stateMutability": "nonpayable",
      "type": "function"
    },
    {
      "inputs": [
        {
          "internalType": "address",
          "name": "_beneficiary",
          "type": "address"
        }
      ],
      "name": "setBeneficiary",
      "outputs": [],
      "stateMutability": "nonpayable",
      "type": "function"
    },
    {
      "inputs": [
        {
          "internalType": "address",
          "name": "_sellToken",
          "type": "address"
        },
        {
          "internalType": "address",
          "name": "_buyToken",
          "type": "address"
        },
        {
          "internalType": "uint256",
          "name": "_inAmount",
          "type": "uint256"
        },
        {
          "internalType": "uint256",
          "name": "_outAmount",
          "type": "uint256"
        },
        {
          "internalType": "bytes",
          "name": "_params",
          "type": "bytes"
        }
      ],
      "name": "swap",
      "outputs": [],
      "stateMutability": "nonpayable",
      "type": "function"
    },
    {
      "inputs": [
        {
          "internalType": "address",
          "name": "newOwner",
          "type": "address"
        }
      ],
      "name": "transferOwnership",
      "outputs": [],
      "stateMutability": "nonpayable",
      "type": "function"
    }
  ],
  "transactionHash": "0xcb0afffcc4049bfe3889510a42470d7c454984b80efb6d8e594edc9c9533eeb8",
  "args": [
    "0x0e0f930d4712c2104D8A5AEAf65f2c77a57fc3ec",
    "0xF35ed7156BABF2541E032B3bB8625210316e2832",
    "0x76efD61146049612A78Fa3e0E9BD0a8Febc9dCe0"
  ],
  "numDeployments": 13,
  "solcInputHash": "c0c774333706ff6479e6c30278bbe18f",
  "bytecode": "0x6080346200008b57601f620015ed38819003918201601f19168301916001600160401b0383118484101762000090578084926060946040528339810103126200008b5780516200007b916200005482620000a6565b60406020820151916200006783620000a6565b0151916200007583620000a6565b620000b8565b60405161149d9081620001508239f35b600080fd5b634e487b7160e01b600052604160045260246000fd5b6001600160a01b038116036200008b57565b907f04d55a8be181fb8d75b76f2d48aa0b2ee40f47e53d6e61763eeeec46feea8a24926020926000549160018060a01b03199233848216176000556040519460018060a01b0380948193823391167f8be0079c531659141344cd1fd0a4f28419497f9722a3daafe3b4186f6b6457e060008ba3168560015416176001551683600254161760025516809160035416176003558152a156fe60806040526004361015610013575b600080fd5b6000803560e01c9081631c31f710146100b6575080632506c018146100ad57806338af3eed146100a457806345941ee01461009b5780635dbd944c14610092578063715018a6146100895780638da5cb5b146100805763f2fde38b1461007857600080fd5b61000e6107cf565b5061000e61077c565b5061000e6106d7565b5061000e610462565b5061000e610285565b5061000e610232565b5061000e610190565b3461016f5760207ffffffffffffffffffffffffffffffffffffffffffffffffffffffffffffffffc36011261016f577f04d55a8be181fb8d75b76f2d48aa0b2ee40f47e53d6e61763eeeec46feea8a24602060043561011481610172565b73ffffffffffffffffffffffffffffffffffffffff906101388286541633146108c3565b16807fffffffffffffffffffffffff00000000000000000000000000000000000000006003541617600355604051908152a1604051f35b80fd5b73ffffffffffffffffffffffffffffffffffffffff81160361000e57565b503461000e5760a07ffffffffffffffffffffffffffffffffffffffffffffffffffffffffffffffffc36011261000e576004356101cc81610172565b6024356101d881610172565b6084359167ffffffffffffffff9182841161000e573660238501121561000e57836004013592831161000e57366024848601011161000e576024610225940191606435916044359161105c565b005b600091031261000e57565b503461000e5760007ffffffffffffffffffffffffffffffffffffffffffffffffffffffffffffffffc36011261000e57602073ffffffffffffffffffffffffffffffffffffffff60035416604051908152f35b503461000e576020807ffffffffffffffffffffffffffffffffffffffffffffffffffffffffffffffffc36011261000e57806103a06102259273ffffffffffffffffffffffffffffffffffffffff6004356102df81610172565b166102ff60035473ffffffffffffffffffffffffffffffffffffffff1690565b6040517f70a0823100000000000000000000000000000000000000000000000000000000815230600482015291908383602481855afa928315610424575b6000936103f5575b5060006040518096819582947fa9059cbb000000000000000000000000000000000000000000000000000000008452600484016020909392919373ffffffffffffffffffffffffffffffffffffffff60408201951681520152565b03925af19182156103e8575b6000926103bb575b50506113dc565b6103da9250803d106103e1575b6103d28183610a7c565b810190610df6565b38806103b4565b503d6103c8565b6103f0610c22565b6103ac565b610416919350843d861161041d575b61040e8183610a7c565b810190610e99565b9138610345565b503d610404565b61042c610c22565b61033d565b9181601f8401121561000e5782359167ffffffffffffffff831161000e576020808501948460051b01011161000e57565b503461000e5760807ffffffffffffffffffffffffffffffffffffffffffffffffffffffffffffffffc36011261000e5767ffffffffffffffff60243581811161000e576104b3903690600401610431565b909160443581811161000e576104cd903690600401610431565b60643583811161000e576104e990939291933690600401610431565b939060405194859261053d60209160608387015261050b608087018b8d610997565b907fffffffffffffffffffffffffffffffffffffffffffffffffffffffffffffffe09788888403016040890152610997565b8585820301606086015282815281810196828460051b83010197856000935b86851061065c57505050505050505061057b9203908101835282610a7c565b6105df6105ca6105bc6105a360015473ffffffffffffffffffffffffffffffffffffffff1690565b73ffffffffffffffffffffffffffffffffffffffff1690565b946105cf6105ca8683610abd565b610b05565b946105d981610b12565b91610af5565b92803b1561000e5761062b9360008094604051968795869485937f06dc1f6a00000000000000000000000000000000000000000000000000000000855230916004359160048701610bdd565b03925af1801561064f575b61063c57005b8061064961022592610a5b565b80610227565b610657610c22565b610636565b919395975091939597988982820301845288357fffffffffffffffffffffffffffffffffffffffffffffffffffffffffffffffe18436030181121561000e57830190813586811161000e57803603851361000e576106c18992839283600196016109ec565b9a0194019501929593918a97959199989961055c565b503461000e576000807ffffffffffffffffffffffffffffffffffffffffffffffffffffffffffffffffc36011261016f5780547fffffffffffffffffffffffff000000000000000000000000000000000000000073ffffffffffffffffffffffffffffffffffffffff82169161074e3384146108c3565b16825581604051917f8be0079c531659141344cd1fd0a4f28419497f9722a3daafe3b4186f6b6457e08284a3f35b503461000e5760007ffffffffffffffffffffffffffffffffffffffffffffffffffffffffffffffffc36011261000e57602073ffffffffffffffffffffffffffffffffffffffff60005416604051908152f35b503461000e5760207ffffffffffffffffffffffffffffffffffffffffffffffffffffffffffffffffc36011261000e5760043561080b81610172565b73ffffffffffffffffffffffffffffffffffffffff61082f816000541633146108c3565b81161561083f5761022590610928565b60846040517f08c379a000000000000000000000000000000000000000000000000000000000815260206004820152602660248201527f4f776e61626c653a206e6577206f776e657220697320746865207a65726f206160448201527f64647265737300000000000000000000000000000000000000000000000000006064820152fd5b156108ca57565b60646040517f08c379a000000000000000000000000000000000000000000000000000000000815260206004820152602060248201527f4f776e61626c653a2063616c6c6572206973206e6f7420746865206f776e65726044820152fd5b6000549073ffffffffffffffffffffffffffffffffffffffff80911691827fffffffffffffffffffffffff0000000000000000000000000000000000000000821617600055167f8be0079c531659141344cd1fd0a4f28419497f9722a3daafe3b4186f6b6457e06000604051a3565b91908082526020809201929160005b8281106109b4575050505090565b90919293828060019273ffffffffffffffffffffffffffffffffffffffff88356109dd81610172565b168152019501939291016109a6565b601f82602094937fffffffffffffffffffffffffffffffffffffffffffffffffffffffffffffffe0938186528686013760008582860101520116010190565b507f4e487b7100000000000000000000000000000000000000000000000000000000600052604160045260246000fd5b67ffffffffffffffff8111610a6f57604052565b610a77610a2b565b604052565b90601f7fffffffffffffffffffffffffffffffffffffffffffffffffffffffffffffffe0910116810190811067ffffffffffffffff821117610a6f57604052565b9015610ac65790565b7f4e487b7100000000000000000000000000000000000000000000000000000000600052603260045260246000fd5b9190811015610ac65760051b0190565b35610b0f81610172565b90565b60018110610b3f577fffffffffffffffffffffffffffffffffffffffffffffffffffffffffffffffff0190565b7f4e487b7100000000000000000000000000000000000000000000000000000000600052601160045260246000fd5b91908251928382526000905b848210610bc55750601f84602094957fffffffffffffffffffffffffffffffffffffffffffffffffffffffffffffffe09311610bb8575b0116010190565b6000858286010152610bb1565b90602090818082850101519082860101520190610b7a565b91909360a093610b0f969573ffffffffffffffffffffffffffffffffffffffff9384809216865216602085015260408401521660608201528160808201520190610b6e565b506040513d6000823e3d90fd5b60209067ffffffffffffffff8111610c49575b60051b0190565b610c51610a2b565b610c42565b81601f8201121561000e57803591610c6d83610c2f565b92610c7b6040519485610a7c565b808452602092838086019260051b82010192831161000e578301905b828210610ca5575050505090565b8380918335610cb381610172565b815201910190610c97565b909160608284031261000e5767ffffffffffffffff91803583811161000e5784610ce9918301610c56565b936020908183013585811161000e5781610d04918501610c56565b94604093848101359082821161000e570191601f81818501121561000e57833591610d2e83610c2f565b96610d3b81519889610a7c565b838852868089019460051b8701019582871161000e57878101945b878610610d695750505050505050505090565b853587811161000e57820184603f8201121561000e578981013591888311610de9575b8451610dbe8c7fffffffffffffffffffffffffffffffffffffffffffffffffffffffffffffffe08a8701160182610a7c565b8381528686858501011161000e5760008c858196898397018386013783010152815201950194610d56565b610df1610a2b565b610d8c565b9081602091031261000e5751801515810361000e5790565b15610e1557565b60846040517f08c379a000000000000000000000000000000000000000000000000000000000815260206004820152602760248201527f537761704578656375746f723a20417070726f76616c20746f2053776170706160448201527f206661696c6564000000000000000000000000000000000000000000000000006064820152fd5b9081602091031261000e575190565b90815180825260208080930193019160005b828110610ec8575050505090565b835173ffffffffffffffffffffffffffffffffffffffff1685529381019392810192600101610eba565b94929190610f10610f1f91999897959960e0885260e0880190610ea8565b60209287820384890152610ea8565b9085820360408701528251908183528083019281808460051b8301019501936000915b848310610f865750505050505091610f829160c09493976060850152608084015260a083019073ffffffffffffffffffffffffffffffffffffffff169052565b0152565b9091929394958480610fc2837fffffffffffffffffffffffffffffffffffffffffffffffffffffffffffffffe086600196030187528a51610b6e565b9801930193019194939290610f42565b15610fd957565b60846040517f08c379a0000000000000000000000000000000000000000000000000000000008152602060048201526024808201527f537761704578656375746f723a205472616e7366657220746f2044434120666160448201527f696c6564000000000000000000000000000000000000000000000000000000006064820152fd5b938395810161106a91610cbe565b969195909260025461108f9073ffffffffffffffffffffffffffffffffffffffff1690565b73ffffffffffffffffffffffffffffffffffffffff166040517f095ea7b300000000000000000000000000000000000000000000000000000000815273ffffffffffffffffffffffffffffffffffffffff90911660048201526024810186905296879660209687968792918a60448101038460009d8e92818473ffffffffffffffffffffffffffffffffffffffff809d165af19d8e156113069f6112ed9e611143926113cf575b84916113b2575b50610e0e565b6111a36111686105a360025473ffffffffffffffffffffffffffffffffffffffff1690565b94604051988997889687957f0862d12f0000000000000000000000000000000000000000000000000000000087524294309460048901610ef2565b03925af180156113a5575b611388575b5016611252611237846111de6105a360015473ffffffffffffffffffffffffffffffffffffffff1690565b94604051809381927fa9059cbb0000000000000000000000000000000000000000000000000000000098898452600484016020909392919373ffffffffffffffffffffffffffffffffffffffff60408201951681520152565b03818b875af190811561137b575b889161135e575b50610fd2565b6003546040517f70a082310000000000000000000000000000000000000000000000000000000081523060048201529273ffffffffffffffffffffffffffffffffffffffff9091169087908585602481875afa948515611351575b8295611332575b50604051978895869485938452600484016020909392919373ffffffffffffffffffffffffffffffffffffffff60408201951681520152565b03925af1928315611325575b92611308575b5050610fd2565b565b61131e9250803d106103e1576103d28183610a7c565b38806112ff565b61132d610c22565b6112f9565b61134a919550863d881161041d5761040e8183610a7c565b93386112b4565b611359610c22565b6112ad565b6113759150853d87116103e1576103d28183610a7c565b3861124c565b611383610c22565b611245565b61139e90853d871161041d5761040e8183610a7c565b50386111b3565b6113ad610c22565b6111ae565b6113c99150883d8a116103e1576103d28183610a7c565b3861113d565b6113d7610c22565b611136565b156113e357565b60846040517f08c379a000000000000000000000000000000000000000000000000000000000815260206004820152602960248201527f537761704578656375746f723a20456d657267656e637920776974686472617760448201527f616c206661696c656400000000000000000000000000000000000000000000006064820152fdfea2646970667358221220cf60f52df0f3d30174712412c59cd419d731a020d1e190e5b0894f3264fbdf8c64736f6c634300080d0033",
  "devdoc": {
    "kind": "dev",
    "methods": {
      "owner()": {
        "details": "Returns the address of the current owner."
      },
      "renounceOwnership()": {
        "details": "Leaves the contract without owner. It will not be possible to call `onlyOwner` functions anymore. Can only be called by the current owner. NOTE: Renouncing ownership will leave the contract without an owner, thereby removing any functionality that is only available to the owner."
      },
      "transferOwnership(address)": {
        "details": "Transfers ownership of the contract to a new account (`newOwner`). Can only be called by the current owner."
      }
    },
    "version": 1
  },
  "userdoc": {
    "kind": "user",
    "methods": {},
    "version": 1
  },
  "storageLayout": {
    "storage": [
      {
        "astId": 7,
        "contract": "contracts/SwapExecutor.sol:SwapExecutor",
        "label": "_owner",
        "offset": 0,
        "slot": "0",
        "type": "t_address"
      },
      {
        "astId": 2186,
        "contract": "contracts/SwapExecutor.sol:SwapExecutor",
        "label": "dca",
        "offset": 0,
        "slot": "1",
        "type": "t_contract(DCA)2168"
      },
      {
        "astId": 2189,
        "contract": "contracts/SwapExecutor.sol:SwapExecutor",
        "label": "swappaRouter",
        "offset": 0,
        "slot": "2",
        "type": "t_contract(ISwappaRouterV1)2478"
      },
      {
        "astId": 2191,
        "contract": "contracts/SwapExecutor.sol:SwapExecutor",
        "label": "beneficiary",
        "offset": 0,
        "slot": "3",
        "type": "t_address"
      }
    ],
    "types": {
      "t_address": {
        "encoding": "inplace",
        "label": "address",
        "numberOfBytes": "20"
      },
      "t_contract(DCA)2168": {
        "encoding": "inplace",
        "label": "contract DCA",
        "numberOfBytes": "20"
      },
      "t_contract(ISwappaRouterV1)2478": {
        "encoding": "inplace",
        "label": "contract ISwappaRouterV1",
        "numberOfBytes": "20"
      }
    }
  }
}